{
  "_format": "hh-sol-artifact-1",
  "contractName": "P2PIX",
  "sourceName": "contracts/p2pix.sol",
  "abi": [
    {
      "inputs": [
        {
          "internalType": "uint256",
          "name": "defaultBlocks",
          "type": "uint256"
        },
        {
          "internalType": "address[]",
          "name": "validSigners",
          "type": "address[]"
        },
        {
          "internalType": "contract IReputation",
          "name": "_reputation",
          "type": "address"
        },
        {
          "internalType": "address[]",
          "name": "tokens",
          "type": "address[]"
        },
        {
          "internalType": "bool[]",
          "name": "tokenStates",
          "type": "bool[]"
        }
      ],
      "stateMutability": "payable",
      "type": "constructor"
    },
    {
      "inputs": [],
      "name": "AddressDenied",
      "type": "error"
    },
    {
      "inputs": [],
      "name": "AlreadyReleased",
      "type": "error"
    },
    {
      "inputs": [],
      "name": "AmountNotAllowed",
      "type": "error"
    },
    {
      "inputs": [],
      "name": "DepositAlreadyExists",
      "type": "error"
    },
    {
      "inputs": [],
      "name": "InvalidDeposit",
      "type": "error"
    },
    {
      "inputs": [],
      "name": "InvalidSigner",
      "type": "error"
    },
    {
      "inputs": [],
      "name": "LengthMismatch",
      "type": "error"
    },
    {
      "inputs": [],
      "name": "LockExpired",
      "type": "error"
    },
    {
      "inputs": [],
      "name": "LoopOverflow",
      "type": "error"
    },
    {
      "inputs": [],
      "name": "NoTokens",
      "type": "error"
    },
    {
      "inputs": [],
      "name": "NotEnoughTokens",
      "type": "error"
    },
    {
      "inputs": [],
      "name": "NotExpired",
      "type": "error"
    },
    {
      "inputs": [],
      "name": "OnlySeller",
      "type": "error"
    },
    {
      "inputs": [],
      "name": "Reentrancy",
      "type": "error"
    },
    {
      "inputs": [],
      "name": "StaticCallFailed",
      "type": "error"
    },
    {
      "inputs": [],
      "name": "TokenDenied",
      "type": "error"
    },
    {
      "inputs": [],
      "name": "TxAlreadyUsed",
      "type": "error"
    },
    {
      "anonymous": false,
      "inputs": [
        {
          "indexed": true,
          "internalType": "address",
          "name": "token",
          "type": "address"
        },
        {
          "indexed": true,
          "internalType": "bool",
          "name": "state",
          "type": "bool"
        }
      ],
      "name": "AllowedERC20Updated",
      "type": "event"
    },
    {
      "anonymous": false,
      "inputs": [
        {
          "indexed": true,
          "internalType": "address",
          "name": "seller",
          "type": "address"
        },
        {
          "indexed": false,
          "internalType": "uint256",
          "name": "depositID",
          "type": "uint256"
        },
        {
          "indexed": false,
          "internalType": "address",
          "name": "token",
          "type": "address"
        },
        {
          "indexed": false,
          "internalType": "uint256",
          "name": "amount",
          "type": "uint256"
        }
      ],
      "name": "DepositAdded",
      "type": "event"
    },
    {
      "anonymous": false,
      "inputs": [
        {
          "indexed": true,
          "internalType": "address",
          "name": "seller",
          "type": "address"
        },
        {
          "indexed": false,
          "internalType": "uint256",
          "name": "depositID",
          "type": "uint256"
        }
      ],
      "name": "DepositClosed",
      "type": "event"
    },
    {
      "anonymous": false,
      "inputs": [
        {
          "indexed": true,
          "internalType": "address",
          "name": "seller",
          "type": "address"
        },
        {
          "indexed": false,
          "internalType": "uint256",
          "name": "depositID",
          "type": "uint256"
        },
        {
          "indexed": false,
          "internalType": "uint256",
          "name": "amount",
          "type": "uint256"
        }
      ],
      "name": "DepositWithdrawn",
      "type": "event"
    },
    {
      "anonymous": false,
      "inputs": [
        {
          "indexed": false,
          "internalType": "address",
          "name": "owner",
          "type": "address"
        },
        {
          "indexed": false,
          "internalType": "uint256",
          "name": "amount",
          "type": "uint256"
        }
      ],
      "name": "FundsWithdrawn",
      "type": "event"
    },
    {
      "anonymous": false,
      "inputs": [
        {
          "indexed": true,
          "internalType": "address",
          "name": "buyer",
          "type": "address"
        },
        {
          "indexed": true,
          "internalType": "bytes32",
          "name": "lockID",
          "type": "bytes32"
        },
        {
          "indexed": false,
          "internalType": "uint256",
          "name": "depositID",
          "type": "uint256"
        },
        {
          "indexed": false,
          "internalType": "uint256",
          "name": "amount",
          "type": "uint256"
        }
      ],
      "name": "LockAdded",
      "type": "event"
    },
    {
      "anonymous": false,
      "inputs": [
        {
          "indexed": false,
          "internalType": "uint256",
          "name": "blocks",
          "type": "uint256"
        }
      ],
      "name": "LockBlocksUpdated",
      "type": "event"
    },
    {
      "anonymous": false,
      "inputs": [
        {
          "indexed": true,
          "internalType": "address",
          "name": "buyer",
          "type": "address"
        },
        {
          "indexed": false,
          "internalType": "bytes32",
          "name": "lockId",
          "type": "bytes32"
        },
        {
          "indexed": false,
          "internalType": "uint256",
          "name": "amount",
          "type": "uint256"
        }
      ],
      "name": "LockReleased",
      "type": "event"
    },
    {
      "anonymous": false,
      "inputs": [
        {
          "indexed": true,
          "internalType": "address",
          "name": "buyer",
          "type": "address"
        },
        {
          "indexed": false,
          "internalType": "bytes32",
          "name": "lockId",
          "type": "bytes32"
        }
      ],
      "name": "LockReturned",
      "type": "event"
    },
    {
      "anonymous": false,
      "inputs": [
        {
          "indexed": true,
          "internalType": "address",
          "name": "user",
          "type": "address"
        },
        {
          "indexed": true,
          "internalType": "address",
          "name": "newOwner",
          "type": "address"
        }
      ],
      "name": "OwnerUpdated",
      "type": "event"
    },
    {
      "anonymous": false,
      "inputs": [
        {
          "indexed": false,
          "internalType": "address",
          "name": "reputation",
          "type": "address"
        }
      ],
      "name": "ReputationUpdated",
      "type": "event"
    },
    {
      "anonymous": false,
      "inputs": [
        {
          "indexed": false,
          "internalType": "address",
          "name": "seller",
          "type": "address"
        },
        {
          "indexed": false,
          "internalType": "bytes32",
          "name": "merkleRoot",
          "type": "bytes32"
        }
      ],
      "name": "RootUpdated",
      "type": "event"
    },
    {
      "anonymous": false,
      "inputs": [
        {
          "indexed": false,
          "internalType": "address[]",
          "name": "signers",
          "type": "address[]"
        }
      ],
      "name": "ValidSignersUpdated",
      "type": "event"
    },
    {
      "inputs": [],
      "name": "WAD",
      "outputs": [
        {
          "internalType": "uint256",
          "name": "",
          "type": "uint256"
        }
      ],
      "stateMutability": "view",
      "type": "function"
    },
    {
      "inputs": [
        {
          "internalType": "address",
          "name": "_addr",
          "type": "address"
        }
      ],
      "name": "_castAddrToKey",
      "outputs": [
        {
          "internalType": "uint256",
          "name": "_key",
          "type": "uint256"
        }
      ],
      "stateMutability": "pure",
      "type": "function"
    },
    {
      "inputs": [
        {
          "internalType": "contract ERC20",
          "name": "",
          "type": "address"
        }
      ],
      "name": "allowedERC20s",
      "outputs": [
        {
          "internalType": "bool",
          "name": "",
          "type": "bool"
        }
      ],
      "stateMutability": "view",
      "type": "function"
    },
    {
      "inputs": [
        {
          "internalType": "uint256",
          "name": "depositID",
          "type": "uint256"
        }
      ],
      "name": "cancelDeposit",
      "outputs": [],
      "stateMutability": "nonpayable",
      "type": "function"
    },
    {
      "inputs": [],
      "name": "defaultLockBlocks",
      "outputs": [
        {
          "internalType": "uint256",
          "name": "",
          "type": "uint256"
        }
      ],
      "stateMutability": "view",
      "type": "function"
    },
    {
      "inputs": [
        {
          "internalType": "address",
          "name": "_token",
          "type": "address"
        },
        {
          "internalType": "uint256",
          "name": "_amount",
          "type": "uint256"
        },
        {
          "internalType": "string",
          "name": "_pixTarget",
          "type": "string"
        },
        {
          "internalType": "bytes32",
          "name": "allowlistRoot",
          "type": "bytes32"
        }
      ],
      "name": "deposit",
      "outputs": [
        {
          "internalType": "uint256",
          "name": "depositID",
          "type": "uint256"
        }
      ],
      "stateMutability": "nonpayable",
      "type": "function"
    },
    {
      "inputs": [],
      "name": "depositCount",
      "outputs": [
        {
          "internalType": "uint256",
          "name": "_val",
          "type": "uint256"
        }
      ],
      "stateMutability": "view",
      "type": "function"
    },
    {
      "inputs": [
        {
          "internalType": "uint256",
          "name": "_depositID",
          "type": "uint256"
        },
        {
          "internalType": "address",
          "name": "_buyerAddress",
          "type": "address"
        },
        {
          "internalType": "address",
          "name": "_relayerTarget",
          "type": "address"
        },
        {
          "internalType": "uint256",
          "name": "_relayerPremium",
          "type": "uint256"
        },
        {
          "internalType": "uint256",
          "name": "_amount",
          "type": "uint256"
        },
        {
          "internalType": "bytes32[]",
          "name": "merkleProof",
          "type": "bytes32[]"
        },
        {
          "internalType": "bytes32[]",
          "name": "expiredLocks",
          "type": "bytes32[]"
        }
      ],
      "name": "lock",
      "outputs": [
        {
          "internalType": "bytes32",
          "name": "lockID",
          "type": "bytes32"
        }
      ],
      "stateMutability": "nonpayable",
      "type": "function"
    },
    {
      "inputs": [
        {
          "internalType": "uint256",
          "name": "",
          "type": "uint256"
        }
      ],
      "name": "mapDeposits",
      "outputs": [
        {
          "internalType": "uint256",
          "name": "remaining",
          "type": "uint256"
        },
        {
          "internalType": "string",
          "name": "pixTarget",
          "type": "string"
        },
        {
          "internalType": "address",
          "name": "seller",
          "type": "address"
        },
        {
          "internalType": "address",
          "name": "token",
          "type": "address"
        },
        {
          "internalType": "bool",
          "name": "valid",
          "type": "bool"
        }
      ],
      "stateMutability": "view",
      "type": "function"
    },
    {
      "inputs": [
        {
          "internalType": "bytes32",
          "name": "",
          "type": "bytes32"
        }
      ],
      "name": "mapLocks",
      "outputs": [
        {
          "internalType": "uint256",
          "name": "depositID",
          "type": "uint256"
        },
        {
          "internalType": "uint256",
          "name": "relayerPremium",
          "type": "uint256"
        },
        {
          "internalType": "uint256",
          "name": "amount",
          "type": "uint256"
        },
        {
          "internalType": "uint256",
          "name": "expirationBlock",
          "type": "uint256"
        },
        {
          "internalType": "address",
          "name": "buyerAddress",
          "type": "address"
        },
        {
          "internalType": "address",
          "name": "relayerTarget",
          "type": "address"
        },
        {
          "internalType": "address",
          "name": "relayerAddress",
          "type": "address"
        }
      ],
      "stateMutability": "view",
      "type": "function"
    },
    {
      "inputs": [],
      "name": "owner",
      "outputs": [
        {
          "internalType": "address",
          "name": "",
          "type": "address"
        }
      ],
      "stateMutability": "view",
      "type": "function"
    },
    {
      "inputs": [
        {
          "internalType": "bytes32",
          "name": "lockID",
          "type": "bytes32"
        },
        {
          "internalType": "address",
          "name": "_relayerTarget",
          "type": "address"
        },
        {
          "internalType": "bytes32",
          "name": "pixTimestamp",
          "type": "bytes32"
        },
        {
          "internalType": "bytes32",
          "name": "r",
          "type": "bytes32"
        },
        {
          "internalType": "bytes32",
          "name": "s",
          "type": "bytes32"
        },
        {
          "internalType": "uint8",
          "name": "v",
          "type": "uint8"
        }
      ],
      "name": "release",
      "outputs": [],
      "stateMutability": "nonpayable",
      "type": "function"
    },
    {
      "inputs": [],
      "name": "reputation",
      "outputs": [
        {
          "internalType": "contract IReputation",
          "name": "",
          "type": "address"
        }
      ],
      "stateMutability": "view",
      "type": "function"
    },
    {
      "inputs": [
        {
          "internalType": "uint256",
          "name": "",
          "type": "uint256"
        }
      ],
      "name": "sellerAllowList",
      "outputs": [
        {
          "internalType": "bytes32",
          "name": "",
          "type": "bytes32"
        }
      ],
      "stateMutability": "view",
      "type": "function"
    },
    {
      "inputs": [
        {
          "internalType": "uint256",
          "name": "_blocks",
          "type": "uint256"
        }
      ],
      "name": "setDefaultLockBlocks",
      "outputs": [],
      "stateMutability": "nonpayable",
      "type": "function"
    },
    {
      "inputs": [
        {
          "internalType": "address",
          "name": "newOwner",
          "type": "address"
        }
      ],
      "name": "setOwner",
      "outputs": [],
      "stateMutability": "nonpayable",
      "type": "function"
    },
    {
      "inputs": [
        {
          "internalType": "contract IReputation",
          "name": "_reputation",
          "type": "address"
        }
      ],
      "name": "setReputation",
      "outputs": [],
      "stateMutability": "nonpayable",
      "type": "function"
    },
    {
      "inputs": [
        {
          "internalType": "address",
          "name": "addr",
          "type": "address"
        },
        {
          "internalType": "bytes32",
          "name": "merkleroot",
          "type": "bytes32"
        }
      ],
      "name": "setRoot",
      "outputs": [],
      "stateMutability": "nonpayable",
      "type": "function"
    },
    {
      "inputs": [
        {
          "internalType": "address[]",
          "name": "_validSigners",
          "type": "address[]"
        }
      ],
      "name": "setValidSigners",
      "outputs": [],
      "stateMutability": "nonpayable",
      "type": "function"
    },
    {
      "inputs": [
        {
          "internalType": "address[]",
          "name": "_tokens",
          "type": "address[]"
        },
        {
          "internalType": "bool[]",
          "name": "_states",
          "type": "bool[]"
        }
      ],
      "name": "tokenSettings",
      "outputs": [],
      "stateMutability": "nonpayable",
      "type": "function"
    },
    {
      "inputs": [
        {
          "internalType": "bytes32[]",
          "name": "lockIDs",
          "type": "bytes32[]"
        }
      ],
      "name": "unlockExpired",
      "outputs": [],
      "stateMutability": "nonpayable",
      "type": "function"
    },
    {
      "inputs": [
        {
          "internalType": "bytes32",
          "name": "",
          "type": "bytes32"
        }
      ],
      "name": "usedTransactions",
      "outputs": [
        {
          "internalType": "bool",
          "name": "",
          "type": "bool"
        }
      ],
      "stateMutability": "view",
      "type": "function"
    },
    {
      "inputs": [
        {
          "internalType": "uint256",
          "name": "",
          "type": "uint256"
        }
      ],
      "name": "userRecord",
      "outputs": [
        {
          "internalType": "uint256",
          "name": "",
          "type": "uint256"
        }
      ],
      "stateMutability": "view",
      "type": "function"
    },
    {
      "inputs": [
        {
          "internalType": "uint256",
          "name": "",
          "type": "uint256"
        }
      ],
      "name": "validBacenSigners",
      "outputs": [
        {
          "internalType": "bool",
          "name": "",
          "type": "bool"
        }
      ],
      "stateMutability": "view",
      "type": "function"
    },
    {
      "inputs": [
        {
          "internalType": "uint256",
          "name": "depositID",
          "type": "uint256"
        },
        {
          "internalType": "bytes32[]",
          "name": "expiredLocks",
          "type": "bytes32[]"
        }
      ],
      "name": "withdraw",
      "outputs": [],
      "stateMutability": "nonpayable",
      "type": "function"
    },
    {
      "inputs": [],
      "name": "withdrawBalance",
      "outputs": [],
      "stateMutability": "nonpayable",
      "type": "function"
    },
    {
      "stateMutability": "payable",
      "type": "receive"
    }
  ],
  "bytecode": "0x608060405260018055604051620028c0380380620028c08339810160408190526200002a916200049d565b600080546001600160a01b031916339081178255604051909182917f8292fce18fa69edf4db7b94ea2e58241df0ae57f97e0a6c9b29067028bf92d76908290a3506200007685620000a3565b620000818362000133565b6200008c84620001bd565b620000988282620002a1565b505050505062000620565b6000546001600160a01b03163314620000f25760405162461bcd60e51b815260206004820152600c60248201526b15539055551213d49256915160a21b60448201526064015b60405180910390fd5b806004557f70fa43ca70216ad905ade86b9e650a691b2ce5a01980d0a81bdd8324141b8511816040516200012891815260200190565b60405180910390a150565b6000546001600160a01b031633146200017e5760405162461bcd60e51b815260206004820152600c60248201526b15539055551213d49256915160a21b6044820152606401620000e9565b60028190556040516001600160a01b03821681527fe127cf589a3879da0156d4a24f43b44f65cfa3570de594806b0bfa2fcf06884f9060200162000128565b6000546001600160a01b03163314620002085760405162461bcd60e51b815260206004820152600c60248201526b15539055551213d49256915160a21b6044820152606401620000e9565b80516000905b808210156200026e57600062000246848481518110620002325762000232620005bb565b60200260200101516200038760201b60201c565b6000908152600660205260409020805460ff191660019081179091559290920191506200020e565b50507f14a422d2412784a5749d03da98921fe468c98577b767851389a9f58ea5a363d781604051620001289190620005d1565b6000546001600160a01b03163314620002ec5760405162461bcd60e51b815260206004820152600c60248201526b15539055551213d49256915160a21b6044820152606401620000e9565b815180620003025763df9578836000526004601cfd5b81518114620003195763ff633a386000526004601cfd5b60208301602083016020830282015b8083146200037f578251600052600b60205260406000208251815550815183517f5d6e86e5341d57a92c49934296c51542a25015c9b1782a1c2722a940131c3d9a600080a360208301925060208201915062000328565b505050505050565b600c1b611000600160ac1b031690565b634e487b7160e01b600052604160045260246000fd5b604051601f8201601f191681016001600160401b0381118282101715620003d857620003d862000397565b604052919050565b60006001600160401b03821115620003fc57620003fc62000397565b5060051b60200190565b6001600160a01b03811681146200041c57600080fd5b50565b600082601f8301126200043157600080fd5b815160206200044a6200044483620003e0565b620003ad565b82815260059290921b840181019181810190868411156200046a57600080fd5b8286015b8481101562000492578051620004848162000406565b83529183019183016200046e565b509695505050505050565b600080600080600060a08688031215620004b657600080fd5b8551602080880151919650906001600160401b0380821115620004d857600080fd5b620004e68a838b016200041f565b965060408901519150620004fa8262000406565b6060890151919550808211156200051057600080fd5b6200051e8a838b016200041f565b945060808901519150808211156200053557600080fd5b508701601f810189136200054857600080fd5b8051620005596200044482620003e0565b81815260059190911b8201830190838101908b8311156200057957600080fd5b928401925b82841015620005a95783518015158114620005995760008081fd5b825292840192908401906200057e565b80955050505050509295509295909350565b634e487b7160e01b600052603260045260246000fd5b6020808252825182820181905260009190848201906040850190845b81811015620006145783516001600160a01b031683529284019291840191600101620005ed565b50909695505050505050565b61229080620006306000396000f3fe6080604052600436106101a55760003560e01c806372fada5c116100e15780638e2749d61161008a57806398a268711161006457806398a268711461056b578063c52164c61461059b578063d6e8b973146105bb578063f7d0e04b146105db57600080fd5b80638e2749d6146105045780638e2a3d36146105245780639872dbfe1461055557600080fd5b80637f94f65d116100bb5780637f94f65d1461048c5780638652b37e146104ac5780638da5cb5b146104cc57600080fd5b806372fada5c1461041f578063758d77d41461043f57806377cd38a41461045f57600080fd5b8063363179721161014e578063574983c811610128578063574983c81461039e5780635fd8c710146103be57806369cc6af4146103d35780636a1460241461040357600080fd5b80633631797214610313578063461f3120146103335780634b2ae9801461037357600080fd5b806316d722401161017f57806316d722401461023357806329cc7d10146102dc5780632dfdf0b5146102fc57600080fd5b806304937320146101b15780630d2a2d44146101f157806313af40351461021357600080fd5b366101ac57005b600080fd5b3480156101bd57600080fd5b506101de6101cc366004611b4b565b60056020526000908152604090205481565b6040519081526020015b60405180910390f35b3480156101fd57600080fd5b5061021161020c366004611c58565b6105fb565b005b34801561021f57600080fd5b5061021161022e366004611c95565b6106ec565b34801561023f57600080fd5b5061029861024e366004611b4b565b600860205260009081526040902080546001820154600283015460038401546004850154600586015460069096015494959394929391926001600160a01b03918216928216911687565b6040805197885260208801969096529486019390935260608501919091526001600160a01b03908116608085015290811660a08401521660c082015260e0016101e8565b3480156102e857600080fd5b506101de6102f7366004611cb2565b61078d565b34801561030857600080fd5b506003546101de9081565b34801561031f57600080fd5b5061021161032e366004611d8f565b610978565b34801561033f57600080fd5b5061036361034e366004611b4b565b60096020526000908152604090205460ff1681565b60405190151581526020016101e8565b34801561037f57600080fd5b506101de61038e366004611c95565b600c1b611000600160ac1b031690565b3480156103aa57600080fd5b506102116103b9366004611b4b565b610a38565b3480156103ca57600080fd5b50610211610ab6565b3480156103df57600080fd5b506103636103ee366004611c95565b600b6020526000908152604090205460ff1681565b34801561040f57600080fd5b506101de670de0b6b3a764000081565b34801561042b57600080fd5b5061021161043a366004611b4b565b610b40565b34801561044b57600080fd5b5061021161045a366004611ddb565b610bc8565b34801561046b57600080fd5b506101de61047a366004611b4b565b600a6020526000908152604090205481565b34801561049857600080fd5b506102116104a7366004611e3f565b610fbd565b3480156104b857600080fd5b506101de6104c7366004611e6b565b611050565b3480156104d857600080fd5b506000546104ec906001600160a01b031681565b6040516001600160a01b0390911681526020016101e8565b34801561051057600080fd5b5061021161051f366004611f1f565b611230565b34801561053057600080fd5b5061054461053f366004611b4b565b611398565b6040516101e8959493929190611f61565b34801561056157600080fd5b506101de60045481565b34801561057757600080fd5b50610363610586366004611b4b565b60066020526000908152604090205460ff1681565b3480156105a757600080fd5b506002546104ec906001600160a01b031681565b3480156105c757600080fd5b506102116105d6366004611fee565b611462565b3480156105e757600080fd5b506102116105f6366004611c95565b61153a565b6000546001600160a01b031633146106495760405162461bcd60e51b815260206004820152600c60248201526b15539055551213d49256915160a21b60448201526064015b60405180910390fd5b80516000905b808210156106b057600061068984848151811061066e5761066e6120b8565b6020026020010151611000600160ac1b03600c9190911b1690565b6000908152600660205260409020805460ff1916600190811790915592909201915061064f565b50507f14a422d2412784a5749d03da98921fe468c98577b767851389a9f58ea5a363d7816040516106e191906120ce565b60405180910390a150565b6000546001600160a01b031633146107355760405162461bcd60e51b815260206004820152600c60248201526b15539055551213d49256915160a21b6044820152606401610640565b6000805473ffffffffffffffffffffffffffffffffffffffff19166001600160a01b0383169081178255604051909133917f8292fce18fa69edf4db7b94ea2e58241df0ae57f97e0a6c9b29067028bf92d769190a350565b6001600160a01b0385166000908152600b6020526040812054869060ff166107c857604051630abc194760e11b815260040160405180910390fd5b6107d06115c1565b915060006040518060a0016040528088815260200187878080601f0160208091040260200160405190810160405280939291908181526020018383808284376000920191909152505050908252503360208201526001600160a01b038a166040820152600160609091015290506108456115d1565b8315610855576108553385610fbd565b6000838152600760209081526040909120825181558183015180518493610883926001850192910190611ab2565b5060408201516002820180546001600160a01b0392831673ffffffffffffffffffffffffffffffffffffffff199091161790556060830151600392830180546080909501511515600160a01b027fffffffffffffffffffffff00000000000000000000000000000000000000000090951691909216179290921790915561090d9080546001019055565b6109198233308a6115fc565b61092260018055565b604080518481526001600160a01b038a16602082015290810188905233907f25ac57b911b0f66b64c294827f539545fbc3ddd002cafab117776274f3241e4c9060600160405180910390a2505095945050505050565b6109806115d1565b61098983611693565b6109938282611230565b60008381526007602052604090206003810154600160a01b900460ff161515600114156109c3576109c384610b40565b600381015481546000835560028301546001600160a01b03928316926109ec91849116836116d0565b604080518781526020810183905233917f7719804546c0185709e60c90d164447ff251a5ba29af0216faa921350f6bebf7910160405180910390a2505050610a3360018055565b505050565b6000546001600160a01b03163314610a815760405162461bcd60e51b815260206004820152600c60248201526b15539055551213d49256915160a21b6044820152606401610640565b806004557f70fa43ca70216ad905ade86b9e650a691b2ce5a01980d0a81bdd8324141b8511816040516106e191815260200190565b6000546001600160a01b03163314610aff5760405162461bcd60e51b815260206004820152600c60248201526b15539055551213d49256915160a21b6044820152606401610640565b47610b0a338261175c565b60408051338152602081018390527feaff4b37086828766ad3268786972c0cd24259d4c87a80f9d3963a3c3d999b0d91016106e1565b610b4981611693565b6000818152600760209081526040918290206003810180547fffffffffffffffffffffff00ffffffffffffffffffffffffffffffffffffffff1690556002015491518381526001600160a01b03909216917fb4d98b272597e828d9b172c0d44390d5b267040e918088eac8a0a0fadcb81c70910160405180910390a250565b610bd06115d1565b60008681526008602052604090206002810154610c00576040516331da482760e11b815260040160405180910390fd5b4381600301541015610c25576040516307b7d7dd60e51b815260040160405180910390fd5b8054600090815260076020908152604080832060028501549151909392610c5592600186019290918b9101612156565b604051602081830303815290604052805190602001209050600081604051602001610cac91907f19457468657265756d205369676e6564204d6573736167653a0a3332000000008152601c810191909152603c0190565b60408051601f1981840301815291815281516020928301206000858152600990935291205490915060ff16151560011415610cfa57604051637a48537560e11b815260040160405180910390fd5b6040805160008082526020820180845284905260ff8816928201929092526060810189905260808101889052610d6e9060019060a0016020604051602081039080840390855afa158015610d52573d6000803e3d6000fd5b5050604051601f190151600c1b611000600160ac1b0316919050565b60008181526006602052604090205490915060ff16610da057604051632057875960e21b815260040160405180910390fd5b6003840154600286015460018701546001600160a01b0390921691600090610dc89083612213565b600060028a0181905560038a01819055878152600960205260409020805460ff191660011790556006890154909150336001600160a01b0390911614610e79576001880154611000600160ac1b0333600c1b1660009081526005602052604081208054909190610e3990849061222a565b90915550506006880154600c1b611000600160ac1b031660009081526005602052604081208054849290610e6e90849061222a565b90915550610ebb9050565b818860010154610e89919061222a565b611000600160ac1b0333600c1b1660009081526005602052604081208054909190610eb590849061222a565b90915550505b6004880154610ed59084906001600160a01b0316836116d0565b600188015415610f415760058801546001600160a01b038e8116911614610f325760058801546001808a0154610f1a9286926001600160a01b0390911691901c6116d0565b610f2d838e60018b60010154901c6116d0565b610f41565b610f41838e8a600101546116d0565b8760040160009054906101000a90046001600160a01b03166001600160a01b03167f3fd2eee5028b09fa70abe3da4f6023ea41bfde24cfcb9c167f17d6fbe79eece38f84604051610f9c929190918252602082015260400190565b60405180910390a25050505050505050610fb560018055565b505050505050565b6001600160a01b03821633141561103757611000600160ac1b03600c83901b166000908152600a602090815260409182902083905581516001600160a01b038516815290810183905281517f0b294da292f26e55fd442b5c0164fbb9013036ff00c5cfdde0efd01c1baaf632929181900390910190a15050565b6040516342e8fb9360e11b815260040160405180910390fd5b600061105a6115d1565b6110648383611230565b60008a81526007602052604090206003810154600160a01b900460ff1661109e57604051635972996f60e11b815260040160405180910390fd5b80548711156110c0576040516308aeed0f60e21b815260040160405180910390fd5b6110cb8b888c6117b7565b915060006040518060e001604052808d81526020018a8152602001898152602001600454436110fa919061222a565b81526001600160a01b03808e1660208301528c1660408201523360609091015290508515611163576002820154600c1b611000600160ac1b03166000908152600a602052604090205461115190889088903361183b565b61115c83828461186d565b505061121a565b68056bc75e2d631000008160400151116111825761115c83828461186d565b611000600160ac1b0333600c1b16600090815260056020526040812054906111ba6111b5670de0b6b3a764000084612242565b61196b565b90506111ce670de0b6b3a764000082612264565b836040015111806111ec575069d3c21bcecceda10000008360400151115b1561120a57604051630e0c7c2360e11b815260040160405180910390fd5b61121585848661186d565b505050505b61122360018055565b9998505050505050505050565b6000815b8082101561137c57600060086000868686818110611254576112546120b8565b905060200201358152602001908152602001600020905061127481611a27565b600281015481546000908152600760205260408120805490919061129990849061222a565b90915550506000600282018190556006820154600c1b611000600160ac1b031660008181526005602052604090205490915060011c68056bc75e2d6310000081116112fd57600082815260056020526040902068056bc75e2d63100000905561130f565b60008281526005602052604090208190555b60048301546001600160a01b03167f67e089478e21dd12c98e69331c4152f6c9b2038b91e0f28268ffa01558c0b4ff888888818110611350576113506120b8565b9050602002013560405161136691815260200190565b60405180910390a2846001019450505050611234565b808210156113925763dfb035c96000526004601cfd5b50505050565b600760205260009081526040902080546001820180549192916113ba9061211b565b80601f01602080910402602001604051908101604052809291908181526020018280546113e69061211b565b80156114335780601f1061140857610100808354040283529160200191611433565b820191906000526020600020905b81548152906001019060200180831161141657829003601f168201915b50505050600283015460039093015491926001600160a01b03908116929081169150600160a01b900460ff1685565b6000546001600160a01b031633146114ab5760405162461bcd60e51b815260206004820152600c60248201526b15539055551213d49256915160a21b6044820152606401610640565b8151806114c05763df9578836000526004601cfd5b815181146114d65763ff633a386000526004601cfd5b60208301602083016020830282015b808314610fb5578251600052600b60205260406000208251815550815183517f5d6e86e5341d57a92c49934296c51542a25015c9b1782a1c2722a940131c3d9a600080a36020830192506020820191506114e5565b6000546001600160a01b031633146115835760405162461bcd60e51b815260206004820152600c60248201526b15539055551213d49256915160a21b6044820152606401610640565b60028190556040516001600160a01b03821681527fe127cf589a3879da0156d4a24f43b44f65cfa3570de594806b0bfa2fcf06884f906020016106e1565b60006115cc60035490565b905090565b600154600214156115f55760405163558a1e0360e11b815260040160405180910390fd5b6002600155565b60006040516323b872dd60e01b6000528460045283602452826044526020600060646000808a5af13d15601f3d116001600051141617169150600060605280604052508061168c5760405162461bcd60e51b815260206004820152601460248201527f5452414e534645525f46524f4d5f4641494c45440000000000000000000000006044820152606401610640565b5050505050565b6000818152600760205260409020600201546001600160a01b031633146116cd576040516342e8fb9360e11b815260040160405180910390fd5b50565b600060405163a9059cbb60e01b6000528360045282602452602060006044600080895af13d15601f3d11600160005114161716915060006060528060405250806113925760405162461bcd60e51b815260206004820152600f60248201527f5452414e534645525f4641494c454400000000000000000000000000000000006044820152606401610640565b600080600080600085875af1905080610a335760405162461bcd60e51b815260206004820152601360248201527f4554485f5452414e534645525f4641494c4544000000000000000000000000006044820152606401610640565b6040805160208101859052908101839052606082811b6bffffffffffffffffffffffff191690820152600090607401604051602081830303815290604052805190602001209050436008600083815260200190815260200160002060030154106118345760405163d0404f8560e01b815260040160405180910390fd5b9392505050565b6118508484846001600160a01b038516611a6e565b61139257604051631dc23a5f60e11b815260040160405180910390fd5b600083815260086020908152604080832085518155918501516001830155840151600282018190556060850151600383015560808501516004830180546001600160a01b0392831673ffffffffffffffffffffffffffffffffffffffff199182161790915560a087015160058501805491841691831691909117905560c08701516006909401805494909216931692909217909155825490918391611913908490612213565b9091555050608082015182516040808501518151928352602083015285926001600160a01b0316917f2a28b2ae47b0bd4b104e7cd29b1dfa72846af8c4cfdc009da2ae29db68cb67ea910160405180910390a3505050565b600080634d2b179160e01b8360405160240161198991815260200190565b604051602081830303815290604052907bffffffffffffffffffffffffffffffffffffffffffffffffffffffff19166020820180517bffffffffffffffffffffffffffffffffffffffffffffffffffffffff83818316178352505050509050600080600060206000855160208701600254617530fa92503d9150600051905080945082611a1e5763e10bf1cc6000526004601cfd5b50505050919050565b4381600301541115611a4c5760405163d0404f8560e01b815260040160405180910390fd5b60028101546116cd576040516331da482760e11b815260040160405180910390fd5b60008315611aaa578360051b8501855b803580851160051b94855260209485185260406000209301818110611aa257611aa7565b611a7e565b50505b501492915050565b828054611abe9061211b565b90600052602060002090601f016020900481019282611ae05760008555611b26565b82601f10611af957805160ff1916838001178555611b26565b82800160010185558215611b26579182015b82811115611b26578251825591602001919060010190611b0b565b50611b32929150611b36565b5090565b5b80821115611b325760008155600101611b37565b600060208284031215611b5d57600080fd5b5035919050565b634e487b7160e01b600052604160045260246000fd5b604051601f8201601f1916810167ffffffffffffffff81118282101715611ba357611ba3611b64565b604052919050565b600067ffffffffffffffff821115611bc557611bc5611b64565b5060051b60200190565b6001600160a01b03811681146116cd57600080fd5b600082601f830112611bf557600080fd5b81356020611c0a611c0583611bab565b611b7a565b82815260059290921b84018101918181019086841115611c2957600080fd5b8286015b84811015611c4d578035611c4081611bcf565b8352918301918301611c2d565b509695505050505050565b600060208284031215611c6a57600080fd5b813567ffffffffffffffff811115611c8157600080fd5b611c8d84828501611be4565b949350505050565b600060208284031215611ca757600080fd5b813561183481611bcf565b600080600080600060808688031215611cca57600080fd5b8535611cd581611bcf565b945060208601359350604086013567ffffffffffffffff80821115611cf957600080fd5b818801915088601f830112611d0d57600080fd5b813581811115611d1c57600080fd5b896020828501011115611d2e57600080fd5b96999598505060200195606001359392505050565b60008083601f840112611d5557600080fd5b50813567ffffffffffffffff811115611d6d57600080fd5b6020830191508360208260051b8501011115611d8857600080fd5b9250929050565b600080600060408486031215611da457600080fd5b83359250602084013567ffffffffffffffff811115611dc257600080fd5b611dce86828701611d43565b9497909650939450505050565b60008060008060008060c08789031215611df457600080fd5b863595506020870135611e0681611bcf565b945060408701359350606087013592506080870135915060a087013560ff81168114611e3157600080fd5b809150509295509295509295565b60008060408385031215611e5257600080fd5b8235611e5d81611bcf565b946020939093013593505050565b600080600080600080600080600060e08a8c031215611e8957600080fd5b8935985060208a0135611e9b81611bcf565b975060408a0135611eab81611bcf565b965060608a0135955060808a0135945060a08a013567ffffffffffffffff80821115611ed657600080fd5b611ee28d838e01611d43565b909650945060c08c0135915080821115611efb57600080fd5b50611f088c828d01611d43565b915080935050809150509295985092959850929598565b60008060208385031215611f3257600080fd5b823567ffffffffffffffff811115611f4957600080fd5b611f5585828601611d43565b90969095509350505050565b8581526000602060a08184015286518060a085015260005b81811015611f955788810183015185820160c001528201611f79565b81811115611fa757600060c083870101525b50601f01601f1916830160c0019150611fcd905060408301866001600160a01b03169052565b6001600160a01b038416606083015282151560808301529695505050505050565b6000806040838503121561200157600080fd5b823567ffffffffffffffff8082111561201957600080fd5b61202586838701611be4565b935060209150818501358181111561203c57600080fd5b85019050601f8101861361204f57600080fd5b803561205d611c0582611bab565b81815260059190911b8201830190838101908883111561207c57600080fd5b928401925b828410156120a9578335801515811461209a5760008081fd5b82529284019290840190612081565b80955050505050509250929050565b634e487b7160e01b600052603260045260246000fd5b6020808252825182820181905260009190848201906040850190845b8181101561210f5783516001600160a01b0316835292840192918401916001016120ea565b50909695505050505050565b600181811c9082168061212f57607f821691505b6020821081141561215057634e487b7160e01b600052602260045260246000fd5b50919050565b600080855481600182811c91508083168061217257607f831692505b602080841082141561219257634e487b7160e01b86526022600452602486fd5b8180156121a657600181146121b7576121e4565b60ff198616895284890196506121e4565b60008c81526020902060005b868110156121dc5781548b8201529085019083016121c3565b505084890196505b5098855250505050938401929092525050604001919050565b634e487b7160e01b600052601160045260246000fd5b600082821015612225576122256121fd565b500390565b6000821982111561223d5761223d6121fd565b500190565b60008261225f57634e487b7160e01b600052601260045260246000fd5b500490565b600081600019048311821515161561227e5761227e6121fd565b50029056fea164736f6c6343000809000a",
  "linkReferences": {},
  "deployedLinkReferences": {}
}