{
  "_format": "hh-sol-artifact-1",
  "contractName": "P2PIX",
  "sourceName": "contracts/p2pix.sol",
  "abi": [
    {
      "inputs": [
        {
          "internalType": "uint256",
          "name": "defaultBlocks",
          "type": "uint256"
        },
        {
          "internalType": "address[]",
          "name": "validSigners",
          "type": "address[]"
        },
        {
          "internalType": "contract IReputation",
          "name": "_reputation",
          "type": "address"
        },
        {
          "internalType": "address[]",
          "name": "tokens",
          "type": "address[]"
        },
        {
          "internalType": "bool[]",
          "name": "tokenStates",
          "type": "bool[]"
        }
      ],
      "stateMutability": "payable",
      "type": "constructor"
    },
    {
      "inputs": [],
      "name": "AddressDenied",
      "type": "error"
    },
    {
      "inputs": [],
      "name": "AlreadyReleased",
      "type": "error"
    },
    {
      "inputs": [],
      "name": "AmountNotAllowed",
      "type": "error"
    },
    {
      "inputs": [],
      "name": "DecOverflow",
      "type": "error"
    },
    {
      "inputs": [],
      "name": "DepositAlreadyExists",
      "type": "error"
    },
    {
      "inputs": [],
      "name": "EmptyPixTarget",
      "type": "error"
    },
    {
      "inputs": [],
      "name": "InvalidDeposit",
      "type": "error"
    },
    {
      "inputs": [],
      "name": "InvalidSigner",
      "type": "error"
    },
    {
      "inputs": [],
      "name": "LengthMismatch",
      "type": "error"
    },
    {
      "inputs": [],
      "name": "LockExpired",
      "type": "error"
    },
    {
      "inputs": [],
      "name": "LoopOverflow",
      "type": "error"
    },
    {
      "inputs": [],
      "name": "MaxBalExceeded",
      "type": "error"
    },
    {
      "inputs": [],
      "name": "NoTokens",
      "type": "error"
    },
    {
      "inputs": [],
      "name": "NotEnoughTokens",
      "type": "error"
    },
    {
      "inputs": [],
      "name": "NotExpired",
      "type": "error"
    },
    {
      "inputs": [],
      "name": "NotInitialized",
      "type": "error"
    },
    {
      "inputs": [],
      "name": "OnlySeller",
      "type": "error"
    },
    {
      "inputs": [],
      "name": "Reentrancy",
      "type": "error"
    },
    {
      "inputs": [],
      "name": "StaticCallFailed",
      "type": "error"
    },
    {
      "inputs": [],
      "name": "TokenDenied",
      "type": "error"
    },
    {
      "inputs": [],
      "name": "TxAlreadyUsed",
      "type": "error"
    },
    {
      "anonymous": false,
      "inputs": [
        {
          "indexed": true,
          "internalType": "address",
          "name": "token",
          "type": "address"
        },
        {
          "indexed": true,
          "internalType": "bool",
          "name": "state",
          "type": "bool"
        }
      ],
      "name": "AllowedERC20Updated",
      "type": "event"
    },
    {
      "anonymous": false,
      "inputs": [
        {
          "indexed": true,
          "internalType": "address",
          "name": "seller",
          "type": "address"
        },
        {
          "indexed": false,
          "internalType": "address",
          "name": "token",
          "type": "address"
        },
        {
          "indexed": false,
          "internalType": "uint256",
          "name": "amount",
          "type": "uint256"
        }
      ],
      "name": "DepositAdded",
      "type": "event"
    },
    {
      "anonymous": false,
      "inputs": [
        {
          "indexed": true,
          "internalType": "address",
          "name": "seller",
          "type": "address"
        },
        {
          "indexed": false,
          "internalType": "address",
          "name": "token",
          "type": "address"
        },
        {
          "indexed": false,
          "internalType": "uint256",
          "name": "amount",
          "type": "uint256"
        }
      ],
      "name": "DepositWithdrawn",
      "type": "event"
    },
    {
      "anonymous": false,
      "inputs": [
        {
          "indexed": false,
          "internalType": "address",
          "name": "owner",
          "type": "address"
        },
        {
          "indexed": false,
          "internalType": "uint256",
          "name": "amount",
          "type": "uint256"
        }
      ],
      "name": "FundsWithdrawn",
      "type": "event"
    },
    {
      "anonymous": false,
      "inputs": [
        {
          "indexed": true,
          "internalType": "address",
          "name": "buyer",
          "type": "address"
        },
        {
          "indexed": true,
          "internalType": "uint256",
          "name": "lockID",
          "type": "uint256"
        },
        {
          "indexed": false,
          "internalType": "uint256",
          "name": "seller",
          "type": "uint256"
        },
        {
          "indexed": false,
          "internalType": "uint256",
          "name": "amount",
          "type": "uint256"
        }
      ],
      "name": "LockAdded",
      "type": "event"
    },
    {
      "anonymous": false,
      "inputs": [
        {
          "indexed": false,
          "internalType": "uint256",
          "name": "blocks",
          "type": "uint256"
        }
      ],
      "name": "LockBlocksUpdated",
      "type": "event"
    },
    {
      "anonymous": false,
      "inputs": [
        {
          "indexed": true,
          "internalType": "address",
          "name": "buyer",
          "type": "address"
        },
        {
          "indexed": false,
          "internalType": "uint256",
          "name": "lockId",
          "type": "uint256"
        },
        {
          "indexed": false,
          "internalType": "uint256",
          "name": "amount",
          "type": "uint256"
        }
      ],
      "name": "LockReleased",
      "type": "event"
    },
    {
      "anonymous": false,
      "inputs": [
        {
          "indexed": true,
          "internalType": "address",
          "name": "buyer",
          "type": "address"
        },
        {
          "indexed": false,
          "internalType": "uint256",
          "name": "lockId",
          "type": "uint256"
        }
      ],
      "name": "LockReturned",
      "type": "event"
    },
    {
      "anonymous": false,
      "inputs": [
        {
          "indexed": true,
          "internalType": "address",
          "name": "user",
          "type": "address"
        },
        {
          "indexed": true,
          "internalType": "address",
          "name": "newOwner",
          "type": "address"
        }
      ],
      "name": "OwnerUpdated",
      "type": "event"
    },
    {
      "anonymous": false,
      "inputs": [
        {
          "indexed": false,
          "internalType": "address",
          "name": "reputation",
          "type": "address"
        }
      ],
      "name": "ReputationUpdated",
      "type": "event"
    },
    {
      "anonymous": false,
      "inputs": [
        {
          "indexed": false,
          "internalType": "address",
          "name": "seller",
          "type": "address"
        },
        {
          "indexed": false,
          "internalType": "bytes32",
          "name": "merkleRoot",
          "type": "bytes32"
        }
      ],
      "name": "RootUpdated",
      "type": "event"
    },
    {
      "anonymous": false,
      "inputs": [
        {
          "indexed": true,
          "internalType": "address",
          "name": "seller",
          "type": "address"
        },
        {
          "indexed": false,
          "internalType": "address",
          "name": "token",
          "type": "address"
        },
        {
          "indexed": false,
          "internalType": "bool",
          "name": "state",
          "type": "bool"
        }
      ],
      "name": "ValidSet",
      "type": "event"
    },
    {
      "anonymous": false,
      "inputs": [
        {
          "indexed": false,
          "internalType": "address[]",
          "name": "signers",
          "type": "address[]"
        }
      ],
      "name": "ValidSignersUpdated",
      "type": "event"
    },
    {
      "inputs": [],
      "name": "WAD",
      "outputs": [
        {
          "internalType": "uint256",
          "name": "",
          "type": "uint256"
        }
      ],
      "stateMutability": "view",
      "type": "function"
    },
    {
      "inputs": [
        {
          "internalType": "address",
          "name": "_addr",
          "type": "address"
        }
      ],
      "name": "_castAddrToKey",
      "outputs": [
        {
          "internalType": "uint256",
          "name": "_key",
          "type": "uint256"
        }
      ],
      "stateMutability": "pure",
      "type": "function"
    },
    {
      "inputs": [
        {
          "internalType": "uint256",
          "name": "_key",
          "type": "uint256"
        }
      ],
      "name": "_castKeyToAddr",
      "outputs": [
        {
          "internalType": "address",
          "name": "_addr",
          "type": "address"
        }
      ],
      "stateMutability": "pure",
      "type": "function"
    },
    {
      "inputs": [
        {
          "internalType": "contract ERC20",
          "name": "",
          "type": "address"
        }
      ],
      "name": "allowedERC20s",
      "outputs": [
        {
          "internalType": "bool",
          "name": "",
          "type": "bool"
        }
      ],
      "stateMutability": "view",
      "type": "function"
    },
    {
      "inputs": [],
      "name": "defaultLockBlocks",
      "outputs": [
        {
          "internalType": "uint256",
          "name": "",
          "type": "uint256"
        }
      ],
      "stateMutability": "view",
      "type": "function"
    },
    {
      "inputs": [
        {
          "internalType": "address",
          "name": "_token",
          "type": "address"
        },
        {
          "internalType": "uint96",
          "name": "_amount",
          "type": "uint96"
        },
        {
          "internalType": "uint160",
          "name": "_pixTarget",
          "type": "uint160"
        },
        {
          "internalType": "bool",
          "name": "_valid",
          "type": "bool"
        },
        {
          "internalType": "bytes32",
          "name": "allowlistRoot",
          "type": "bytes32"
        }
      ],
      "name": "deposit",
      "outputs": [],
      "stateMutability": "nonpayable",
      "type": "function"
    },
    {
      "inputs": [
        {
          "internalType": "address",
          "name": "seller",
          "type": "address"
        },
        {
          "internalType": "contract ERC20",
          "name": "token",
          "type": "address"
        }
      ],
      "name": "getBalance",
      "outputs": [
        {
          "internalType": "uint256",
          "name": "bal",
          "type": "uint256"
        }
      ],
      "stateMutability": "view",
      "type": "function"
    },
    {
      "inputs": [
        {
          "internalType": "address[]",
          "name": "sellers",
          "type": "address[]"
        },
        {
          "internalType": "contract ERC20",
          "name": "token",
          "type": "address"
        }
      ],
      "name": "getBalances",
      "outputs": [
        {
          "internalType": "uint256[]",
          "name": "",
          "type": "uint256[]"
        }
      ],
      "stateMutability": "view",
      "type": "function"
    },
    {
      "inputs": [
        {
          "internalType": "uint256[]",
          "name": "ids",
          "type": "uint256[]"
        }
      ],
      "name": "getLocksStatus",
      "outputs": [
        {
          "internalType": "uint256[]",
          "name": "",
          "type": "uint256[]"
        },
        {
          "internalType": "bool[]",
          "name": "",
          "type": "bool[]"
        }
      ],
      "stateMutability": "view",
      "type": "function"
    },
    {
      "inputs": [
        {
          "internalType": "address",
          "name": "seller",
          "type": "address"
        },
        {
          "internalType": "contract ERC20",
          "name": "token",
          "type": "address"
        }
      ],
      "name": "getPixTarget",
      "outputs": [
        {
          "internalType": "uint160",
          "name": "pixTarget",
          "type": "uint160"
        }
      ],
      "stateMutability": "view",
      "type": "function"
    },
    {
      "inputs": [
        {
          "internalType": "address",
          "name": "seller",
          "type": "address"
        },
        {
          "internalType": "contract ERC20",
          "name": "token",
          "type": "address"
        }
      ],
      "name": "getValid",
      "outputs": [
        {
          "internalType": "bool",
          "name": "valid",
          "type": "bool"
        }
      ],
      "stateMutability": "view",
      "type": "function"
    },
    {
      "inputs": [
        {
          "internalType": "address",
          "name": "_seller",
          "type": "address"
        },
        {
          "internalType": "address",
          "name": "_token",
          "type": "address"
        },
        {
          "internalType": "address",
          "name": "_buyerAddress",
          "type": "address"
        },
        {
          "internalType": "address",
          "name": "_relayerTarget",
          "type": "address"
        },
        {
          "internalType": "uint256",
          "name": "_relayerPremium",
          "type": "uint256"
        },
        {
          "internalType": "uint256",
          "name": "_amount",
          "type": "uint256"
        },
        {
          "internalType": "bytes32[]",
          "name": "merkleProof",
          "type": "bytes32[]"
        },
        {
          "internalType": "uint256[]",
          "name": "expiredLocks",
          "type": "uint256[]"
        }
      ],
      "name": "lock",
      "outputs": [
        {
          "internalType": "uint256",
          "name": "",
          "type": "uint256"
        }
      ],
      "stateMutability": "nonpayable",
      "type": "function"
    },
    {
      "inputs": [],
      "name": "lockCounter",
      "outputs": [
        {
          "internalType": "uint256",
          "name": "",
          "type": "uint256"
        }
      ],
      "stateMutability": "view",
      "type": "function"
    },
    {
      "inputs": [
        {
          "internalType": "uint256",
          "name": "",
          "type": "uint256"
        }
      ],
      "name": "mapLocks",
      "outputs": [
        {
          "internalType": "uint256",
          "name": "sellerKey",
          "type": "uint256"
        },
        {
          "internalType": "uint256",
          "name": "counter",
          "type": "uint256"
        },
        {
          "internalType": "uint256",
          "name": "relayerPremium",
          "type": "uint256"
        },
        {
          "internalType": "uint256",
          "name": "amount",
          "type": "uint256"
        },
        {
          "internalType": "uint256",
          "name": "expirationBlock",
          "type": "uint256"
        },
        {
          "internalType": "uint160",
          "name": "pixTarget",
          "type": "uint160"
        },
        {
          "internalType": "address",
          "name": "buyerAddress",
          "type": "address"
        },
        {
          "internalType": "address",
          "name": "relayerTarget",
          "type": "address"
        },
        {
          "internalType": "address",
          "name": "relayerAddress",
          "type": "address"
        },
        {
          "internalType": "address",
          "name": "token",
          "type": "address"
        }
      ],
      "stateMutability": "view",
      "type": "function"
    },
    {
      "inputs": [],
      "name": "owner",
      "outputs": [
        {
          "internalType": "address",
          "name": "",
          "type": "address"
        }
      ],
      "stateMutability": "view",
      "type": "function"
    },
    {
      "inputs": [
        {
          "internalType": "uint256",
          "name": "lockID",
          "type": "uint256"
        },
        {
          "internalType": "address",
          "name": "_relayerTarget",
          "type": "address"
        },
        {
          "internalType": "bytes32",
          "name": "pixTimestamp",
          "type": "bytes32"
        },
        {
          "internalType": "bytes32",
          "name": "r",
          "type": "bytes32"
        },
        {
          "internalType": "bytes32",
          "name": "s",
          "type": "bytes32"
        },
        {
          "internalType": "uint8",
          "name": "v",
          "type": "uint8"
        }
      ],
      "name": "release",
      "outputs": [],
      "stateMutability": "nonpayable",
      "type": "function"
    },
    {
      "inputs": [],
      "name": "reputation",
      "outputs": [
        {
          "internalType": "contract IReputation",
          "name": "",
          "type": "address"
        }
      ],
      "stateMutability": "view",
      "type": "function"
    },
    {
      "inputs": [
        {
          "internalType": "uint256",
          "name": "",
          "type": "uint256"
        }
      ],
      "name": "sellerAllowList",
      "outputs": [
        {
          "internalType": "bytes32",
          "name": "",
          "type": "bytes32"
        }
      ],
      "stateMutability": "view",
      "type": "function"
    },
    {
      "inputs": [
        {
          "internalType": "uint256",
          "name": "",
          "type": "uint256"
        },
        {
          "internalType": "contract ERC20",
          "name": "",
          "type": "address"
        }
      ],
      "name": "sellerBalance",
      "outputs": [
        {
          "internalType": "uint256",
          "name": "",
          "type": "uint256"
        }
      ],
      "stateMutability": "view",
      "type": "function"
    },
    {
      "inputs": [
        {
          "internalType": "uint256",
          "name": "_blocks",
          "type": "uint256"
        }
      ],
      "name": "setDefaultLockBlocks",
      "outputs": [],
      "stateMutability": "nonpayable",
      "type": "function"
    },
    {
      "inputs": [
        {
          "internalType": "address",
          "name": "newOwner",
          "type": "address"
        }
      ],
      "name": "setOwner",
      "outputs": [],
      "stateMutability": "nonpayable",
      "type": "function"
    },
    {
      "inputs": [
        {
          "internalType": "contract IReputation",
          "name": "_reputation",
          "type": "address"
        }
      ],
      "name": "setReputation",
      "outputs": [],
      "stateMutability": "nonpayable",
      "type": "function"
    },
    {
      "inputs": [
        {
          "internalType": "address",
          "name": "addr",
          "type": "address"
        },
        {
          "internalType": "bytes32",
          "name": "merkleroot",
          "type": "bytes32"
        }
      ],
      "name": "setRoot",
      "outputs": [],
      "stateMutability": "nonpayable",
      "type": "function"
    },
    {
      "inputs": [
        {
          "internalType": "address[]",
          "name": "_validSigners",
          "type": "address[]"
        }
      ],
      "name": "setValidSigners",
      "outputs": [],
      "stateMutability": "nonpayable",
      "type": "function"
    },
    {
      "inputs": [
        {
          "internalType": "contract ERC20",
          "name": "token",
          "type": "address"
        },
        {
          "internalType": "bool",
          "name": "state",
          "type": "bool"
        }
      ],
      "name": "setValidState",
      "outputs": [],
      "stateMutability": "nonpayable",
      "type": "function"
    },
    {
      "inputs": [
        {
          "internalType": "address[]",
          "name": "_tokens",
          "type": "address[]"
        },
        {
          "internalType": "bool[]",
          "name": "_states",
          "type": "bool[]"
        }
      ],
      "name": "tokenSettings",
      "outputs": [],
      "stateMutability": "nonpayable",
      "type": "function"
    },
    {
      "inputs": [
        {
          "internalType": "uint256[]",
          "name": "lockIDs",
          "type": "uint256[]"
        }
      ],
      "name": "unlockExpired",
      "outputs": [],
      "stateMutability": "nonpayable",
      "type": "function"
    },
    {
      "inputs": [
        {
          "internalType": "bytes32",
          "name": "",
          "type": "bytes32"
        }
      ],
      "name": "usedTransactions",
      "outputs": [
        {
          "internalType": "bool",
          "name": "",
          "type": "bool"
        }
      ],
      "stateMutability": "view",
      "type": "function"
    },
    {
      "inputs": [
        {
          "internalType": "uint256",
          "name": "",
          "type": "uint256"
        }
      ],
      "name": "userRecord",
      "outputs": [
        {
          "internalType": "uint256",
          "name": "",
          "type": "uint256"
        }
      ],
      "stateMutability": "view",
      "type": "function"
    },
    {
      "inputs": [
        {
          "internalType": "uint256",
          "name": "",
          "type": "uint256"
        }
      ],
      "name": "validBacenSigners",
      "outputs": [
        {
          "internalType": "bool",
          "name": "",
          "type": "bool"
        }
      ],
      "stateMutability": "view",
      "type": "function"
    },
    {
      "inputs": [
        {
          "internalType": "contract ERC20",
          "name": "token",
          "type": "address"
        },
        {
          "internalType": "uint256",
          "name": "amount",
          "type": "uint256"
        },
        {
          "internalType": "uint256[]",
          "name": "expiredLocks",
          "type": "uint256[]"
        }
      ],
      "name": "withdraw",
      "outputs": [],
      "stateMutability": "nonpayable",
      "type": "function"
    },
    {
      "inputs": [],
      "name": "withdrawBalance",
      "outputs": [],
      "stateMutability": "nonpayable",
      "type": "function"
    },
    {
      "stateMutability": "payable",
      "type": "receive"
    }
  ],
  "bytecode": "0x60806040526001805560405162003911380380620039118339810160408190526200002a9162000493565b600080546001600160a01b031916339081178255604051909182917f8292fce18fa69edf4db7b94ea2e58241df0ae57f97e0a6c9b29067028bf92d76908290a3506200007685620000a3565b620000818362000133565b6200008c84620001bd565b620000988282620002a1565b505050505062000616565b6000546001600160a01b03163314620000f25760405162461bcd60e51b815260206004820152600c60248201526b15539055551213d49256915160a21b60448201526064015b60405180910390fd5b806003557f70fa43ca70216ad905ade86b9e650a691b2ce5a01980d0a81bdd8324141b8511816040516200012891815260200190565b60405180910390a150565b6000546001600160a01b031633146200017e5760405162461bcd60e51b815260206004820152600c60248201526b15539055551213d49256915160a21b6044820152606401620000e9565b60028190556040516001600160a01b03821681527fe127cf589a3879da0156d4a24f43b44f65cfa3570de594806b0bfa2fcf06884f9060200162000128565b6000546001600160a01b03163314620002085760405162461bcd60e51b815260206004820152600c60248201526b15539055551213d49256915160a21b6044820152606401620000e9565b80516000905b808210156200026e57600062000246848481518110620002325762000232620005b1565b60200260200101516200038760201b60201c565b6000908152600860205260409020805460ff191660019081179091559290920191506200020e565b50507f14a422d2412784a5749d03da98921fe468c98577b767851389a9f58ea5a363d781604051620001289190620005c7565b6000546001600160a01b03163314620002ec5760405162461bcd60e51b815260206004820152600c60248201526b15539055551213d49256915160a21b6044820152606401620000e9565b815180620003025763df9578836000526004601cfd5b81518114620003195763ff633a386000526004601cfd5b60208301602083018260051b82015b8083146200037f578251600052600a60205260406000208251815550815183517f5d6e86e5341d57a92c49934296c51542a25015c9b1782a1c2722a940131c3d9a600080a360208301925060208201915062000328565b505050505050565b600c1b90565b634e487b7160e01b600052604160045260246000fd5b604051601f8201601f191681016001600160401b0381118282101715620003ce57620003ce6200038d565b604052919050565b60006001600160401b03821115620003f257620003f26200038d565b5060051b60200190565b6001600160a01b03811681146200041257600080fd5b50565b600082601f8301126200042757600080fd5b81516020620004406200043a83620003d6565b620003a3565b82815260059290921b840181019181810190868411156200046057600080fd5b8286015b84811015620004885780516200047a81620003fc565b835291830191830162000464565b509695505050505050565b600080600080600060a08688031215620004ac57600080fd5b8551602080880151919650906001600160401b0380821115620004ce57600080fd5b620004dc8a838b0162000415565b965060408901519150620004f082620003fc565b6060890151919550808211156200050657600080fd5b620005148a838b0162000415565b945060808901519150808211156200052b57600080fd5b508701601f810189136200053e57600080fd5b80516200054f6200043a82620003d6565b81815260059190911b8201830190838101908b8311156200056f57600080fd5b928401925b828410156200059f57835180151581146200058f5760008081fd5b8252928401929084019062000574565b80955050505050509295509295909350565b634e487b7160e01b600052603260045260246000fd5b6020808252825182820181905260009190848201906040850190845b818110156200060a5783516001600160a01b031683529284019291840191600101620005e3565b50909695505050505050565b6132eb80620006266000396000f3fe6080604052600436106101e75760003560e01c80637f94f65d11610102578063ad8f2eed11610095578063d4fac45d11610064578063d4fac45d1461074c578063d6e8b97314610797578063f7d0e04b146107b7578063fb8c5ef0146107d757600080fd5b8063ad8f2eed14610692578063b0983d39146106d2578063c52164c6146106f2578063d1c070281461071f57600080fd5b80638db564c2116100d15780638db564c2146105fe5780639872dbfe1461061457806398a268711461062a5780639eee8d4b1461065a57600080fd5b80637f94f65d1461052b57806380e1d3021461054b57806384ab1d281461058b5780638da5cb5b146105d157600080fd5b80634b2ae9801161017a5780636a146024116101495780636a146024146104a25780636d82d9e0146104be57806374ba03a0146104de57806377cd38a4146104fe57600080fd5b80634b2ae9801461041c578063574983c81461043d5780635fd8c7101461045d57806369cc6af41461047257600080fd5b8063328a7181116101b6578063328a718114610295578063367821f0146102b5578063461f3120146103ae57806349ef8448146103ee57600080fd5b806304937320146101f35780630a98b9bd146102335780630d2a2d441461025357806313af40351461027557600080fd5b366101ee57005b600080fd5b3480156101ff57600080fd5b5061022061020e3660046129b8565b60076020526000908152604090205481565b6040519081526020015b60405180910390f35b34801561023f57600080fd5b5061022061024e366004612a3f565b6107f7565b34801561025f57600080fd5b5061027361026e366004612c26565b610ba6565b005b34801561028157600080fd5b50610273610290366004612c63565b610ce0565b3480156102a157600080fd5b506102736102b0366004612c9c565b610dd1565b3480156102c157600080fd5b506103426102d03660046129b8565b6005602081905260009182526040909120805460018201546002830154600384015460048501549585015460068601546007870154600888015460099098015496989597949693959473ffffffffffffffffffffffffffffffffffffffff93841694928416939182169290821691168a565b604080519a8b5260208b0199909952978901969096526060880194909452608087019290925273ffffffffffffffffffffffffffffffffffffffff90811660a087015290811660c086015290811660e0850152908116610100840152166101208201526101400161022a565b3480156103ba57600080fd5b506103de6103c93660046129b8565b60096020526000908152604090205460ff1681565b604051901515815260200161022a565b3480156103fa57600080fd5b5061040e610409366004612d0f565b611012565b60405161022a929190612ddb565b34801561042857600080fd5b50610220610437366004612c63565b600c1b90565b34801561044957600080fd5b506102736104583660046129b8565b611429565b34801561046957600080fd5b506102736114df565b34801561047e57600080fd5b506103de61048d366004612c63565b600a6020526000908152604090205460ff1681565b3480156104ae57600080fd5b50610220670de0b6b3a764000081565b3480156104ca57600080fd5b506102736104d9366004612e34565b6115a1565b3480156104ea57600080fd5b506102736104f9366004612e69565b6116b8565b34801561050a57600080fd5b506102206105193660046129b8565b60066020526000908152604090205481565b34801561053757600080fd5b50610273610546366004612ecd565b611b97565b34801561055757600080fd5b506103de610566366004612ef9565b600c9190911b6000908152600b60209081526040808320938352929052205460ff1c90565b34801561059757600080fd5b506105ac6105a63660046129b8565b600c1c90565b60405173ffffffffffffffffffffffffffffffffffffffff909116815260200161022a565b3480156105dd57600080fd5b506000546105ac9073ffffffffffffffffffffffffffffffffffffffff1681565b34801561060a57600080fd5b5061022060045481565b34801561062057600080fd5b5061022060035481565b34801561063657600080fd5b506103de6106453660046129b8565b60086020526000908152604090205460ff1681565b34801561066657600080fd5b50610220610675366004612f32565b600b60209081526000928352604080842090915290825290205481565b34801561069e57600080fd5b506105ac6106ad366004612ef9565b600c9190911b6000908152600b602090815260408083209383529290522054605f1c90565b3480156106de57600080fd5b506102736106ed366004612f57565b611c5d565b3480156106fe57600080fd5b506002546105ac9073ffffffffffffffffffffffffffffffffffffffff1681565b34801561072b57600080fd5b5061073f61073a366004612f99565b611ea0565b60405161022a9190612fe0565b34801561075857600080fd5b50610220610767366004612ef9565b600c9190911b6000908152600b6020908152604080832093835292905220546b3fffffffffffffffffffffff1690565b3480156107a357600080fd5b506102736107b2366004612ff3565b611f7a565b3480156107c357600080fd5b506102736107d2366004612c63565b61208a565b3480156107e357600080fd5b506102736107f23660046130b5565b612156565b6000610801612252565b61080b8383611c5d565b600c8b901b6000908152600b602090815260408083208d84529091529020548a9060ff1c610865576040517fb2e532de00000000000000000000000000000000000000000000000000000000815260040160405180910390fd5b600c8c901b6000908152600b602090815260408083208484529091529020546b3fffffffffffffffffffffff16878110156108cc576040517f22bbb43c00000000000000000000000000000000000000000000000000000000815260040160405180910390fd5b60006108d88e600c1b90565b9050600060045460016108eb9190613140565b6000818152600560205260409020600401549091504311610938576040517fd0404f8500000000000000000000000000000000000000000000000000000000815260040160405180910390fd5b60006040518061014001604052808481526020018381526020018d81526020018c81526020016003544361096c9190613140565b8152602001605f600b600087815260200190815260200160002060008973ffffffffffffffffffffffffffffffffffffffff1673ffffffffffffffffffffffffffffffffffffffff16815260200190815260200160002054901c73ffffffffffffffffffffffffffffffffffffffff1681526020018f73ffffffffffffffffffffffffffffffffffffffff1681526020018e73ffffffffffffffffffffffffffffffffffffffff1681526020013373ffffffffffffffffffffffffffffffffffffffff1681526020018673ffffffffffffffffffffffffffffffffffffffff16815250905089899050600014610aa957600083815260066020526040902054610a79908b908b9033612296565b610a87848c848489886122ee565b60048054906000610a9783613158565b91905055508195505050505050610b8f565b68056bc75e2d63100000816060015111610acb57610a87848c848489886122ee565b33600c1b60009081526007602052604081205490610af9610af4670de0b6b3a764000084613191565b612449565b9050610b0d670de0b6b3a7640000826131cc565b83606001511180610b2b575069d3c21bcecceda10000008360600151115b15610b62576040517f1c18f84600000000000000000000000000000000000000000000000000000000815260040160405180910390fd5b610b70868e86868b8a6122ee565b60048054906000610b8083613158565b90915550939750505050505050505b610b9860018055565b9a9950505050505050505050565b60005473ffffffffffffffffffffffffffffffffffffffff163314610c2c576040517f08c379a000000000000000000000000000000000000000000000000000000000815260206004820152600c60248201527f554e415554484f52495a4544000000000000000000000000000000000000000060448201526064015b60405180910390fd5b80516000905b80821015610ca4576000610c5f848481518110610c5157610c51613209565b6020026020010151600c1b90565b600090815260086020526040902080547fffffffffffffffffffffffffffffffffffffffffffffffffffffffffffffff00166001908117909155929092019150610c32565b50507f14a422d2412784a5749d03da98921fe468c98577b767851389a9f58ea5a363d781604051610cd59190613238565b60405180910390a150565b60005473ffffffffffffffffffffffffffffffffffffffff163314610d61576040517f08c379a000000000000000000000000000000000000000000000000000000000815260206004820152600c60248201527f554e415554484f52495a454400000000000000000000000000000000000000006044820152606401610c23565b600080547fffffffffffffffffffffffff00000000000000000000000000000000000000001673ffffffffffffffffffffffffffffffffffffffff83169081178255604051909133917f8292fce18fa69edf4db7b94ea2e58241df0ae57f97e0a6c9b29067028bf92d769190a350565b8433600c1b73ffffffffffffffffffffffffffffffffffffffff8516610e23576040517f6a3bc53e00000000000000000000000000000000000000000000000000000000815260040160405180910390fd5b73ffffffffffffffffffffffffffffffffffffffff82166000908152600a602052604090205460ff16610e82576040517f1578328e00000000000000000000000000000000000000000000000000000000815260040160405180910390fd5b6000818152600b6020908152604080832073ffffffffffffffffffffffffffffffffffffffff861684529091529020546b3fffffffffffffffffffffff81166a52b7d2dcc80cd2e4000000610ee56bffffffffffffffffffffffff8a1683613140565b1115610f1d576040517ff3fb0eb900000000000000000000000000000000000000000000000000000000815260040160405180910390fd5b610f25612252565b8415610f3557610f353386611b97565b87878760ff81901b605f83901b610f4c8587613140565b6000898152600b6020908152604080832073ffffffffffffffffffffffffffffffffffffffff8e16845290915290209117919091179055610f9d8733306bffffffffffffffffffffffff8f16612505565b610fa660018055565b6040805173ffffffffffffffffffffffffffffffffffffffff8e1681526bffffffffffffffffffffffff8d16602082015233917f63d8d7d5e63e9840ec91a12a160d27b7cfab294f6ba070b7359692acfe6b03bf910160405180910390a2505050505050505050505050565b60608082516000141561103d5750506040805160008082526020820190815281830190925292909150565b825160009061104b856125cf565b9196509092509050816112235760008167ffffffffffffffff81111561107357611073612b10565b60405190808252806020026020018201604052801561109c578160200160208202803683370190505b50905060008267ffffffffffffffff8111156110ba576110ba612b10565b6040519080825280602002602001820160405280156110e3578160200160208202803683370190505b5090505b8284101561121857436005600089878151811061110657611106613209565b6020026020010151815260200190815260200160002060040154108061115b57506005600088868151811061113d5761113d613209565b60200260200101518152602001908152602001600020600301546000145b156111cc5786848151811061117257611172613209565b602002602001015181858151811061118c5761118c613209565b60200260200101818152505060008285815181106111ac576111ac613209565b911515602092830291909101909101526111c584613158565b93506110e7565b8684815181106111de576111de613209565b60200260200101518185815181106111f8576111f8613209565b60200260200101818152505060018285815181106111ac576111ac613209565b969095509350505050565b61122e600182613292565b82141561142257600080611243600184613292565b67ffffffffffffffff81111561125b5761125b612b10565b604051908082528060200260200182016040528015611284578160200160208202803683370190505b5090506000611294600185613292565b67ffffffffffffffff8111156112ac576112ac612b10565b6040519080825280602002602001820160405280156112d5578160200160208202803683370190505b5090505b84156114165743600560008a88815181106112f6576112f6613209565b6020026020010151815260200190815260200160002060040154108061134b57506005600089878151811061132d5761132d613209565b60200260200101518152602001908152602001600020600301546000145b156113ca5787858151811061136257611362613209565b602002602001015181848151811061137c5761137c613209565b602002602001018181525050600082848151811061139c5761139c613209565b91151560209283029190910190910152846113b6816132a9565b955050826113c390613158565b92506112d9565b8785815181106113dc576113dc613209565b60200260200101518184815181106113f6576113f6613209565b602002602001018181525050600182848151811061139c5761139c613209565b97909650945050505050565b5050915091565b60005473ffffffffffffffffffffffffffffffffffffffff1633146114aa576040517f08c379a000000000000000000000000000000000000000000000000000000000815260206004820152600c60248201527f554e415554484f52495a454400000000000000000000000000000000000000006044820152606401610c23565b806003557f70fa43ca70216ad905ade86b9e650a691b2ce5a01980d0a81bdd8324141b851181604051610cd591815260200190565b60005473ffffffffffffffffffffffffffffffffffffffff163314611560576040517f08c379a000000000000000000000000000000000000000000000000000000000815260206004820152600c60248201527f554e415554484f52495a454400000000000000000000000000000000000000006044820152606401610c23565b4761156b3382612762565b60408051338152602081018390527feaff4b37086828766ad3268786972c0cd24259d4c87a80f9d3963a3c3d999b0d9101610cd5565b33600c1b6000818152600b6020908152604080832073ffffffffffffffffffffffffffffffffffffffff871684529091529020548015611680576000828152600b6020908152604080832073ffffffffffffffffffffffffffffffffffffffff8816808552908352928190207f7fffffffffffffffffffffffffffffffffffffffffffffffffffffffffffffff9490941660ff87901b1793849055805192835285151591830191909152849133917fca585721b6b442dc9183932f7c84dc2880efb67c4da52cc06873e78971105d49910160405180910390a2506116b2565b6040517f87138d5c00000000000000000000000000000000000000000000000000000000815260040160405180910390fd5b50505050565b6116c0612252565b60008681526005602052604090206003810154611709576040517f63b4904e00000000000000000000000000000000000000000000000000000000815260040160405180910390fd5b4381600401541015611747576040517ff6fafba000000000000000000000000000000000000000000000000000000000815260040160405180910390fd5b6005810154600382015460405160609290921b7fffffffffffffffffffffffffffffffffffffffff0000000000000000000000001660208301526034820152605481018690526000906074016040516020818303038152906040528051906020012090506000816040516020016117ea91907f19457468657265756d205369676e6564204d6573736167653a0a3332000000008152601c810191909152603c0190565b604080517fffffffffffffffffffffffffffffffffffffffffffffffffffffffffffffffe081840301815291815281516020928301206000858152600990935291205490915060ff1615156001141561186f576040517ff490a6ea00000000000000000000000000000000000000000000000000000000815260040160405180910390fd5b6040805160008082526020820180845284905260ff87169282019290925260608101889052608081018790526118d79060019060a0016020604051602081039080840390855afa1580156118c7573d6000803e3d6000fd5b50505060206040510351600c1b90565b60008181526008602052604090205490915060ff16611922576040517f815e1d6400000000000000000000000000000000000000000000000000000000815260040160405180910390fd5b60098401546003850154600286015473ffffffffffffffffffffffffffffffffffffffff909216916000906119579083613292565b6000600389018190556004890181905587815260096020526040902080547fffffffffffffffffffffffffffffffffffffffffffffffffffffffffffffff0016600117905560088801549091503373ffffffffffffffffffffffffffffffffffffffff90911614611a4357600287015433600c1b600090815260076020526040812080549091906119e9908490613140565b909155505060088701548290600790600090611a1b9073ffffffffffffffffffffffffffffffffffffffff16600c1b90565b81526020019081526020016000206000828254611a389190613140565b90915550611a7b9050565b818760020154611a539190613140565b33600c1b60009081526007602052604081208054909190611a75908490613140565b90915550505b6006870154611aa290849073ffffffffffffffffffffffffffffffffffffffff16836127dc565b600287015415611b2857600787015473ffffffffffffffffffffffffffffffffffffffff8d8116911614611b195760078701546002880154611b0191859173ffffffffffffffffffffffffffffffffffffffff9091169060011c6127dc565b611b14838d60018a60020154901c6127dc565b611b28565b611b28838d89600201546127dc565b6006870154604080518f81526020810185905273ffffffffffffffffffffffffffffffffffffffff909216917f364537f14276f2a0ce9905588413f96454cbb8fb2e4f5308389307c1098bede8910160405180910390a250505050505050611b8f60018055565b505050505050565b73ffffffffffffffffffffffffffffffffffffffff8216331415611c2b578060066000611bc485600c1b90565b8152602080820192909252604090810160002092909255815173ffffffffffffffffffffffffffffffffffffffff851681529081018390527f0b294da292f26e55fd442b5c0164fbb9013036ff00c5cfdde0efd01c1baaf632910160405180910390a15050565b6040517f85d1f72600000000000000000000000000000000000000000000000000000000815260040160405180910390fd5b6000815b80821015611e8a57600060056000868686818110611c8157611c81613209565b9050602002013581526020019081526020016000209050611ca18161289b565b80546000908152600b60209081526040808320600985015473ffffffffffffffffffffffffffffffffffffffff16845290915290205460038201546b3fffffffffffffffffffffff909116906a52b7d2dcc80cd2e400000090611d049083613140565b1115611d3c576040517ff3fb0eb900000000000000000000000000000000000000000000000000000000815260040160405180910390fd5b600382015482546000908152600b60209081526040808320600987015473ffffffffffffffffffffffffffffffffffffffff16845290915281208054909190611d86908490613140565b90915550506000600383018190556008830154611db99073ffffffffffffffffffffffffffffffffffffffff16600c1b90565b60008181526007602052604090205490915060011c68056bc75e2d631000008111611dfd57600082815260076020526040902068056bc75e2d631000009055611e0f565b60008281526007602052604090208190555b600684015473ffffffffffffffffffffffffffffffffffffffff167f830501e61b8b075e170b22a430e39454bdb12ed3e9620e586430b6ac00079da5898989818110611e5d57611e5d613209565b90506020020135604051611e7391815260200190565b60405180910390a285600101955050505050611c61565b808210156116b25763dfb035c96000526004601cfd5b8151606090600090818167ffffffffffffffff811115611ec257611ec2612b10565b604051908082528060200260200182016040528015611eeb578160200160208202803683370190505b5090505b81831015611f71576000611f44878581518110611f0e57611f0e613209565b602090810291909101810151600c1b6000908152600b825260408082208a835290925220546b3fffffffffffffffffffffff1690565b905080828581518110611f5957611f59613209565b60200260200101818152505083600101935050611eef565b95945050505050565b60005473ffffffffffffffffffffffffffffffffffffffff163314611ffb576040517f08c379a000000000000000000000000000000000000000000000000000000000815260206004820152600c60248201527f554e415554484f52495a454400000000000000000000000000000000000000006044820152606401610c23565b8151806120105763df9578836000526004601cfd5b815181146120265763ff633a386000526004601cfd5b60208301602083018260051b82015b808314611b8f578251600052600a60205260406000208251815550815183517f5d6e86e5341d57a92c49934296c51542a25015c9b1782a1c2722a940131c3d9a600080a3602083019250602082019150612035565b60005473ffffffffffffffffffffffffffffffffffffffff16331461210b576040517f08c379a000000000000000000000000000000000000000000000000000000000815260206004820152600c60248201527f554e415554484f52495a454400000000000000000000000000000000000000006044820152606401610c23565b600281905560405173ffffffffffffffffffffffffffffffffffffffff821681527fe127cf589a3879da0156d4a24f43b44f65cfa3570de594806b0bfa2fcf06884f90602001610cd5565b61215e612252565b6121688282611c5d565b33600c1b6000908152600b6020908152604080832087845290915290205460ff1c15156001141561219e5761219e8460006115a1565b33600c1b6000818152600b6020908152604080832073ffffffffffffffffffffffffffffffffffffffff891684529091529020546121ec906b3fffffffffffffffffffffff16858784612917565b6121f78533866127dc565b6040805173ffffffffffffffffffffffffffffffffffffffff871681526020810186905233917f2cd6435b1b961c13f55202979edd0765a809f69a539d8a477436c94c1211e43e910160405180910390a2506116b260018055565b6001546002141561228f576040517fab143c0600000000000000000000000000000000000000000000000000000000815260040160405180910390fd5b6002600155565b6122b884848473ffffffffffffffffffffffffffffffffffffffff8516612974565b6116b2576040517f3b8474be00000000000000000000000000000000000000000000000000000000815260040160405180910390fd5b60008481526005602081815260409283902086518155908601516001820155918501516002830155606085015160038301556080850151600483015560a085015190820180547fffffffffffffffffffffffff000000000000000000000000000000000000000090811673ffffffffffffffffffffffffffffffffffffffff9384161790915560c0860151600684018054831691841691909117905560e08601516007840180548316918416919091179055610100860151600884018054831691841691909117905561012086015160099093018054909116929091169190911790556123dd86868484612917565b60c083015183516060850151604051879373ffffffffffffffffffffffffffffffffffffffff16927f8fb3989f70bd172a37d15b41b015e48ea09d59329638377304a4198cd0c4ea659261243992918252602082015260400190565b60405180910390a3505050505050565b600080634d2b179160e01b8360405160240161246791815260200190565b604051602081830303815290604052907bffffffffffffffffffffffffffffffffffffffffffffffffffffffff19166020820180517bffffffffffffffffffffffffffffffffffffffffffffffffffffffff83818316178352505050509050600080600060206000855160208701600254617530fa92503d91506000519050809450826124fc5763e10bf1cc6000526004601cfd5b50505050919050565b60006040517f23b872dd000000000000000000000000000000000000000000000000000000006000528460045283602452826044526020600060646000808a5af13d15601f3d11600160005114161716915060006060528060405250806125c8576040517f08c379a000000000000000000000000000000000000000000000000000000000815260206004820152601460248201527f5452414e534645525f46524f4d5f4641494c45440000000000000000000000006044820152606401610c23565b5050505050565b6060600080600080855190505b8082101561265457600560008784815181106125fa576125fa613209565b60200260200101518152602001908152602001600020600001546000141561264b5785828151811061262e5761262e613209565b6020026020010160008152508161264490613158565b91506125dc565b61264482613158565b855160008752602087015b60209081019082028801811115612675576126d0565b805160208203805182811161268c5750505061265f565b60208201527fffffffffffffffffffffffffffffffffffffffffffffffffffffffffffffffe00180518281116126c1576126c6565b61268c565b506020015261265f565b50808752600211612726576020860160408701602060018951010288015b815183511461270257602083019250815183525b602082019150808214156127155761271a565b6126ee565b50506020878203048752505b8594508551935060208601511560008114612748576001811461275157612758565b60009350612758565b6001850393505b5050509193909250565b600080600080600085875af19050806127d7576040517f08c379a000000000000000000000000000000000000000000000000000000000815260206004820152601360248201527f4554485f5452414e534645525f4641494c4544000000000000000000000000006044820152606401610c23565b505050565b60006040517fa9059cbb000000000000000000000000000000000000000000000000000000006000528360045282602452602060006044600080895af13d15601f3d11600160005114161716915060006060528060405250806116b2576040517f08c379a000000000000000000000000000000000000000000000000000000000815260206004820152600f60248201527f5452414e534645525f4641494c454400000000000000000000000000000000006044820152606401610c23565b43816004015411156128d9576040517fd0404f8500000000000000000000000000000000000000000000000000000000815260040160405180910390fd5b6003810154612914576040517f63b4904e00000000000000000000000000000000000000000000000000000000815260040160405180910390fd5b50565b8361292a5763ce3a3d376000526004601cfd5b6000818152600b6020908152604080832073ffffffffffffffffffffffffffffffffffffffff8616845290915281208054859290612969908490613292565b909155505050505050565b600083156129b0578360051b8501855b803580851160051b948552602094851852604060002093018181106129a8576129ad565b612984565b50505b501492915050565b6000602082840312156129ca57600080fd5b5035919050565b73ffffffffffffffffffffffffffffffffffffffff8116811461291457600080fd5b60008083601f840112612a0557600080fd5b50813567ffffffffffffffff811115612a1d57600080fd5b6020830191508360208260051b8501011115612a3857600080fd5b9250929050565b6000806000806000806000806000806101008b8d031215612a5f57600080fd5b8a35612a6a816129d1565b995060208b0135612a7a816129d1565b985060408b0135612a8a816129d1565b975060608b0135612a9a816129d1565b965060808b0135955060a08b0135945060c08b013567ffffffffffffffff80821115612ac557600080fd5b612ad18e838f016129f3565b909650945060e08d0135915080821115612aea57600080fd5b50612af78d828e016129f3565b915080935050809150509295989b9194979a5092959850565b7f4e487b7100000000000000000000000000000000000000000000000000000000600052604160045260246000fd5b604051601f82017fffffffffffffffffffffffffffffffffffffffffffffffffffffffffffffffe016810167ffffffffffffffff81118282101715612b8657612b86612b10565b604052919050565b600067ffffffffffffffff821115612ba857612ba8612b10565b5060051b60200190565b600082601f830112612bc357600080fd5b81356020612bd8612bd383612b8e565b612b3f565b82815260059290921b84018101918181019086841115612bf757600080fd5b8286015b84811015612c1b578035612c0e816129d1565b8352918301918301612bfb565b509695505050505050565b600060208284031215612c3857600080fd5b813567ffffffffffffffff811115612c4f57600080fd5b612c5b84828501612bb2565b949350505050565b600060208284031215612c7557600080fd5b8135612c80816129d1565b9392505050565b80358015158114612c9757600080fd5b919050565b600080600080600060a08688031215612cb457600080fd5b8535612cbf816129d1565b945060208601356bffffffffffffffffffffffff81168114612ce057600080fd5b93506040860135612cf0816129d1565b9250612cfe60608701612c87565b949793965091946080013592915050565b60006020808385031215612d2257600080fd5b823567ffffffffffffffff811115612d3957600080fd5b8301601f81018513612d4a57600080fd5b8035612d58612bd382612b8e565b81815260059190911b82018301908381019087831115612d7757600080fd5b928401925b82841015612d9557833582529284019290840190612d7c565b979650505050505050565b600081518084526020808501945080840160005b83811015612dd057815187529582019590820190600101612db4565b509495945050505050565b604081526000612dee6040830185612da0565b82810360208481019190915284518083528582019282019060005b81811015612e27578451151583529383019391830191600101612e09565b5090979650505050505050565b60008060408385031215612e4757600080fd5b8235612e52816129d1565b9150612e6060208401612c87565b90509250929050565b60008060008060008060c08789031215612e8257600080fd5b863595506020870135612e94816129d1565b945060408701359350606087013592506080870135915060a087013560ff81168114612ebf57600080fd5b809150509295509295509295565b60008060408385031215612ee057600080fd5b8235612eeb816129d1565b946020939093013593505050565b60008060408385031215612f0c57600080fd5b8235612f17816129d1565b91506020830135612f27816129d1565b809150509250929050565b60008060408385031215612f4557600080fd5b823591506020830135612f27816129d1565b60008060208385031215612f6a57600080fd5b823567ffffffffffffffff811115612f8157600080fd5b612f8d858286016129f3565b90969095509350505050565b60008060408385031215612fac57600080fd5b823567ffffffffffffffff811115612fc357600080fd5b612fcf85828601612bb2565b9250506020830135612f27816129d1565b602081526000612c806020830184612da0565b6000806040838503121561300657600080fd5b823567ffffffffffffffff8082111561301e57600080fd5b61302a86838701612bb2565b935060209150818501358181111561304157600080fd5b85019050601f8101861361305457600080fd5b8035613062612bd382612b8e565b81815260059190911b8201830190838101908883111561308157600080fd5b928401925b828410156130a65761309784612c87565b82529284019290840190613086565b80955050505050509250929050565b600080600080606085870312156130cb57600080fd5b84356130d6816129d1565b935060208501359250604085013567ffffffffffffffff8111156130f957600080fd5b613105878288016129f3565b95989497509550505050565b7f4e487b7100000000000000000000000000000000000000000000000000000000600052601160045260246000fd5b6000821982111561315357613153613111565b500190565b60007fffffffffffffffffffffffffffffffffffffffffffffffffffffffffffffffff82141561318a5761318a613111565b5060010190565b6000826131c7577f4e487b7100000000000000000000000000000000000000000000000000000000600052601260045260246000fd5b500490565b6000817fffffffffffffffffffffffffffffffffffffffffffffffffffffffffffffffff048311821515161561320457613204613111565b500290565b7f4e487b7100000000000000000000000000000000000000000000000000000000600052603260045260246000fd5b6020808252825182820181905260009190848201906040850190845b8181101561328657835173ffffffffffffffffffffffffffffffffffffffff1683529284019291840191600101613254565b50909695505050505050565b6000828210156132a4576132a4613111565b500390565b6000816132b8576132b8613111565b507fffffffffffffffffffffffffffffffffffffffffffffffffffffffffffffffff019056fea164736f6c6343000809000a",
  "linkReferences": {},
  "deployedLinkReferences": {}
}