{
  "_format": "hh-sol-artifact-1",
  "contractName": "P2PIX",
  "sourceName": "contracts/p2pix.sol",
  "abi": [
    {
      "inputs": [
        {
          "internalType": "uint256",
          "name": "defaultBlocks",
          "type": "uint256"
        },
        {
          "internalType": "address[]",
          "name": "validSigners",
          "type": "address[]"
        },
        {
          "internalType": "contract IReputation",
          "name": "_reputation",
          "type": "address"
        },
        {
          "internalType": "address[]",
          "name": "tokens",
          "type": "address[]"
        },
        {
          "internalType": "bool[]",
          "name": "tokenStates",
          "type": "bool[]"
        }
      ],
      "stateMutability": "payable",
      "type": "constructor"
    },
    {
      "inputs": [],
      "name": "AddressDenied",
      "type": "error"
    },
    {
      "inputs": [],
      "name": "AlreadyReleased",
      "type": "error"
    },
    {
      "inputs": [],
      "name": "AmountNotAllowed",
      "type": "error"
    },
    {
      "inputs": [],
      "name": "DecOverflow",
      "type": "error"
    },
    {
      "inputs": [],
      "name": "DepositAlreadyExists",
      "type": "error"
    },
    {
      "inputs": [],
      "name": "EmptyPixTarget",
      "type": "error"
    },
    {
      "inputs": [],
      "name": "InvalidDeposit",
      "type": "error"
    },
    {
      "inputs": [],
      "name": "InvalidSigner",
      "type": "error"
    },
    {
      "inputs": [],
      "name": "LengthMismatch",
      "type": "error"
    },
    {
      "inputs": [],
      "name": "LockExpired",
      "type": "error"
    },
    {
      "inputs": [],
      "name": "LoopOverflow",
      "type": "error"
    },
    {
      "inputs": [],
      "name": "MaxBalExceeded",
      "type": "error"
    },
    {
      "inputs": [],
      "name": "NoTokens",
      "type": "error"
    },
    {
      "inputs": [],
      "name": "NotEnoughTokens",
      "type": "error"
    },
    {
      "inputs": [],
      "name": "NotExpired",
      "type": "error"
    },
    {
      "inputs": [],
      "name": "NotInitialized",
      "type": "error"
    },
    {
      "inputs": [],
      "name": "OnlySeller",
      "type": "error"
    },
    {
      "inputs": [],
      "name": "Reentrancy",
      "type": "error"
    },
    {
      "inputs": [],
      "name": "StaticCallFailed",
      "type": "error"
    },
    {
      "inputs": [],
      "name": "TokenDenied",
      "type": "error"
    },
    {
      "inputs": [],
      "name": "TxAlreadyUsed",
      "type": "error"
    },
    {
      "anonymous": false,
      "inputs": [
        {
          "indexed": true,
          "internalType": "address",
          "name": "token",
          "type": "address"
        },
        {
          "indexed": true,
          "internalType": "bool",
          "name": "state",
          "type": "bool"
        }
      ],
      "name": "AllowedERC20Updated",
      "type": "event"
    },
    {
      "anonymous": false,
      "inputs": [
        {
          "indexed": true,
          "internalType": "address",
          "name": "seller",
          "type": "address"
        },
        {
          "indexed": false,
          "internalType": "address",
          "name": "token",
          "type": "address"
        },
        {
          "indexed": false,
          "internalType": "uint256",
          "name": "amount",
          "type": "uint256"
        }
      ],
      "name": "DepositAdded",
      "type": "event"
    },
    {
      "anonymous": false,
      "inputs": [
        {
          "indexed": true,
          "internalType": "address",
          "name": "seller",
          "type": "address"
        },
        {
          "indexed": false,
          "internalType": "address",
          "name": "token",
          "type": "address"
        },
        {
          "indexed": false,
          "internalType": "uint256",
          "name": "amount",
          "type": "uint256"
        }
      ],
      "name": "DepositWithdrawn",
      "type": "event"
    },
    {
      "anonymous": false,
      "inputs": [
        {
          "indexed": false,
          "internalType": "address",
          "name": "owner",
          "type": "address"
        },
        {
          "indexed": false,
          "internalType": "uint256",
          "name": "amount",
          "type": "uint256"
        }
      ],
      "name": "FundsWithdrawn",
      "type": "event"
    },
    {
      "anonymous": false,
      "inputs": [
        {
          "indexed": true,
          "internalType": "address",
          "name": "buyer",
          "type": "address"
        },
        {
          "indexed": true,
          "internalType": "uint256",
          "name": "lockID",
          "type": "uint256"
        },
        {
          "indexed": false,
          "internalType": "uint256",
          "name": "seller",
          "type": "uint256"
        },
        {
          "indexed": false,
          "internalType": "uint256",
          "name": "amount",
          "type": "uint256"
        }
      ],
      "name": "LockAdded",
      "type": "event"
    },
    {
      "anonymous": false,
      "inputs": [
        {
          "indexed": false,
          "internalType": "uint256",
          "name": "blocks",
          "type": "uint256"
        }
      ],
      "name": "LockBlocksUpdated",
      "type": "event"
    },
    {
      "anonymous": false,
      "inputs": [
        {
          "indexed": true,
          "internalType": "address",
          "name": "buyer",
          "type": "address"
        },
        {
          "indexed": false,
          "internalType": "uint256",
          "name": "lockId",
          "type": "uint256"
        },
        {
          "indexed": false,
          "internalType": "uint256",
          "name": "amount",
          "type": "uint256"
        }
      ],
      "name": "LockReleased",
      "type": "event"
    },
    {
      "anonymous": false,
      "inputs": [
        {
          "indexed": true,
          "internalType": "address",
          "name": "buyer",
          "type": "address"
        },
        {
          "indexed": false,
          "internalType": "uint256",
          "name": "lockId",
          "type": "uint256"
        }
      ],
      "name": "LockReturned",
      "type": "event"
    },
    {
      "anonymous": false,
      "inputs": [
        {
          "indexed": true,
          "internalType": "address",
          "name": "user",
          "type": "address"
        },
        {
          "indexed": true,
          "internalType": "address",
          "name": "newOwner",
          "type": "address"
        }
      ],
      "name": "OwnerUpdated",
      "type": "event"
    },
    {
      "anonymous": false,
      "inputs": [
        {
          "indexed": false,
          "internalType": "address",
          "name": "reputation",
          "type": "address"
        }
      ],
      "name": "ReputationUpdated",
      "type": "event"
    },
    {
      "anonymous": false,
      "inputs": [
        {
          "indexed": false,
          "internalType": "address",
          "name": "seller",
          "type": "address"
        },
        {
          "indexed": false,
          "internalType": "bytes32",
          "name": "merkleRoot",
          "type": "bytes32"
        }
      ],
      "name": "RootUpdated",
      "type": "event"
    },
    {
      "anonymous": false,
      "inputs": [
        {
          "indexed": true,
          "internalType": "address",
          "name": "seller",
          "type": "address"
        },
        {
          "indexed": false,
          "internalType": "address",
          "name": "token",
          "type": "address"
        },
        {
          "indexed": false,
          "internalType": "bool",
          "name": "state",
          "type": "bool"
        }
      ],
      "name": "ValidSet",
      "type": "event"
    },
    {
      "anonymous": false,
      "inputs": [
        {
          "indexed": false,
          "internalType": "address[]",
          "name": "signers",
          "type": "address[]"
        }
      ],
      "name": "ValidSignersUpdated",
      "type": "event"
    },
    {
      "inputs": [],
      "name": "WAD",
      "outputs": [
        {
          "internalType": "uint256",
          "name": "",
          "type": "uint256"
        }
      ],
      "stateMutability": "view",
      "type": "function"
    },
    {
      "inputs": [
        {
          "internalType": "address",
          "name": "_addr",
          "type": "address"
        }
      ],
      "name": "_castAddrToKey",
      "outputs": [
        {
          "internalType": "uint256",
          "name": "_key",
          "type": "uint256"
        }
      ],
      "stateMutability": "pure",
      "type": "function"
    },
    {
      "inputs": [
        {
          "internalType": "uint256",
          "name": "_key",
          "type": "uint256"
        }
      ],
      "name": "_castKeyToAddr",
      "outputs": [
        {
          "internalType": "address",
          "name": "_addr",
          "type": "address"
        }
      ],
      "stateMutability": "pure",
      "type": "function"
    },
    {
      "inputs": [
        {
          "internalType": "contract ERC20",
          "name": "",
          "type": "address"
        }
      ],
      "name": "allowedERC20s",
      "outputs": [
        {
          "internalType": "bool",
          "name": "",
          "type": "bool"
        }
      ],
      "stateMutability": "view",
      "type": "function"
    },
    {
      "inputs": [],
      "name": "defaultLockBlocks",
      "outputs": [
        {
          "internalType": "uint256",
          "name": "",
          "type": "uint256"
        }
      ],
      "stateMutability": "view",
      "type": "function"
    },
    {
      "inputs": [
        {
          "internalType": "address",
          "name": "_token",
          "type": "address"
        },
        {
          "internalType": "uint96",
          "name": "_amount",
          "type": "uint96"
        },
        {
          "internalType": "uint160",
          "name": "_pixTarget",
          "type": "uint160"
        },
        {
          "internalType": "bool",
          "name": "_valid",
          "type": "bool"
        },
        {
          "internalType": "bytes32",
          "name": "allowlistRoot",
          "type": "bytes32"
        }
      ],
      "name": "deposit",
      "outputs": [],
      "stateMutability": "nonpayable",
      "type": "function"
    },
    {
      "inputs": [
        {
          "internalType": "address",
          "name": "seller",
          "type": "address"
        },
        {
          "internalType": "contract ERC20",
          "name": "token",
          "type": "address"
        }
      ],
      "name": "getBalance",
      "outputs": [
        {
          "internalType": "uint256",
          "name": "bal",
          "type": "uint256"
        }
      ],
      "stateMutability": "view",
      "type": "function"
    },
    {
      "inputs": [
        {
          "internalType": "address[]",
          "name": "sellers",
          "type": "address[]"
        },
        {
          "internalType": "contract ERC20",
          "name": "token",
          "type": "address"
        }
      ],
      "name": "getBalances",
      "outputs": [
        {
          "internalType": "uint256[]",
          "name": "",
          "type": "uint256[]"
        }
      ],
      "stateMutability": "view",
      "type": "function"
    },
    {
      "inputs": [
        {
          "internalType": "address",
          "name": "seller",
          "type": "address"
        },
        {
          "internalType": "contract ERC20",
          "name": "token",
          "type": "address"
        }
      ],
      "name": "getPixTarget",
      "outputs": [
        {
          "internalType": "uint160",
          "name": "pixTarget",
          "type": "uint160"
        }
      ],
      "stateMutability": "view",
      "type": "function"
    },
    {
      "inputs": [
        {
          "internalType": "address",
          "name": "seller",
          "type": "address"
        },
        {
          "internalType": "contract ERC20",
          "name": "token",
          "type": "address"
        }
      ],
      "name": "getValid",
      "outputs": [
        {
          "internalType": "bool",
          "name": "valid",
          "type": "bool"
        }
      ],
      "stateMutability": "view",
      "type": "function"
    },
    {
      "inputs": [
        {
          "internalType": "address",
          "name": "_seller",
          "type": "address"
        },
        {
          "internalType": "address",
          "name": "_token",
          "type": "address"
        },
        {
          "internalType": "address",
          "name": "_buyerAddress",
          "type": "address"
        },
        {
          "internalType": "address",
          "name": "_relayerTarget",
          "type": "address"
        },
        {
          "internalType": "uint256",
          "name": "_relayerPremium",
          "type": "uint256"
        },
        {
          "internalType": "uint256",
          "name": "_amount",
          "type": "uint256"
        },
        {
          "internalType": "bytes32[]",
          "name": "merkleProof",
          "type": "bytes32[]"
        },
        {
          "internalType": "uint256[]",
          "name": "expiredLocks",
          "type": "uint256[]"
        }
      ],
      "name": "lock",
      "outputs": [
        {
          "internalType": "uint256",
          "name": "",
          "type": "uint256"
        }
      ],
      "stateMutability": "nonpayable",
      "type": "function"
    },
    {
      "inputs": [],
      "name": "lockCounter",
      "outputs": [
        {
          "internalType": "uint256",
          "name": "",
          "type": "uint256"
        }
      ],
      "stateMutability": "view",
      "type": "function"
    },
    {
      "inputs": [
        {
          "internalType": "uint256",
          "name": "",
          "type": "uint256"
        }
      ],
      "name": "mapLocks",
      "outputs": [
        {
          "internalType": "uint256",
          "name": "sellerKey",
          "type": "uint256"
        },
        {
          "internalType": "uint256",
          "name": "counter",
          "type": "uint256"
        },
        {
          "internalType": "uint256",
          "name": "relayerPremium",
          "type": "uint256"
        },
        {
          "internalType": "uint256",
          "name": "amount",
          "type": "uint256"
        },
        {
          "internalType": "uint256",
          "name": "expirationBlock",
          "type": "uint256"
        },
        {
          "internalType": "uint160",
          "name": "pixTarget",
          "type": "uint160"
        },
        {
          "internalType": "address",
          "name": "buyerAddress",
          "type": "address"
        },
        {
          "internalType": "address",
          "name": "relayerTarget",
          "type": "address"
        },
        {
          "internalType": "address",
          "name": "relayerAddress",
          "type": "address"
        },
        {
          "internalType": "address",
          "name": "token",
          "type": "address"
        }
      ],
      "stateMutability": "view",
      "type": "function"
    },
    {
      "inputs": [],
      "name": "owner",
      "outputs": [
        {
          "internalType": "address",
          "name": "",
          "type": "address"
        }
      ],
      "stateMutability": "view",
      "type": "function"
    },
    {
      "inputs": [
        {
          "internalType": "uint256",
          "name": "lockID",
          "type": "uint256"
        },
        {
          "internalType": "address",
          "name": "_relayerTarget",
          "type": "address"
        },
        {
          "internalType": "bytes32",
          "name": "pixTimestamp",
          "type": "bytes32"
        },
        {
          "internalType": "bytes32",
          "name": "r",
          "type": "bytes32"
        },
        {
          "internalType": "bytes32",
          "name": "s",
          "type": "bytes32"
        },
        {
          "internalType": "uint8",
          "name": "v",
          "type": "uint8"
        }
      ],
      "name": "release",
      "outputs": [],
      "stateMutability": "nonpayable",
      "type": "function"
    },
    {
      "inputs": [],
      "name": "reputation",
      "outputs": [
        {
          "internalType": "contract IReputation",
          "name": "",
          "type": "address"
        }
      ],
      "stateMutability": "view",
      "type": "function"
    },
    {
      "inputs": [
        {
          "internalType": "uint256",
          "name": "",
          "type": "uint256"
        }
      ],
      "name": "sellerAllowList",
      "outputs": [
        {
          "internalType": "bytes32",
          "name": "",
          "type": "bytes32"
        }
      ],
      "stateMutability": "view",
      "type": "function"
    },
    {
      "inputs": [
        {
          "internalType": "uint256",
          "name": "",
          "type": "uint256"
        },
        {
          "internalType": "contract ERC20",
          "name": "",
          "type": "address"
        }
      ],
      "name": "sellerBalance",
      "outputs": [
        {
          "internalType": "uint256",
          "name": "",
          "type": "uint256"
        }
      ],
      "stateMutability": "view",
      "type": "function"
    },
    {
      "inputs": [
        {
          "internalType": "uint256",
          "name": "_blocks",
          "type": "uint256"
        }
      ],
      "name": "setDefaultLockBlocks",
      "outputs": [],
      "stateMutability": "nonpayable",
      "type": "function"
    },
    {
      "inputs": [
        {
          "internalType": "address",
          "name": "newOwner",
          "type": "address"
        }
      ],
      "name": "setOwner",
      "outputs": [],
      "stateMutability": "nonpayable",
      "type": "function"
    },
    {
      "inputs": [
        {
          "internalType": "contract IReputation",
          "name": "_reputation",
          "type": "address"
        }
      ],
      "name": "setReputation",
      "outputs": [],
      "stateMutability": "nonpayable",
      "type": "function"
    },
    {
      "inputs": [
        {
          "internalType": "address",
          "name": "addr",
          "type": "address"
        },
        {
          "internalType": "bytes32",
          "name": "merkleroot",
          "type": "bytes32"
        }
      ],
      "name": "setRoot",
      "outputs": [],
      "stateMutability": "nonpayable",
      "type": "function"
    },
    {
      "inputs": [
        {
          "internalType": "address[]",
          "name": "_validSigners",
          "type": "address[]"
        }
      ],
      "name": "setValidSigners",
      "outputs": [],
      "stateMutability": "nonpayable",
      "type": "function"
    },
    {
      "inputs": [
        {
          "internalType": "contract ERC20",
          "name": "token",
          "type": "address"
        },
        {
          "internalType": "bool",
          "name": "state",
          "type": "bool"
        }
      ],
      "name": "setValidState",
      "outputs": [],
      "stateMutability": "nonpayable",
      "type": "function"
    },
    {
      "inputs": [
        {
          "internalType": "address[]",
          "name": "_tokens",
          "type": "address[]"
        },
        {
          "internalType": "bool[]",
          "name": "_states",
          "type": "bool[]"
        }
      ],
      "name": "tokenSettings",
      "outputs": [],
      "stateMutability": "nonpayable",
      "type": "function"
    },
    {
      "inputs": [
        {
          "internalType": "uint256[]",
          "name": "lockIDs",
          "type": "uint256[]"
        }
      ],
      "name": "unlockExpired",
      "outputs": [],
      "stateMutability": "nonpayable",
      "type": "function"
    },
    {
      "inputs": [
        {
          "internalType": "bytes32",
          "name": "",
          "type": "bytes32"
        }
      ],
      "name": "usedTransactions",
      "outputs": [
        {
          "internalType": "bool",
          "name": "",
          "type": "bool"
        }
      ],
      "stateMutability": "view",
      "type": "function"
    },
    {
      "inputs": [
        {
          "internalType": "uint256",
          "name": "",
          "type": "uint256"
        }
      ],
      "name": "userRecord",
      "outputs": [
        {
          "internalType": "uint256",
          "name": "",
          "type": "uint256"
        }
      ],
      "stateMutability": "view",
      "type": "function"
    },
    {
      "inputs": [
        {
          "internalType": "uint256",
          "name": "",
          "type": "uint256"
        }
      ],
      "name": "validBacenSigners",
      "outputs": [
        {
          "internalType": "bool",
          "name": "",
          "type": "bool"
        }
      ],
      "stateMutability": "view",
      "type": "function"
    },
    {
      "inputs": [
        {
          "internalType": "contract ERC20",
          "name": "token",
          "type": "address"
        },
        {
          "internalType": "uint256",
          "name": "amount",
          "type": "uint256"
        },
        {
          "internalType": "uint256[]",
          "name": "expiredLocks",
          "type": "uint256[]"
        }
      ],
      "name": "withdraw",
      "outputs": [],
      "stateMutability": "nonpayable",
      "type": "function"
    },
    {
      "inputs": [],
      "name": "withdrawBalance",
      "outputs": [],
      "stateMutability": "nonpayable",
      "type": "function"
    },
    {
      "stateMutability": "payable",
      "type": "receive"
    }
  ],
  "bytecode": "0x608060405260018055604051620031f9380380620031f98339810160408190526200002a9162000493565b600080546001600160a01b031916339081178255604051909182917f8292fce18fa69edf4db7b94ea2e58241df0ae57f97e0a6c9b29067028bf92d76908290a3506200007685620000a3565b620000818362000133565b6200008c84620001bd565b620000988282620002a1565b505050505062000616565b6000546001600160a01b03163314620000f25760405162461bcd60e51b815260206004820152600c60248201526b15539055551213d49256915160a21b60448201526064015b60405180910390fd5b806003557f70fa43ca70216ad905ade86b9e650a691b2ce5a01980d0a81bdd8324141b8511816040516200012891815260200190565b60405180910390a150565b6000546001600160a01b031633146200017e5760405162461bcd60e51b815260206004820152600c60248201526b15539055551213d49256915160a21b6044820152606401620000e9565b60028190556040516001600160a01b03821681527fe127cf589a3879da0156d4a24f43b44f65cfa3570de594806b0bfa2fcf06884f9060200162000128565b6000546001600160a01b03163314620002085760405162461bcd60e51b815260206004820152600c60248201526b15539055551213d49256915160a21b6044820152606401620000e9565b80516000905b808210156200026e57600062000246848481518110620002325762000232620005b1565b60200260200101516200038760201b60201c565b6000908152600860205260409020805460ff191660019081179091559290920191506200020e565b50507f14a422d2412784a5749d03da98921fe468c98577b767851389a9f58ea5a363d781604051620001289190620005c7565b6000546001600160a01b03163314620002ec5760405162461bcd60e51b815260206004820152600c60248201526b15539055551213d49256915160a21b6044820152606401620000e9565b815180620003025763df9578836000526004601cfd5b81518114620003195763ff633a386000526004601cfd5b60208301602083018260051b82015b8083146200037f578251600052600a60205260406000208251815550815183517f5d6e86e5341d57a92c49934296c51542a25015c9b1782a1c2722a940131c3d9a600080a360208301925060208201915062000328565b505050505050565b600c1b90565b634e487b7160e01b600052604160045260246000fd5b604051601f8201601f191681016001600160401b0381118282101715620003ce57620003ce6200038d565b604052919050565b60006001600160401b03821115620003f257620003f26200038d565b5060051b60200190565b6001600160a01b03811681146200041257600080fd5b50565b600082601f8301126200042757600080fd5b81516020620004406200043a83620003d6565b620003a3565b82815260059290921b840181019181810190868411156200046057600080fd5b8286015b84811015620004885780516200047a81620003fc565b835291830191830162000464565b509695505050505050565b600080600080600060a08688031215620004ac57600080fd5b8551602080880151919650906001600160401b0380821115620004ce57600080fd5b620004dc8a838b0162000415565b965060408901519150620004f082620003fc565b6060890151919550808211156200050657600080fd5b620005148a838b0162000415565b945060808901519150808211156200052b57600080fd5b508701601f810189136200053e57600080fd5b80516200054f6200043a82620003d6565b81815260059190911b8201830190838101908b8311156200056f57600080fd5b928401925b828410156200059f57835180151581146200058f5760008081fd5b8252928401929084019062000574565b80955050505050509295509295909350565b634e487b7160e01b600052603260045260246000fd5b6020808252825182820181905260009190848201906040850190845b818110156200060a5783516001600160a01b031683529284019291840191600101620005e3565b50909695505050505050565b612bd380620006266000396000f3fe6080604052600436106101dc5760003560e01c80637f94f65d11610102578063ad8f2eed11610095578063d4fac45d11610064578063d4fac45d14610713578063d6e8b9731461075e578063f7d0e04b1461077e578063fb8c5ef01461079e57600080fd5b8063ad8f2eed14610659578063b0983d3914610699578063c52164c6146106b9578063d1c07028146106e657600080fd5b80638db564c2116100d15780638db564c2146105c55780639872dbfe146105db57806398a26871146105f15780639eee8d4b1461062157600080fd5b80637f94f65d146104f257806380e1d3021461051257806384ab1d28146105525780638da5cb5b1461059857600080fd5b80634b2ae9801161017a5780636a146024116101495780636a146024146104695780636d82d9e01461048557806374ba03a0146104a557806377cd38a4146104c557600080fd5b80634b2ae980146103e3578063574983c8146104045780635fd8c7101461042457806369cc6af41461043957600080fd5b806313af4035116101b657806313af40351461026a578063328a71811461028a578063367821f0146102aa578063461f3120146103a357600080fd5b806304937320146101e85780630a98b9bd146102285780630d2a2d441461024857600080fd5b366101e357005b600080fd5b3480156101f457600080fd5b506102156102033660046123d5565b60076020526000908152604090205481565b6040519081526020015b60405180910390f35b34801561023457600080fd5b5061021561024336600461245c565b6107be565b34801561025457600080fd5b50610268610263366004612643565b610b6d565b005b34801561027657600080fd5b50610268610285366004612680565b610ca7565b34801561029657600080fd5b506102686102a53660046126b9565b610d98565b3480156102b657600080fd5b506103376102c53660046123d5565b6005602081905260009182526040909120805460018201546002830154600384015460048501549585015460068601546007870154600888015460099098015496989597949693959473ffffffffffffffffffffffffffffffffffffffff93841694928416939182169290821691168a565b604080519a8b5260208b0199909952978901969096526060880194909452608087019290925273ffffffffffffffffffffffffffffffffffffffff90811660a087015290811660c086015290811660e0850152908116610100840152166101208201526101400161021f565b3480156103af57600080fd5b506103d36103be3660046123d5565b60096020526000908152604090205460ff1681565b604051901515815260200161021f565b3480156103ef57600080fd5b506102156103fe366004612680565b600c1b90565b34801561041057600080fd5b5061026861041f3660046123d5565b610fd9565b34801561043057600080fd5b5061026861108f565b34801561044557600080fd5b506103d3610454366004612680565b600a6020526000908152604090205460ff1681565b34801561047557600080fd5b50610215670de0b6b3a764000081565b34801561049157600080fd5b506102686104a036600461272c565b611151565b3480156104b157600080fd5b506102686104c0366004612761565b611268565b3480156104d157600080fd5b506102156104e03660046123d5565b60066020526000908152604090205481565b3480156104fe57600080fd5b5061026861050d3660046127c5565b611747565b34801561051e57600080fd5b506103d361052d3660046127f1565b600c9190911b6000908152600b60209081526040808320938352929052205460ff1c90565b34801561055e57600080fd5b5061057361056d3660046123d5565b600c1c90565b60405173ffffffffffffffffffffffffffffffffffffffff909116815260200161021f565b3480156105a457600080fd5b506000546105739073ffffffffffffffffffffffffffffffffffffffff1681565b3480156105d157600080fd5b5061021560045481565b3480156105e757600080fd5b5061021560035481565b3480156105fd57600080fd5b506103d361060c3660046123d5565b60086020526000908152604090205460ff1681565b34801561062d57600080fd5b5061021561063c36600461282a565b600b60209081526000928352604080842090915290825290205481565b34801561066557600080fd5b506105736106743660046127f1565b600c9190911b6000908152600b602090815260408083209383529290522054605f1c90565b3480156106a557600080fd5b506102686106b436600461284f565b61180d565b3480156106c557600080fd5b506002546105739073ffffffffffffffffffffffffffffffffffffffff1681565b3480156106f257600080fd5b50610706610701366004612891565b611a50565b60405161021f91906128d8565b34801561071f57600080fd5b5061021561072e3660046127f1565b600c9190911b6000908152600b6020908152604080832093835292905220546b3fffffffffffffffffffffff1690565b34801561076a57600080fd5b5061026861077936600461291c565b611b2a565b34801561078a57600080fd5b50610268610799366004612680565b611c3a565b3480156107aa57600080fd5b506102686107b93660046129de565b611d06565b60006107c8611e02565b6107d2838361180d565b600c8b901b6000908152600b602090815260408083208d84529091529020548a9060ff1c61082c576040517fb2e532de00000000000000000000000000000000000000000000000000000000815260040160405180910390fd5b600c8c901b6000908152600b602090815260408083208484529091529020546b3fffffffffffffffffffffff1687811015610893576040517f22bbb43c00000000000000000000000000000000000000000000000000000000815260040160405180910390fd5b600061089f8e600c1b90565b9050600060045460016108b29190612a69565b60008181526005602052604090206004015490915043116108ff576040517fd0404f8500000000000000000000000000000000000000000000000000000000815260040160405180910390fd5b60006040518061014001604052808481526020018381526020018d81526020018c8152602001600354436109339190612a69565b8152602001605f600b600087815260200190815260200160002060008973ffffffffffffffffffffffffffffffffffffffff1673ffffffffffffffffffffffffffffffffffffffff16815260200190815260200160002054901c73ffffffffffffffffffffffffffffffffffffffff1681526020018f73ffffffffffffffffffffffffffffffffffffffff1681526020018e73ffffffffffffffffffffffffffffffffffffffff1681526020013373ffffffffffffffffffffffffffffffffffffffff1681526020018673ffffffffffffffffffffffffffffffffffffffff16815250905089899050600014610a7057600083815260066020526040902054610a40908b908b9033611e46565b610a4e848c84848988611e9e565b60048054906000610a5e83612a81565b91905055508195505050505050610b56565b68056bc75e2d63100000816060015111610a9257610a4e848c84848988611e9e565b33600c1b60009081526007602052604081205490610ac0610abb670de0b6b3a764000084612aba565b611ff9565b9050610ad4670de0b6b3a764000082612af5565b83606001511180610af2575069d3c21bcecceda10000008360600151115b15610b29576040517f1c18f84600000000000000000000000000000000000000000000000000000000815260040160405180910390fd5b610b37868e86868b8a611e9e565b60048054906000610b4783612a81565b90915550939750505050505050505b610b5f60018055565b9a9950505050505050505050565b60005473ffffffffffffffffffffffffffffffffffffffff163314610bf3576040517f08c379a000000000000000000000000000000000000000000000000000000000815260206004820152600c60248201527f554e415554484f52495a4544000000000000000000000000000000000000000060448201526064015b60405180910390fd5b80516000905b80821015610c6b576000610c26848481518110610c1857610c18612b32565b6020026020010151600c1b90565b600090815260086020526040902080547fffffffffffffffffffffffffffffffffffffffffffffffffffffffffffffff00166001908117909155929092019150610bf9565b50507f14a422d2412784a5749d03da98921fe468c98577b767851389a9f58ea5a363d781604051610c9c9190612b61565b60405180910390a150565b60005473ffffffffffffffffffffffffffffffffffffffff163314610d28576040517f08c379a000000000000000000000000000000000000000000000000000000000815260206004820152600c60248201527f554e415554484f52495a454400000000000000000000000000000000000000006044820152606401610bea565b600080547fffffffffffffffffffffffff00000000000000000000000000000000000000001673ffffffffffffffffffffffffffffffffffffffff83169081178255604051909133917f8292fce18fa69edf4db7b94ea2e58241df0ae57f97e0a6c9b29067028bf92d769190a350565b8433600c1b73ffffffffffffffffffffffffffffffffffffffff8516610dea576040517f6a3bc53e00000000000000000000000000000000000000000000000000000000815260040160405180910390fd5b73ffffffffffffffffffffffffffffffffffffffff82166000908152600a602052604090205460ff16610e49576040517f1578328e00000000000000000000000000000000000000000000000000000000815260040160405180910390fd5b6000818152600b6020908152604080832073ffffffffffffffffffffffffffffffffffffffff861684529091529020546b3fffffffffffffffffffffff81166a52b7d2dcc80cd2e4000000610eac6bffffffffffffffffffffffff8a1683612a69565b1115610ee4576040517ff3fb0eb900000000000000000000000000000000000000000000000000000000815260040160405180910390fd5b610eec611e02565b8415610efc57610efc3386611747565b87878760ff81901b605f83901b610f138587612a69565b6000898152600b6020908152604080832073ffffffffffffffffffffffffffffffffffffffff8e16845290915290209117919091179055610f648733306bffffffffffffffffffffffff8f166120b5565b610f6d60018055565b6040805173ffffffffffffffffffffffffffffffffffffffff8e1681526bffffffffffffffffffffffff8d16602082015233917f63d8d7d5e63e9840ec91a12a160d27b7cfab294f6ba070b7359692acfe6b03bf910160405180910390a2505050505050505050505050565b60005473ffffffffffffffffffffffffffffffffffffffff16331461105a576040517f08c379a000000000000000000000000000000000000000000000000000000000815260206004820152600c60248201527f554e415554484f52495a454400000000000000000000000000000000000000006044820152606401610bea565b806003557f70fa43ca70216ad905ade86b9e650a691b2ce5a01980d0a81bdd8324141b851181604051610c9c91815260200190565b60005473ffffffffffffffffffffffffffffffffffffffff163314611110576040517f08c379a000000000000000000000000000000000000000000000000000000000815260206004820152600c60248201527f554e415554484f52495a454400000000000000000000000000000000000000006044820152606401610bea565b4761111b338261217f565b60408051338152602081018390527feaff4b37086828766ad3268786972c0cd24259d4c87a80f9d3963a3c3d999b0d9101610c9c565b33600c1b6000818152600b6020908152604080832073ffffffffffffffffffffffffffffffffffffffff871684529091529020548015611230576000828152600b6020908152604080832073ffffffffffffffffffffffffffffffffffffffff8816808552908352928190207f7fffffffffffffffffffffffffffffffffffffffffffffffffffffffffffffff9490941660ff87901b1793849055805192835285151591830191909152849133917fca585721b6b442dc9183932f7c84dc2880efb67c4da52cc06873e78971105d49910160405180910390a250611262565b6040517f87138d5c00000000000000000000000000000000000000000000000000000000815260040160405180910390fd5b50505050565b611270611e02565b600086815260056020526040902060038101546112b9576040517f63b4904e00000000000000000000000000000000000000000000000000000000815260040160405180910390fd5b43816004015410156112f7576040517ff6fafba000000000000000000000000000000000000000000000000000000000815260040160405180910390fd5b6005810154600382015460405160609290921b7fffffffffffffffffffffffffffffffffffffffff00000000000000000000000016602083015260348201526054810186905260009060740160405160208183030381529060405280519060200120905060008160405160200161139a91907f19457468657265756d205369676e6564204d6573736167653a0a3332000000008152601c810191909152603c0190565b604080517fffffffffffffffffffffffffffffffffffffffffffffffffffffffffffffffe081840301815291815281516020928301206000858152600990935291205490915060ff1615156001141561141f576040517ff490a6ea00000000000000000000000000000000000000000000000000000000815260040160405180910390fd5b6040805160008082526020820180845284905260ff87169282019290925260608101889052608081018790526114879060019060a0016020604051602081039080840390855afa158015611477573d6000803e3d6000fd5b50505060206040510351600c1b90565b60008181526008602052604090205490915060ff166114d2576040517f815e1d6400000000000000000000000000000000000000000000000000000000815260040160405180910390fd5b60098401546003850154600286015473ffffffffffffffffffffffffffffffffffffffff909216916000906115079083612baf565b6000600389018190556004890181905587815260096020526040902080547fffffffffffffffffffffffffffffffffffffffffffffffffffffffffffffff0016600117905560088801549091503373ffffffffffffffffffffffffffffffffffffffff909116146115f357600287015433600c1b60009081526007602052604081208054909190611599908490612a69565b9091555050600887015482906007906000906115cb9073ffffffffffffffffffffffffffffffffffffffff16600c1b90565b815260200190815260200160002060008282546115e89190612a69565b9091555061162b9050565b8187600201546116039190612a69565b33600c1b60009081526007602052604081208054909190611625908490612a69565b90915550505b600687015461165290849073ffffffffffffffffffffffffffffffffffffffff16836121f9565b6002870154156116d857600787015473ffffffffffffffffffffffffffffffffffffffff8d81169116146116c957600787015460028801546116b191859173ffffffffffffffffffffffffffffffffffffffff9091169060011c6121f9565b6116c4838d60018a60020154901c6121f9565b6116d8565b6116d8838d89600201546121f9565b6006870154604080518f81526020810185905273ffffffffffffffffffffffffffffffffffffffff909216917f364537f14276f2a0ce9905588413f96454cbb8fb2e4f5308389307c1098bede8910160405180910390a25050505050505061173f60018055565b505050505050565b73ffffffffffffffffffffffffffffffffffffffff82163314156117db57806006600061177485600c1b90565b8152602080820192909252604090810160002092909255815173ffffffffffffffffffffffffffffffffffffffff851681529081018390527f0b294da292f26e55fd442b5c0164fbb9013036ff00c5cfdde0efd01c1baaf632910160405180910390a15050565b6040517f85d1f72600000000000000000000000000000000000000000000000000000000815260040160405180910390fd5b6000815b80821015611a3a5760006005600086868681811061183157611831612b32565b9050602002013581526020019081526020016000209050611851816122b8565b80546000908152600b60209081526040808320600985015473ffffffffffffffffffffffffffffffffffffffff16845290915290205460038201546b3fffffffffffffffffffffff909116906a52b7d2dcc80cd2e4000000906118b49083612a69565b11156118ec576040517ff3fb0eb900000000000000000000000000000000000000000000000000000000815260040160405180910390fd5b600382015482546000908152600b60209081526040808320600987015473ffffffffffffffffffffffffffffffffffffffff16845290915281208054909190611936908490612a69565b909155505060006003830181905560088301546119699073ffffffffffffffffffffffffffffffffffffffff16600c1b90565b60008181526007602052604090205490915060011c68056bc75e2d6310000081116119ad57600082815260076020526040902068056bc75e2d6310000090556119bf565b60008281526007602052604090208190555b600684015473ffffffffffffffffffffffffffffffffffffffff167f830501e61b8b075e170b22a430e39454bdb12ed3e9620e586430b6ac00079da5898989818110611a0d57611a0d612b32565b90506020020135604051611a2391815260200190565b60405180910390a285600101955050505050611811565b808210156112625763dfb035c96000526004601cfd5b8151606090600090818167ffffffffffffffff811115611a7257611a7261252d565b604051908082528060200260200182016040528015611a9b578160200160208202803683370190505b5090505b81831015611b21576000611af4878581518110611abe57611abe612b32565b602090810291909101810151600c1b6000908152600b825260408082208a835290925220546b3fffffffffffffffffffffff1690565b905080828581518110611b0957611b09612b32565b60200260200101818152505083600101935050611a9f565b95945050505050565b60005473ffffffffffffffffffffffffffffffffffffffff163314611bab576040517f08c379a000000000000000000000000000000000000000000000000000000000815260206004820152600c60248201527f554e415554484f52495a454400000000000000000000000000000000000000006044820152606401610bea565b815180611bc05763df9578836000526004601cfd5b81518114611bd65763ff633a386000526004601cfd5b60208301602083018260051b82015b80831461173f578251600052600a60205260406000208251815550815183517f5d6e86e5341d57a92c49934296c51542a25015c9b1782a1c2722a940131c3d9a600080a3602083019250602082019150611be5565b60005473ffffffffffffffffffffffffffffffffffffffff163314611cbb576040517f08c379a000000000000000000000000000000000000000000000000000000000815260206004820152600c60248201527f554e415554484f52495a454400000000000000000000000000000000000000006044820152606401610bea565b600281905560405173ffffffffffffffffffffffffffffffffffffffff821681527fe127cf589a3879da0156d4a24f43b44f65cfa3570de594806b0bfa2fcf06884f90602001610c9c565b611d0e611e02565b611d18828261180d565b33600c1b6000908152600b6020908152604080832087845290915290205460ff1c151560011415611d4e57611d4e846000611151565b33600c1b6000818152600b6020908152604080832073ffffffffffffffffffffffffffffffffffffffff89168452909152902054611d9c906b3fffffffffffffffffffffff16858784612334565b611da78533866121f9565b6040805173ffffffffffffffffffffffffffffffffffffffff871681526020810186905233917f2cd6435b1b961c13f55202979edd0765a809f69a539d8a477436c94c1211e43e910160405180910390a25061126260018055565b60015460021415611e3f576040517fab143c0600000000000000000000000000000000000000000000000000000000815260040160405180910390fd5b6002600155565b611e6884848473ffffffffffffffffffffffffffffffffffffffff8516612391565b611262576040517f3b8474be00000000000000000000000000000000000000000000000000000000815260040160405180910390fd5b60008481526005602081815260409283902086518155908601516001820155918501516002830155606085015160038301556080850151600483015560a085015190820180547fffffffffffffffffffffffff000000000000000000000000000000000000000090811673ffffffffffffffffffffffffffffffffffffffff9384161790915560c0860151600684018054831691841691909117905560e0860151600784018054831691841691909117905561010086015160088401805483169184169190911790556101208601516009909301805490911692909116919091179055611f8d86868484612334565b60c083015183516060850151604051879373ffffffffffffffffffffffffffffffffffffffff16927f8fb3989f70bd172a37d15b41b015e48ea09d59329638377304a4198cd0c4ea6592611fe992918252602082015260400190565b60405180910390a3505050505050565b600080634d2b179160e01b8360405160240161201791815260200190565b604051602081830303815290604052907bffffffffffffffffffffffffffffffffffffffffffffffffffffffff19166020820180517bffffffffffffffffffffffffffffffffffffffffffffffffffffffff83818316178352505050509050600080600060206000855160208701600254617530fa92503d91506000519050809450826120ac5763e10bf1cc6000526004601cfd5b50505050919050565b60006040517f23b872dd000000000000000000000000000000000000000000000000000000006000528460045283602452826044526020600060646000808a5af13d15601f3d1160016000511416171691506000606052806040525080612178576040517f08c379a000000000000000000000000000000000000000000000000000000000815260206004820152601460248201527f5452414e534645525f46524f4d5f4641494c45440000000000000000000000006044820152606401610bea565b5050505050565b600080600080600085875af19050806121f4576040517f08c379a000000000000000000000000000000000000000000000000000000000815260206004820152601360248201527f4554485f5452414e534645525f4641494c4544000000000000000000000000006044820152606401610bea565b505050565b60006040517fa9059cbb000000000000000000000000000000000000000000000000000000006000528360045282602452602060006044600080895af13d15601f3d1160016000511416171691506000606052806040525080611262576040517f08c379a000000000000000000000000000000000000000000000000000000000815260206004820152600f60248201527f5452414e534645525f4641494c454400000000000000000000000000000000006044820152606401610bea565b43816004015411156122f6576040517fd0404f8500000000000000000000000000000000000000000000000000000000815260040160405180910390fd5b6003810154612331576040517f63b4904e00000000000000000000000000000000000000000000000000000000815260040160405180910390fd5b50565b836123475763ce3a3d376000526004601cfd5b6000818152600b6020908152604080832073ffffffffffffffffffffffffffffffffffffffff8616845290915281208054859290612386908490612baf565b909155505050505050565b600083156123cd578360051b8501855b803580851160051b948552602094851852604060002093018181106123c5576123ca565b6123a1565b50505b501492915050565b6000602082840312156123e757600080fd5b5035919050565b73ffffffffffffffffffffffffffffffffffffffff8116811461233157600080fd5b60008083601f84011261242257600080fd5b50813567ffffffffffffffff81111561243a57600080fd5b6020830191508360208260051b850101111561245557600080fd5b9250929050565b6000806000806000806000806000806101008b8d03121561247c57600080fd5b8a35612487816123ee565b995060208b0135612497816123ee565b985060408b01356124a7816123ee565b975060608b01356124b7816123ee565b965060808b0135955060a08b0135945060c08b013567ffffffffffffffff808211156124e257600080fd5b6124ee8e838f01612410565b909650945060e08d013591508082111561250757600080fd5b506125148d828e01612410565b915080935050809150509295989b9194979a5092959850565b7f4e487b7100000000000000000000000000000000000000000000000000000000600052604160045260246000fd5b604051601f82017fffffffffffffffffffffffffffffffffffffffffffffffffffffffffffffffe016810167ffffffffffffffff811182821017156125a3576125a361252d565b604052919050565b600067ffffffffffffffff8211156125c5576125c561252d565b5060051b60200190565b600082601f8301126125e057600080fd5b813560206125f56125f0836125ab565b61255c565b82815260059290921b8401810191818101908684111561261457600080fd5b8286015b8481101561263857803561262b816123ee565b8352918301918301612618565b509695505050505050565b60006020828403121561265557600080fd5b813567ffffffffffffffff81111561266c57600080fd5b612678848285016125cf565b949350505050565b60006020828403121561269257600080fd5b813561269d816123ee565b9392505050565b803580151581146126b457600080fd5b919050565b600080600080600060a086880312156126d157600080fd5b85356126dc816123ee565b945060208601356bffffffffffffffffffffffff811681146126fd57600080fd5b9350604086013561270d816123ee565b925061271b606087016126a4565b949793965091946080013592915050565b6000806040838503121561273f57600080fd5b823561274a816123ee565b9150612758602084016126a4565b90509250929050565b60008060008060008060c0878903121561277a57600080fd5b86359550602087013561278c816123ee565b945060408701359350606087013592506080870135915060a087013560ff811681146127b757600080fd5b809150509295509295509295565b600080604083850312156127d857600080fd5b82356127e3816123ee565b946020939093013593505050565b6000806040838503121561280457600080fd5b823561280f816123ee565b9150602083013561281f816123ee565b809150509250929050565b6000806040838503121561283d57600080fd5b82359150602083013561281f816123ee565b6000806020838503121561286257600080fd5b823567ffffffffffffffff81111561287957600080fd5b61288585828601612410565b90969095509350505050565b600080604083850312156128a457600080fd5b823567ffffffffffffffff8111156128bb57600080fd5b6128c7858286016125cf565b925050602083013561281f816123ee565b6020808252825182820181905260009190848201906040850190845b81811015612910578351835292840192918401916001016128f4565b50909695505050505050565b6000806040838503121561292f57600080fd5b823567ffffffffffffffff8082111561294757600080fd5b612953868387016125cf565b935060209150818501358181111561296a57600080fd5b85019050601f8101861361297d57600080fd5b803561298b6125f0826125ab565b81815260059190911b820183019083810190888311156129aa57600080fd5b928401925b828410156129cf576129c0846126a4565b825292840192908401906129af565b80955050505050509250929050565b600080600080606085870312156129f457600080fd5b84356129ff816123ee565b935060208501359250604085013567ffffffffffffffff811115612a2257600080fd5b612a2e87828801612410565b95989497509550505050565b7f4e487b7100000000000000000000000000000000000000000000000000000000600052601160045260246000fd5b60008219821115612a7c57612a7c612a3a565b500190565b60007fffffffffffffffffffffffffffffffffffffffffffffffffffffffffffffffff821415612ab357612ab3612a3a565b5060010190565b600082612af0577f4e487b7100000000000000000000000000000000000000000000000000000000600052601260045260246000fd5b500490565b6000817fffffffffffffffffffffffffffffffffffffffffffffffffffffffffffffffff0483118215151615612b2d57612b2d612a3a565b500290565b7f4e487b7100000000000000000000000000000000000000000000000000000000600052603260045260246000fd5b6020808252825182820181905260009190848201906040850190845b8181101561291057835173ffffffffffffffffffffffffffffffffffffffff1683529284019291840191600101612b7d565b600082821015612bc157612bc1612a3a565b50039056fea164736f6c6343000809000a",
  "linkReferences": {},
  "deployedLinkReferences": {}
}