{
  "_format": "hh-sol-artifact-1",
  "contractName": "P2PIX",
  "sourceName": "contracts/p2pix.sol",
  "abi": [
    {
      "inputs": [
        {
          "internalType": "uint256",
          "name": "defaultBlocks",
          "type": "uint256"
        },
        {
          "internalType": "address[]",
          "name": "validSigners",
          "type": "address[]"
        },
        {
          "internalType": "address",
          "name": "_reputation",
          "type": "address"
        },
        {
          "internalType": "address[]",
          "name": "tokens",
          "type": "address[]"
        },
        {
          "internalType": "bool[]",
          "name": "tokenStates",
          "type": "bool[]"
        }
      ],
      "stateMutability": "payable",
      "type": "constructor"
    },
    {
      "inputs": [],
      "name": "AddressDenied",
      "type": "error"
    },
    {
      "inputs": [],
      "name": "AlreadyReleased",
      "type": "error"
    },
    {
      "inputs": [],
      "name": "AmountNotAllowed",
      "type": "error"
    },
    {
      "inputs": [],
      "name": "DecOverflow",
      "type": "error"
    },
    {
      "inputs": [],
      "name": "EmptyPixTarget",
      "type": "error"
    },
    {
      "inputs": [],
      "name": "InvalidDeposit",
      "type": "error"
    },
    {
      "inputs": [],
      "name": "InvalidSigner",
      "type": "error"
    },
    {
      "inputs": [],
      "name": "LengthMismatch",
      "type": "error"
    },
    {
      "inputs": [],
      "name": "LockExpired",
      "type": "error"
    },
    {
      "inputs": [],
      "name": "LoopOverflow",
      "type": "error"
    },
    {
      "inputs": [],
      "name": "MaxBalExceeded",
      "type": "error"
    },
    {
      "inputs": [],
      "name": "NoTokens",
      "type": "error"
    },
    {
      "inputs": [],
      "name": "NotEnoughTokens",
      "type": "error"
    },
    {
      "inputs": [],
      "name": "NotExpired",
      "type": "error"
    },
    {
      "inputs": [],
      "name": "NotInitialized",
      "type": "error"
    },
    {
      "inputs": [],
      "name": "OnlySeller",
      "type": "error"
    },
    {
      "inputs": [],
      "name": "Reentrancy",
      "type": "error"
    },
    {
      "inputs": [],
      "name": "StaticCallFailed",
      "type": "error"
    },
    {
      "inputs": [],
      "name": "TokenDenied",
      "type": "error"
    },
    {
      "inputs": [],
      "name": "TxAlreadyUsed",
      "type": "error"
    },
    {
      "inputs": [],
      "name": "Unauthorized",
      "type": "error"
    },
    {
      "anonymous": false,
      "inputs": [
        {
          "indexed": true,
          "internalType": "address",
          "name": "token",
          "type": "address"
        },
        {
          "indexed": true,
          "internalType": "bool",
          "name": "state",
          "type": "bool"
        }
      ],
      "name": "AllowedERC20Updated",
      "type": "event"
    },
    {
      "anonymous": false,
      "inputs": [
        {
          "indexed": true,
          "internalType": "address",
          "name": "seller",
          "type": "address"
        },
        {
          "indexed": false,
          "internalType": "address",
          "name": "token",
          "type": "address"
        },
        {
          "indexed": false,
          "internalType": "uint256",
          "name": "amount",
          "type": "uint256"
        }
      ],
      "name": "DepositAdded",
      "type": "event"
    },
    {
      "anonymous": false,
      "inputs": [
        {
          "indexed": true,
          "internalType": "address",
          "name": "seller",
          "type": "address"
        },
        {
          "indexed": false,
          "internalType": "address",
          "name": "token",
          "type": "address"
        },
        {
          "indexed": false,
          "internalType": "uint256",
          "name": "amount",
          "type": "uint256"
        }
      ],
      "name": "DepositWithdrawn",
      "type": "event"
    },
    {
      "anonymous": false,
      "inputs": [
        {
          "indexed": false,
          "internalType": "address",
          "name": "owner",
          "type": "address"
        },
        {
          "indexed": false,
          "internalType": "uint256",
          "name": "amount",
          "type": "uint256"
        }
      ],
      "name": "FundsWithdrawn",
      "type": "event"
    },
    {
      "anonymous": false,
      "inputs": [
        {
          "indexed": true,
          "internalType": "address",
          "name": "buyer",
          "type": "address"
        },
        {
          "indexed": true,
          "internalType": "uint256",
          "name": "lockID",
          "type": "uint256"
        },
        {
          "indexed": false,
          "internalType": "address",
          "name": "seller",
          "type": "address"
        },
        {
          "indexed": false,
          "internalType": "uint256",
          "name": "amount",
          "type": "uint256"
        }
      ],
      "name": "LockAdded",
      "type": "event"
    },
    {
      "anonymous": false,
      "inputs": [
        {
          "indexed": false,
          "internalType": "uint256",
          "name": "blocks",
          "type": "uint256"
        }
      ],
      "name": "LockBlocksUpdated",
      "type": "event"
    },
    {
      "anonymous": false,
      "inputs": [
        {
          "indexed": true,
          "internalType": "address",
          "name": "buyer",
          "type": "address"
        },
        {
          "indexed": false,
          "internalType": "uint256",
          "name": "lockId",
          "type": "uint256"
        },
        {
          "indexed": false,
          "internalType": "uint256",
          "name": "amount",
          "type": "uint256"
        }
      ],
      "name": "LockReleased",
      "type": "event"
    },
    {
      "anonymous": false,
      "inputs": [
        {
          "indexed": true,
          "internalType": "address",
          "name": "buyer",
          "type": "address"
        },
        {
          "indexed": false,
          "internalType": "uint256",
          "name": "lockId",
          "type": "uint256"
        }
      ],
      "name": "LockReturned",
      "type": "event"
    },
    {
      "anonymous": false,
      "inputs": [
        {
          "indexed": true,
          "internalType": "address",
          "name": "user",
          "type": "address"
        },
        {
          "indexed": true,
          "internalType": "address",
          "name": "newOwner",
          "type": "address"
        }
      ],
      "name": "OwnerUpdated",
      "type": "event"
    },
    {
      "anonymous": false,
      "inputs": [
        {
          "indexed": false,
          "internalType": "address",
          "name": "reputation",
          "type": "address"
        }
      ],
      "name": "ReputationUpdated",
      "type": "event"
    },
    {
      "anonymous": false,
      "inputs": [
        {
          "indexed": true,
          "internalType": "address",
          "name": "seller",
          "type": "address"
        },
        {
          "indexed": true,
          "internalType": "bytes32",
          "name": "merkleRoot",
          "type": "bytes32"
        }
      ],
      "name": "RootUpdated",
      "type": "event"
    },
    {
      "anonymous": false,
      "inputs": [
        {
          "indexed": true,
          "internalType": "address",
          "name": "forwarder",
          "type": "address"
        },
        {
          "indexed": true,
          "internalType": "bool",
          "name": "state",
          "type": "bool"
        }
      ],
      "name": "TrustedForwarderUpdated",
      "type": "event"
    },
    {
      "anonymous": false,
      "inputs": [
        {
          "indexed": true,
          "internalType": "address",
          "name": "seller",
          "type": "address"
        },
        {
          "indexed": false,
          "internalType": "address",
          "name": "token",
          "type": "address"
        },
        {
          "indexed": false,
          "internalType": "bool",
          "name": "state",
          "type": "bool"
        }
      ],
      "name": "ValidSet",
      "type": "event"
    },
    {
      "anonymous": false,
      "inputs": [
        {
          "indexed": false,
          "internalType": "address[]",
          "name": "signers",
          "type": "address[]"
        }
      ],
      "name": "ValidSignersUpdated",
      "type": "event"
    },
    {
      "inputs": [
        {
          "internalType": "address",
          "name": "_addr",
          "type": "address"
        }
      ],
      "name": "_castAddrToKey",
      "outputs": [
        {
          "internalType": "uint256",
          "name": "_key",
          "type": "uint256"
        }
      ],
      "stateMutability": "pure",
      "type": "function"
    },
    {
      "inputs": [
        {
          "internalType": "uint256",
          "name": "_key",
          "type": "uint256"
        }
      ],
      "name": "_castKeyToAddr",
      "outputs": [
        {
          "internalType": "address",
          "name": "_addr",
          "type": "address"
        }
      ],
      "stateMutability": "pure",
      "type": "function"
    },
    {
      "inputs": [
        {
          "internalType": "contract ERC20",
          "name": "erc20",
          "type": "address"
        }
      ],
      "name": "allowedERC20s",
      "outputs": [
        {
          "internalType": "bool",
          "name": "state",
          "type": "bool"
        }
      ],
      "stateMutability": "view",
      "type": "function"
    },
    {
      "inputs": [],
      "name": "defaultLockBlocks",
      "outputs": [
        {
          "internalType": "uint256",
          "name": "",
          "type": "uint256"
        }
      ],
      "stateMutability": "view",
      "type": "function"
    },
    {
      "inputs": [
        {
          "components": [
            {
              "internalType": "string",
              "name": "pixTarget",
              "type": "string"
            },
            {
              "internalType": "bytes32",
              "name": "allowlistRoot",
              "type": "bytes32"
            },
            {
              "internalType": "contract ERC20",
              "name": "token",
              "type": "address"
            },
            {
              "internalType": "uint96",
              "name": "amount",
              "type": "uint96"
            },
            {
              "internalType": "bool",
              "name": "valid",
              "type": "bool"
            }
          ],
          "internalType": "struct DataTypes.DepositArgs",
          "name": "args",
          "type": "tuple"
        }
      ],
      "name": "deposit",
      "outputs": [],
      "stateMutability": "nonpayable",
      "type": "function"
    },
    {
      "inputs": [
        {
          "internalType": "address",
          "name": "seller",
          "type": "address"
        },
        {
          "internalType": "contract ERC20",
          "name": "token",
          "type": "address"
        }
      ],
      "name": "getBalance",
      "outputs": [
        {
          "internalType": "uint256",
          "name": "bal",
          "type": "uint256"
        }
      ],
      "stateMutability": "view",
      "type": "function"
    },
    {
      "inputs": [
        {
          "internalType": "address[]",
          "name": "sellers",
          "type": "address[]"
        },
        {
          "internalType": "contract ERC20",
          "name": "token",
          "type": "address"
        }
      ],
      "name": "getBalances",
      "outputs": [
        {
          "internalType": "uint256[]",
          "name": "",
          "type": "uint256[]"
        }
      ],
      "stateMutability": "view",
      "type": "function"
    },
    {
      "inputs": [
        {
          "internalType": "uint256[]",
          "name": "ids",
          "type": "uint256[]"
        }
      ],
      "name": "getLocksStatus",
      "outputs": [
        {
          "internalType": "uint256[]",
          "name": "",
          "type": "uint256[]"
        },
        {
          "internalType": "enum DataTypes.LockStatus[]",
          "name": "",
          "type": "uint8[]"
        }
      ],
      "stateMutability": "view",
      "type": "function"
    },
    {
      "inputs": [
        {
          "internalType": "address",
          "name": "seller",
          "type": "address"
        },
        {
          "internalType": "contract ERC20",
          "name": "token",
          "type": "address"
        }
      ],
      "name": "getPixTarget",
      "outputs": [
        {
          "internalType": "bytes32",
          "name": "pixTarget",
          "type": "bytes32"
        }
      ],
      "stateMutability": "view",
      "type": "function"
    },
    {
      "inputs": [
        {
          "internalType": "address",
          "name": "seller",
          "type": "address"
        },
        {
          "internalType": "contract ERC20",
          "name": "token",
          "type": "address"
        }
      ],
      "name": "getPixTargetString",
      "outputs": [
        {
          "internalType": "string",
          "name": "pixTarget",
          "type": "string"
        }
      ],
      "stateMutability": "view",
      "type": "function"
    },
    {
      "inputs": [
        {
          "internalType": "string",
          "name": "str",
          "type": "string"
        }
      ],
      "name": "getStr",
      "outputs": [
        {
          "internalType": "bytes32",
          "name": "strEnc",
          "type": "bytes32"
        }
      ],
      "stateMutability": "pure",
      "type": "function"
    },
    {
      "inputs": [
        {
          "internalType": "address",
          "name": "seller",
          "type": "address"
        },
        {
          "internalType": "contract ERC20",
          "name": "token",
          "type": "address"
        }
      ],
      "name": "getValid",
      "outputs": [
        {
          "internalType": "bool",
          "name": "valid",
          "type": "bool"
        }
      ],
      "stateMutability": "view",
      "type": "function"
    },
    {
      "inputs": [
        {
          "internalType": "address",
          "name": "",
          "type": "address"
        }
      ],
      "name": "isTrustedForwarder",
      "outputs": [
        {
          "internalType": "bool",
          "name": "",
          "type": "bool"
        }
      ],
      "stateMutability": "view",
      "type": "function"
    },
    {
      "inputs": [
        {
          "components": [
            {
              "internalType": "address",
              "name": "seller",
              "type": "address"
            },
            {
              "internalType": "contract ERC20",
              "name": "token",
              "type": "address"
            },
            {
              "internalType": "uint80",
              "name": "amount",
              "type": "uint80"
            },
            {
              "internalType": "bytes32[]",
              "name": "merkleProof",
              "type": "bytes32[]"
            },
            {
              "internalType": "uint256[]",
              "name": "expiredLocks",
              "type": "uint256[]"
            }
          ],
          "internalType": "struct DataTypes.LockArgs",
          "name": "args",
          "type": "tuple"
        }
      ],
      "name": "lock",
      "outputs": [
        {
          "internalType": "uint256",
          "name": "lockID",
          "type": "uint256"
        }
      ],
      "stateMutability": "nonpayable",
      "type": "function"
    },
    {
      "inputs": [],
      "name": "lockCounter",
      "outputs": [
        {
          "internalType": "uint256",
          "name": "",
          "type": "uint256"
        }
      ],
      "stateMutability": "view",
      "type": "function"
    },
    {
      "inputs": [
        {
          "internalType": "uint256",
          "name": "",
          "type": "uint256"
        }
      ],
      "name": "mapLocks",
      "outputs": [
        {
          "internalType": "uint256",
          "name": "counter",
          "type": "uint256"
        },
        {
          "internalType": "uint256",
          "name": "expirationBlock",
          "type": "uint256"
        },
        {
          "internalType": "bytes32",
          "name": "pixTarget",
          "type": "bytes32"
        },
        {
          "internalType": "uint80",
          "name": "amount",
          "type": "uint80"
        },
        {
          "internalType": "address",
          "name": "token",
          "type": "address"
        },
        {
          "internalType": "address",
          "name": "buyerAddress",
          "type": "address"
        },
        {
          "internalType": "address",
          "name": "seller",
          "type": "address"
        }
      ],
      "stateMutability": "view",
      "type": "function"
    },
    {
      "inputs": [],
      "name": "owner",
      "outputs": [
        {
          "internalType": "address",
          "name": "",
          "type": "address"
        }
      ],
      "stateMutability": "view",
      "type": "function"
    },
    {
      "inputs": [
        {
          "internalType": "uint256",
          "name": "lockID",
          "type": "uint256"
        },
        {
          "internalType": "bytes32",
          "name": "pixTimestamp",
          "type": "bytes32"
        },
        {
          "internalType": "bytes32",
          "name": "r",
          "type": "bytes32"
        },
        {
          "internalType": "bytes32",
          "name": "s",
          "type": "bytes32"
        },
        {
          "internalType": "uint8",
          "name": "v",
          "type": "uint8"
        }
      ],
      "name": "release",
      "outputs": [],
      "stateMutability": "nonpayable",
      "type": "function"
    },
    {
      "inputs": [],
      "name": "reputation",
      "outputs": [
        {
          "internalType": "contract IReputation",
          "name": "",
          "type": "address"
        }
      ],
      "stateMutability": "view",
      "type": "function"
    },
    {
      "inputs": [
        {
          "internalType": "address",
          "name": "sellerKey",
          "type": "address"
        }
      ],
      "name": "sellerAllowList",
      "outputs": [
        {
          "internalType": "bytes32",
          "name": "root",
          "type": "bytes32"
        }
      ],
      "stateMutability": "view",
      "type": "function"
    },
    {
      "inputs": [
        {
          "internalType": "uint256",
          "name": "_blocks",
          "type": "uint256"
        }
      ],
      "name": "setDefaultLockBlocks",
      "outputs": [],
      "stateMutability": "nonpayable",
      "type": "function"
    },
    {
      "inputs": [
        {
          "internalType": "address",
          "name": "newOwner",
          "type": "address"
        }
      ],
      "name": "setOwner",
      "outputs": [],
      "stateMutability": "nonpayable",
      "type": "function"
    },
    {
      "inputs": [
        {
          "internalType": "contract IReputation",
          "name": "_reputation",
          "type": "address"
        }
      ],
      "name": "setReputation",
      "outputs": [],
      "stateMutability": "nonpayable",
      "type": "function"
    },
    {
      "inputs": [
        {
          "internalType": "address",
          "name": "addr",
          "type": "address"
        },
        {
          "internalType": "bytes32",
          "name": "merkleroot",
          "type": "bytes32"
        }
      ],
      "name": "setRoot",
      "outputs": [],
      "stateMutability": "nonpayable",
      "type": "function"
    },
    {
      "inputs": [
        {
          "internalType": "address[]",
          "name": "forwarders",
          "type": "address[]"
        },
        {
          "internalType": "bool[]",
          "name": "states",
          "type": "bool[]"
        }
      ],
      "name": "setTrustedFowarders",
      "outputs": [],
      "stateMutability": "nonpayable",
      "type": "function"
    },
    {
      "inputs": [
        {
          "internalType": "address[]",
          "name": "_validSigners",
          "type": "address[]"
        }
      ],
      "name": "setValidSigners",
      "outputs": [],
      "stateMutability": "nonpayable",
      "type": "function"
    },
    {
      "inputs": [
        {
          "internalType": "contract ERC20",
          "name": "token",
          "type": "address"
        },
        {
          "internalType": "bool",
          "name": "state",
          "type": "bool"
        }
      ],
      "name": "setValidState",
      "outputs": [],
      "stateMutability": "nonpayable",
      "type": "function"
    },
    {
      "inputs": [
        {
          "internalType": "address[]",
          "name": "_tokens",
          "type": "address[]"
        },
        {
          "internalType": "bool[]",
          "name": "_states",
          "type": "bool[]"
        }
      ],
      "name": "tokenSettings",
      "outputs": [],
      "stateMutability": "nonpayable",
      "type": "function"
    },
    {
      "inputs": [
        {
          "internalType": "uint256[]",
          "name": "lockIDs",
          "type": "uint256[]"
        }
      ],
      "name": "unlockExpired",
      "outputs": [],
      "stateMutability": "nonpayable",
      "type": "function"
    },
    {
      "inputs": [
        {
          "internalType": "bytes32",
          "name": "message",
          "type": "bytes32"
        }
      ],
      "name": "usedTransactions",
      "outputs": [
        {
          "internalType": "bool",
          "name": "used",
          "type": "bool"
        }
      ],
      "stateMutability": "view",
      "type": "function"
    },
    {
      "inputs": [
        {
          "internalType": "uint256",
          "name": "",
          "type": "uint256"
        }
      ],
      "name": "userRecord",
      "outputs": [
        {
          "internalType": "uint256",
          "name": "",
          "type": "uint256"
        }
      ],
      "stateMutability": "view",
      "type": "function"
    },
    {
      "inputs": [
        {
          "internalType": "uint256",
          "name": "signer",
          "type": "uint256"
        }
      ],
      "name": "validBacenSigners",
      "outputs": [
        {
          "internalType": "bool",
          "name": "valid",
          "type": "bool"
        }
      ],
      "stateMutability": "view",
      "type": "function"
    },
    {
      "inputs": [
        {
          "internalType": "contract ERC20",
          "name": "token",
          "type": "address"
        },
        {
          "internalType": "uint256",
          "name": "amount",
          "type": "uint256"
        },
        {
          "internalType": "uint256[]",
          "name": "expiredLocks",
          "type": "uint256[]"
        }
      ],
      "name": "withdraw",
      "outputs": [],
      "stateMutability": "nonpayable",
      "type": "function"
    },
    {
      "inputs": [],
      "name": "withdrawBalance",
      "outputs": [],
      "stateMutability": "nonpayable",
      "type": "function"
    },
    {
      "stateMutability": "payable",
      "type": "receive"
    }
  ],
  "bytecode": "0x608060405262002d4680380380620000178162000126565b928339810160a0828203126200010b5781516020808401519093916001600160401b03918281116200010b5784620000519185016200017f565b9062000060604085016200016a565b9260608501518181116200010b57866200007c9187016200017f565b9460808101519182116200010b57019480601f870112156200010b578551620000af620000a98262000152565b62000126565b96888089848152019260051b8201019283116200010b578801905b828210620000f157505050620000e19550620001e6565b6040516129049081620004428239f35b815180151581036200010b578152908801908801620000ca565b600080fd5b634e487b7160e01b600052604160045260246000fd5b6040519190601f01601f191682016001600160401b038111838210176200014c57604052565b62000110565b6001600160401b0381116200014c5760051b60200190565b51906001600160a01b03821682036200010b57565b9080601f830112156200010b578151906200019e620000a98362000152565b9182938184526020808095019260051b8201019283116200010b578301905b828210620001cc575050505090565b838091620001da846200016a565b815201910190620001bd565b600080546001600160a01b031916339081178255929695949392817f8292fce18fa69edf4db7b94ea2e58241df0ae57f97e0a6c9b29067028bf92d768180a3816003556040519182527f70fa43ca70216ad905ade86b9e650a691b2ce5a01980d0a81bdd8324141b851160208093a18651878301979060051b810183013d1515895b811562000306575b5050506040519280840191818552518092526040840198925b828110620002e85750505050907f14a422d2412784a5749d03da98921fe468c98577b767851389a9f58ea5a363d782620002d593620002db97980390a16001600160a01b031662000337565b62000390565b620002e66001600455565b565b83516001600160a01b03168a52988101989281019260010162000289565b9085826001829697989451600c1b550190838210156200032c5791509493929462000268565b509493929462000270565b6000546001600160a01b0390811633036200037f57816020917fe127cf589a3879da0156d4a24f43b44f65cfa3570de594806b0bfa2fcf06884f9360025560405191168152a1565b6040516282b42960e81b8152600490fd5b60008054919290916001600160a01b031633036200037f5782519182156200043457815183036200042757602092919284818080970195019360051b0101925b838103620003df575050505050565b84809181600c63cbc9d1c48152825186528651918291205581517f5d6e86e5341d57a92c49934296c51542a25015c9b1782a1c2722a940131c3d9a8680a301920191620003d0565b63ff633a3890526004601cfd5b63df95788390526004601cfdfe6080604052600436101561001b575b361561001957600080fd5b005b60003560e01c806304937320146102365780630d2a2d441461023157806313af40351461022c5780631e3c017a146102275780631e9bb57314610222578063367821f01461021d5780633c16f0c414610218578063461f3120146101cd57806349ef8448146102135780634b2ae9801461020e578063572b6c0514610209578063574983c8146102045780635fd8c710146101ff57806369cc6af4146101fa5780636d82d9e0146101f55780637f94f65d146101f057806380e1d302146101eb57806384ab1d28146101e65780638da5cb5b146101e15780638db564c2146101dc578063918dff57146101d75780639872dbfe146101d257806398a26871146101cd578063ad8f2eed146101c8578063b0983d39146101c3578063c52164c6146101be578063c593dfd8146101b9578063d1c07028146101b4578063d1ced2b0146101af578063d4fac45d146101aa578063d6e8b973146101a5578063e449c52a146101a0578063f7d0e04b1461019b5763fb8c5ef00361000e576119d1565b611961565b61191a565b611803565b6117f0565b611741565b6115f9565b6112e1565b6112ad565b611279565b611235565b610c81565b611217565b611192565b611151565b61111d565b6110e7565b6110d4565b611083565b610f92565b610f5c565b610ed9565b610e75565b610e25565b610dfb565b610d64565b610c57565b610bb9565b61080b565b61058b565b6104c7565b61039a565b346102625760206003193601126102625760043560005260076020526020604060002054604051908152f35b600080fd5b7f4e487b7100000000000000000000000000000000000000000000000000000000600052604160045260246000fd5b90601f7fffffffffffffffffffffffffffffffffffffffffffffffffffffffffffffffe0910116810190811067ffffffffffffffff8211176102d757604052565b610267565b6040519060e0820182811067ffffffffffffffff8211176102d757604052565b67ffffffffffffffff81116102d75760051b60200190565b73ffffffffffffffffffffffffffffffffffffffff81160361026257565b81601f8201121561026257803591610349836102fc565b926103576040519485610296565b808452602092838086019260051b820101928311610262578301905b828210610381575050505090565b838091833561038f81610314565b815201910190610373565b34610262576020806003193601126102625760043567ffffffffffffffff8111610262576103cc903690600401610332565b9073ffffffffffffffffffffffffffffffffffffffff918260005416330361049d57805181830192849160051b830181013d1515855b8115610469575b50505060405192818401908285525180915260408401949160005b828110610453577f14a422d2412784a5749d03da98921fe468c98577b767851389a9f58ea5a363d786880387a1005b8351851687529581019592810192600101610424565b90838260018298969499979951600c1b55019083821015610491579150959395949294610402565b50959395949294610409565b60046040517f82b42900000000000000000000000000000000000000000000000000000000008152fd5b34610262576020600319360112610262576004356104e481610314565b600090815473ffffffffffffffffffffffffffffffffffffffff808216330361049d577fffffffffffffffffffffffff0000000000000000000000000000000000000000921691829116178255337f8292fce18fa69edf4db7b94ea2e58241df0ae57f97e0a6c9b29067028bf92d768380a380f35b60031990602082820112610262576004359167ffffffffffffffff8311610262578260a0920301126102625760040190565b346102625761059936610559565b6105a38180611b19565b9050156107e157604081016105d56105d16105bd83611b6a565b63cbc9d1c4600c526000526020600c205490565b1590565b6107b7576b3fffffffffffffffffffffff61060e6105f283611b6a565b339060205263739094b1600c5260005260016034600c20015490565b169161063b606082019361063561062486611b74565b6bffffffffffffffffffffffff1690565b90611bcf565b916a52b7d2dcc80cd2e4000000831161078d5761073561071c61073b926106eb610778957f63d8d7d5e63e9840ec91a12a160d27b7cfab294f6ba070b7359692acfe6b03bf97610689611be6565b60208201358061077d575b506106bd60806106b66106b16106aa8680611b19565b36916118b5565b611ae3565b9301611bdc565b906106c785611b6a565b91605f1b1790339060205263739094b1600c526000526034600c2090600182015555565b61070d6106f782611b6a565b6107036106248a611b74565b9030903390611c21565b6107176001600455565b611b6a565b73ffffffffffffffffffffffffffffffffffffffff1690565b93611b74565b6040805173ffffffffffffffffffffffffffffffffffffffff90951685526bffffffffffffffffffffffff90911660208501523393918291820190565b0390a2005b6107879033612275565b38610694565b60046040517ff3fb0eb9000000000000000000000000000000000000000000000000000000008152fd5b60046040517f1578328e000000000000000000000000000000000000000000000000000000008152fd5b60046040517f6a3bc53e000000000000000000000000000000000000000000000000000000008152fd5b346102625761081936610559565b610821611be6565b6108376108316080830183611d13565b90612092565b61084081611b6a565b9061085b6105d1602083019361085585611b6a565b90612651565b610b8f5761087a61086b82611b6a565b61087484611b6a565b90612617565b6040918281019061089c61088d83611d67565b69ffffffffffffffffffff1690565b8310610b66576108ad600554611bbc565b9460016108c4876000526006602052604060002090565b0154431115610b3d576109aa906108d9611ea2565b9290946109716108fa6108eb87611b6a565b6108f486611b6a565b9061268e565b61091b61071c61091561090f60035443611bcf565b95611d67565b96611b6a565b9061092588611b6a565b9361092e6102dc565b9c8d5260208d01528a8c015261095460608c0195869069ffffffffffffffffffff169052565b73ffffffffffffffffffffffffffffffffffffffff1660808b0152565b73ffffffffffffffffffffffffffffffffffffffff861660a08a015273ffffffffffffffffffffffffffffffffffffffff1660c0890152565b60608301916109b98385611d13565b159050610a24575050610a209592826109e76109fb6109df610a0195610a069997611d13565b929093611b6a565b6374dfee70600c5260005260206000205490565b91611d9b565b61233d565b905b610a126001600455565b519081529081906020820190565b0390f35b925092505069ffffffffffffffffffff9068056bc75e2d6310000082610a54855169ffffffffffffffffffff1690565b1611610a7057505050610a2092610a6a9161233d565b90610a08565b15610a84575050610a2092610a6a9161233d565b610ab5610ab0610aa133600c1b6000526007602052604060002090565b54670de0b6b3a7640000900490565b611e29565b81610ad3610acd855169ffffffffffffffffffff1690565b92611d7e565b911611918215610b1a575b5050610af157610a2092610a6a9161233d565b600482517f1c18f846000000000000000000000000000000000000000000000000000000008152fd5b5169d3c21bcecceda1000000925069ffffffffffffffffffff1616113880610ade565b600485517fd0404f85000000000000000000000000000000000000000000000000000000008152fd5b600484517f22bbb43c000000000000000000000000000000000000000000000000000000008152fd5b60046040517fb2e532de000000000000000000000000000000000000000000000000000000008152fd5b3461026257602060031936011261026257600480356000908152600660209081526040918290208054600182015460028301546003840154968401546005909401548651938452948301919091529381019390935269ffffffffffffffffffff8416606084015273ffffffffffffffffffffffffffffffffffffffff60509490941c84166080840152831660a08301529190911660c082015260e090f35b34610262576020600319360112610262576020610c796004356109e781610314565b604051908152f35b34610262576020600319360112610262576020600435546040519015158152f35b90815180825260208080930193019160005b828110610cc2575050505090565b835185529381019392810192600101610cb4565b90610ce990604083526040830190610ca2565b81810360209283015282518082529082019282019160009190825b828110610d1357505050505090565b90919293948551600480821015610d3857508152820194820193929190600101610d04565b8660216024927f4e487b7100000000000000000000000000000000000000000000000000000000835252fd5b34610262576020806003193601126102625760043567ffffffffffffffff8111610262573660238201121561026257806004013590610da2826102fc565b91610db06040519384610296565b80835260248484019160051b8301019136831161026257602401905b828210610dec57610ddc84612743565b90610a2060405192839283610cd6565b81358152908401908401610dcc565b34610262576020600319360112610262576020600435610e1a81610314565b60405190600c1b8152f35b346102625760206003193601126102625773ffffffffffffffffffffffffffffffffffffffff600435610e5781610314565b166000526001602052602060ff604060002054166040519015158152f35b346102625760206003193601126102625760043573ffffffffffffffffffffffffffffffffffffffff60005416330361049d576020817f70fa43ca70216ad905ade86b9e650a691b2ce5a01980d0a81bdd8324141b851192600355604051908152a1005b3461026257600080600319360112610f595773ffffffffffffffffffffffffffffffffffffffff815416330361049d57478180808084335af115610f4c576040805133815260208101929092527feaff4b37086828766ad3268786972c0cd24259d4c87a80f9d3963a3c3d999b0d91a180f35b63b12d13eb82526004601cfd5b80fd5b34610262576020600319360112610262576020610f7e6004356105bd81610314565b6040519015158152f35b8015150361026257565b3461026257604060031936011261026257600435610faf81610314565b602435610fbb81610f88565b610fdb82339060205263739094b1600c5260005260016034600c20015490565b8015611059578260205263739094b1600c52336000526b3fffffffffffffffffffffff82605f1b91161760016034600c20015573ffffffffffffffffffffffffffffffffffffffff60405192168252151560208201527fca585721b6b442dc9183932f7c84dc2880efb67c4da52cc06873e78971105d4960403392a2005b60046040517f87138d5c000000000000000000000000000000000000000000000000000000008152fd5b34610262576040600319360112610262576100196004356110a381610314565b60243590612275565b6003196040910112610262576004356110c481610314565b906024356110d181610314565b90565b34610262576020610f7e610855366110ac565b3461026257602060031936011261026257602060405173ffffffffffffffffffffffffffffffffffffffff600435600c1c168152f35b3461026257600060031936011261026257602073ffffffffffffffffffffffffffffffffffffffff60005416604051908152f35b34610262576000600319360112610262576020600554604051908152f35b60005b8381106111825750506000910152565b8181015183820152602001611172565b34610262576111a36108f4366110ac565b604051906020820190815260208252604082019180831067ffffffffffffffff8411176102d7577fffffffffffffffffffffffffffffffffffffffffffffffffffffffffffffffe0601f6040938585526020865261120e84518092816060880152608087019061116f565b01168101030190f35b34610262576000600319360112610262576020600354604051908152f35b34610262576020610c796108f4366110ac565b9181601f840112156102625782359167ffffffffffffffff8311610262576020808501948460051b01011161026257565b346102625760206003193601126102625760043567ffffffffffffffff811161026257610831610019913690600401611248565b3461026257600060031936011261026257602073ffffffffffffffffffffffffffffffffffffffff60025416604051908152f35b346102625760a06003193601126102625760043560843560ff811681036102625761130a611be6565b61131e826000526006602052604060002090565b6003810180549169ffffffffffffffffffff83169283156115be57600182018054431161159457846004846114437f364537f14276f2a0ce9905588413f96454cbb8fb2e4f5308389307c1098bede89960006114929661143c6114ac9b611414896113d861140461071c9f6002015460405192839160208301956024359187917fffffffffffffffffffff0000000000000000000000000000000000000000000090604a9492845260b01b166020830152602a8201520190565b037fffffffffffffffffffffffffffffffffffffffffffffffffffffffffffffffe08101835282610296565b5190209560643560443588611f17565b7fffffffffffffffffffffffffffffffffffffffffffff000000000000000000008154169055565b5560019055565b61144b611ea2565b9050156114c7575b019273ffffffffffffffffffffffffffffffffffffffff611488855473ffffffffffffffffffffffffffffffffffffffff1690565b9160501c16612005565b5473ffffffffffffffffffffffffffffffffffffffff1690565b60408051948552602085019290925292a26100196001600455565b8181016114eb61071c825473ffffffffffffffffffffffffffffffffffffffff1690565b33146115715761156a61156261155261154c697fffffffffffffffffff8a60011c169461152533600c1b6000526007602052604060002090565b611530878254611bcf565b90555473ffffffffffffffffffffffffffffffffffffffff1690565b600c1b90565b6000526007602052604060002090565b918254611bcf565b9055611453565b5061158933600c1b6000526007602052604060002090565b61156a848254611bcf565b60046040517ff6fafba0000000000000000000000000000000000000000000000000000000008152fd5b60046040517f63b4904e000000000000000000000000000000000000000000000000000000008152fd5b9060206110d1928181520190610ca2565b346102625760406003193601126102625760043567ffffffffffffffff81116102625761162a903690600401610332565b6024359061163782610314565b600091815191611646836126e0565b935b83811061165d5760405180610a2087826115e8565b8061168a8473ffffffffffffffffffffffffffffffffffffffff6116836001958761272f565b5116612617565b611694828861272f565b5201611648565b9060406003198301126102625767ffffffffffffffff9160043583811161026257816116c991600401610332565b926024359081116102625781602382011215610262578060040135916116ee836102fc565b926116fc6040519485610296565b80845260209260248486019260051b82010192831161026257602401905b828210611728575050505090565b838091833561173681610f88565b81520191019061171a565b346102625761174f3661169b565b60009073ffffffffffffffffffffffffffffffffffffffff825416330361049d5782519081156117ee57805182036117e15790602084818080970194019260051b0101915b82810361179f578380f35b8480916001825280518652835180604088205581517fbee55516e29d3969d3cb8eb01351eb3c52d06f9e2435bd5a8bfe3647e185df928880a301910190611794565b63ff633a3883526004601cfd5bfe5b34610262576020610c79610874366110ac565b34610262576118113661169b565b60009073ffffffffffffffffffffffffffffffffffffffff825416330361049d5782519081156118a857805182036117e15790602084818080970194019260051b0101915b828103611861578380f35b84809181600c63cbc9d1c48152825188528551918291205581517f5d6e86e5341d57a92c49934296c51542a25015c9b1782a1c2722a940131c3d9a8880a301910190611856565b63df95788383526004601cfd5b92919267ffffffffffffffff82116102d757604051916118fd60207fffffffffffffffffffffffffffffffffffffffffffffffffffffffffffffffe0601f8401160184610296565b829481845281830111610262578281602093846000960137010152565b346102625760206003193601126102625760043567ffffffffffffffff8111610262573660238201121561026257610c796106b160209236906024816004013591016118b5565b346102625760206003193601126102625760043561197e81610314565b73ffffffffffffffffffffffffffffffffffffffff8060005416330361049d57816020917fe127cf589a3879da0156d4a24f43b44f65cfa3570de594806b0bfa2fcf06884f9360025560405191168152a1005b34610262576060600319360112610262576004356119ee81610314565b60243560443567ffffffffffffffff8111610262577f2cd6435b1b961c13f55202979edd0765a809f69a539d8a477436c94c1211e43e91611a47611a39611acb933690600401611248565b90611a42611be6565b612092565b611a518433612651565b611ad5575b611a8f3385836b3fffffffffffffffffffffff611a8983339060205263739094b1600c5260005260016034600c20015490565b166125db565b611a9a813386612005565b6040805173ffffffffffffffffffffffffffffffffffffffff95909516855260208501919091523393918291820190565b0390a26001600455005b611ade84611c7a565b611a56565b604051611b0d60208281611b00818301968781519384920161116f565b8101038084520182610296565b516020106117ee575190565b9035907fffffffffffffffffffffffffffffffffffffffffffffffffffffffffffffffe181360301821215610262570180359067ffffffffffffffff82116102625760200191813603831361026257565b356110d181610314565b356bffffffffffffffffffffffff811681036102625790565b7f4e487b7100000000000000000000000000000000000000000000000000000000600052601160045260246000fd5b9060018201809211611bca57565b611b8d565b91908201809211611bca57565b356110d181610f88565b600260045414611bf7576002600455565b60046040517fab143c06000000000000000000000000000000000000000000000000000000008152fd5b601c600060649281946020966040519860605260405260601b602c526f23b872dd000000000000000000000000600c525af13d15600160005114171615611c6c576000606052604052565b637939f4246000526004601cfd5b611c9a81339060205263739094b1600c5260005260016034600c20015490565b8015611059576b3fffffffffffffffffffffff908260205263739094b1600c52336000521660016034600c20015573ffffffffffffffffffffffffffffffffffffffff60405191168152600060208201527fca585721b6b442dc9183932f7c84dc2880efb67c4da52cc06873e78971105d4960403392a2565b9035907fffffffffffffffffffffffffffffffffffffffffffffffffffffffffffffffe181360301821215610262570180359067ffffffffffffffff821161026257602001918160051b3603831361026257565b3569ffffffffffffffffffff811681036102625790565b90670de0b6b3a764000091828102928184041490151715611bca57565b73ffffffffffffffffffffffffffffffffffffffff8293941692611ded575b505003611dc357565b60046040517f3b8474be000000000000000000000000000000000000000000000000000000008152fd5b60059291831b8101915b8135808211851b918252602080921852604060002091019282841015611e1e579290611df7565b509150503880611dba565b6040519060208201907f4d2b1791000000000000000000000000000000000000000000000000000000008252602483015260248252606082019082821067ffffffffffffffff8311176102d7576020926000926040525190600254617530fa906000519115611e9457565b63e10bf1cc6000526004601cfd5b611eaa611ed0565b90600073ffffffffffffffffffffffffffffffffffffffff831633146110d15750600190565b33600052600160205260ff60406000205416600014611f13577fffffffffffffffffffffffffffffffffffffffffffffffffffffffffffffffec36013560601c90565b3390565b918254611fdb5760806020927f7fffffffffffffffffffffffffffffff5d576e7357a4501ddfe92f46681b20a1948452600094859384927b19457468657265756d205369676e6564204d6573736167653a0a3332845260ff603c600420996040519a865216875260405280606052105afa508051903d15611fce576060526040829052600c1b5415611fa65750565b807f815e1d640000000000000000000000000000000000000000000000000000000060049252fd5b638baa579f90526004601cfd5b60046040517ff490a6ea000000000000000000000000000000000000000000000000000000008152fd5b60109260209260145260345260446000938480936fa9059cbb00000000000000000000000082525af13d15600183511417161561204157603452565b6390b8ec1890526004601cfd5b7f4e487b7100000000000000000000000000000000000000000000000000000000600052603260045260246000fd5b919081101561208d5760051b0190565b61204e565b6000905b8282106120b35750106120a557565b63dfb035c96000526004601cfd5b906120d36120c282858561207d565b356000526006602052604060002090565b906120dd826122c4565b600582015473ffffffffffffffffffffffffffffffffffffffff166003830180549173ffffffffffffffffffffffffffffffffffffffff92838160501c16956a52b7d2dcc80cd2e400000061216d69ffffffffffffffffffff6b3fffffffffffffffffffffff6121638b889060205263739094b1600c5260005260016034600c20015490565b1694168094611bcf565b1161078d576121c37f830501e61b8b075e170b22a430e39454bdb12ed3e9620e586430b6ac00079da59461141460049460019a612239979060205263739094b1600c5260005260016034600c2001908154019055565b016121e561154c825473ffffffffffffffffffffffffffffffffffffffff1690565b6122036121fc826000526007602052604060002090565b5460011c90565b68056bc75e2d63100000811161225a575061222b611492916000526007602052604060002090565b68056bc75e2d631000009055565b9161224584888861207d565b60405190358152921691602090a20190612096565b9061226f906000526007602052604060002090565b55611492565b3381036122b6576374dfee70600c5280600052816020600020557f0b294da292f26e55fd442b5c0164fbb9013036ff00c5cfdde0efd01c1baaf632600080a3565b6385d1f7266000526004601cfd5b600181015443106122e6576003015469ffffffffffffffffffff16156115be57565b60046040517fd0404f85000000000000000000000000000000000000000000000000000000008152fd5b7fffffffffffffffffffffffffffffffffffffffffffffffffffffffffffffffff8114611bca5760010190565b612472907fa8fb61052fec8ed6ed923dd5e14b7d6aaae41d44c8870fc4efebf871389a577d61256d94938051600052600660205260406000208151815560208201516001820155604082015160028201556125d6612599612588600384019461253c6005606083019969ffffffffffffffffffff8b5116807fffffffffffffffffffffffffffffffffffffffffffff000000000000000000008b5416178a5561244f612400608087015173ffffffffffffffffffffffffffffffffffffffff1690565b8b547fffff0000000000000000000000000000000000000000ffffffffffffffffffff16605082901b7dffffffffffffffffffffffffffffffffffffffff000000000000000000001617909b55565b6124b660a086019d8e5173ffffffffffffffffffffffffffffffffffffffff1690565b60048b019073ffffffffffffffffffffffffffffffffffffffff167fffffffffffffffffffffffff0000000000000000000000000000000000000000825416179055565b61251e60c08601996124dc8b5173ffffffffffffffffffffffffffffffffffffffff1690565b940180547fffffffffffffffffffffffff00000000000000000000000000000000000000001673ffffffffffffffffffffffffffffffffffffffff8616179055565b73ffffffffffffffffffffffffffffffffffffffff809a16916125db565b61254f61254a600554612310565b600555565b51998a985173ffffffffffffffffffffffffffffffffffffffff1690565b935173ffffffffffffffffffffffffffffffffffffffff1690565b955169ffffffffffffffffffff1690565b60405193849316958390929169ffffffffffffffffffff60209173ffffffffffffffffffffffffffffffffffffffff604085019616845216910152565b0390a3565b9291909280848103119015176126095760205263739094b1600c5260005260016034600c2001908154039055565b63ce3a3d376000526004601cfd5b600092913d15612625575050565b9091925060205263739094b1600c5260005260016034600c2001546b3fffffffffffffffffffffff1690565b600092913d1561265f575050565b9091925060205263739094b1600c5260005260016034600c200154605f1c6b3fffffffffffffffffffffff1690565b600092913d1561269c575050565b9091925060205263739094b1600c526000526034600c205490565b6040516020810181811067ffffffffffffffff8211176102d75760405260008152906000368137565b906126ea826102fc565b6126f76040519182610296565b8281527fffffffffffffffffffffffffffffffffffffffffffffffffffffffffffffffe061272582946102fc565b0190602036910137565b805182101561208d5760209160051b010190565b908151156128bb576000918281519061275b826126e0565b92612765836126e0565b955b83811061277657505050509190565b6127b761071c600561279c61278b858761272f565b516000526006602052604060002090565b015473ffffffffffffffffffffffffffffffffffffffff1690565b6127e957806127c86001928461272f565b516127d3828861272f565b52836127df828a61272f565b5201925b92612767565b69ffffffffffffffffffff612817600361280661278b858761272f565b015469ffffffffffffffffffff1690565b1661284f57806128296001928461272f565b51612834828861272f565b52612848612842828a61272f565b60039052565b01926127e3565b6001908161286061278b838661272f565b015443111561289257612873818461272f565b5161287e828861272f565b5261284861288c828a61272f565b60029052565b61289c818461272f565b516128a7828861272f565b526128486128b5828a61272f565b60019052565b90506128c56126b7565b906110d16126b756fea2646970667358221220ed724ed47bcdef6140dc4a66d86c43ecffa97e169222a98775625d6852ec98f964736f6c63430008130033",
  "linkReferences": {},
  "deployedLinkReferences": {}
}