{
  "_format": "hh-sol-artifact-1",
  "contractName": "P2PIX",
  "sourceName": "contracts/p2pix.sol",
  "abi": [
    {
      "inputs": [
        {
          "internalType": "uint256",
          "name": "defaultBlocks",
          "type": "uint256"
        },
        {
          "internalType": "address[]",
          "name": "validSigners",
          "type": "address[]"
        },
        {
          "internalType": "contract IReputation",
          "name": "_reputation",
          "type": "address"
        },
        {
          "internalType": "address[]",
          "name": "tokens",
          "type": "address[]"
        },
        {
          "internalType": "bool[]",
          "name": "tokenStates",
          "type": "bool[]"
        }
      ],
      "stateMutability": "payable",
      "type": "constructor"
    },
    {
      "inputs": [],
      "name": "AddressDenied",
      "type": "error"
    },
    {
      "inputs": [],
      "name": "AlreadyReleased",
      "type": "error"
    },
    {
      "inputs": [],
      "name": "AmountNotAllowed",
      "type": "error"
    },
    {
      "inputs": [],
      "name": "DecOverflow",
      "type": "error"
    },
    {
      "inputs": [],
      "name": "DepositAlreadyExists",
      "type": "error"
    },
    {
      "inputs": [],
      "name": "EmptyPixTarget",
      "type": "error"
    },
    {
      "inputs": [],
      "name": "InvalidDeposit",
      "type": "error"
    },
    {
      "inputs": [],
      "name": "InvalidSigner",
      "type": "error"
    },
    {
      "inputs": [],
      "name": "LengthMismatch",
      "type": "error"
    },
    {
      "inputs": [],
      "name": "LockExpired",
      "type": "error"
    },
    {
      "inputs": [],
      "name": "LoopOverflow",
      "type": "error"
    },
    {
      "inputs": [],
      "name": "MaxBalExceeded",
      "type": "error"
    },
    {
      "inputs": [],
      "name": "NoTokens",
      "type": "error"
    },
    {
      "inputs": [],
      "name": "NotEnoughTokens",
      "type": "error"
    },
    {
      "inputs": [],
      "name": "NotExpired",
      "type": "error"
    },
    {
      "inputs": [],
      "name": "NotInitialized",
      "type": "error"
    },
    {
      "inputs": [],
      "name": "OnlySeller",
      "type": "error"
    },
    {
      "inputs": [],
      "name": "Reentrancy",
      "type": "error"
    },
    {
      "inputs": [],
      "name": "StaticCallFailed",
      "type": "error"
    },
    {
      "inputs": [],
      "name": "TokenDenied",
      "type": "error"
    },
    {
      "inputs": [],
      "name": "TxAlreadyUsed",
      "type": "error"
    },
    {
      "anonymous": false,
      "inputs": [
        {
          "indexed": true,
          "internalType": "address",
          "name": "token",
          "type": "address"
        },
        {
          "indexed": true,
          "internalType": "bool",
          "name": "state",
          "type": "bool"
        }
      ],
      "name": "AllowedERC20Updated",
      "type": "event"
    },
    {
      "anonymous": false,
      "inputs": [
        {
          "indexed": true,
          "internalType": "address",
          "name": "seller",
          "type": "address"
        },
        {
          "indexed": false,
          "internalType": "address",
          "name": "token",
          "type": "address"
        },
        {
          "indexed": false,
          "internalType": "uint256",
          "name": "amount",
          "type": "uint256"
        }
      ],
      "name": "DepositAdded",
      "type": "event"
    },
    {
      "anonymous": false,
      "inputs": [
        {
          "indexed": true,
          "internalType": "address",
          "name": "seller",
          "type": "address"
        },
        {
          "indexed": false,
          "internalType": "address",
          "name": "token",
          "type": "address"
        },
        {
          "indexed": false,
          "internalType": "uint256",
          "name": "amount",
          "type": "uint256"
        }
      ],
      "name": "DepositWithdrawn",
      "type": "event"
    },
    {
      "anonymous": false,
      "inputs": [
        {
          "indexed": false,
          "internalType": "address",
          "name": "owner",
          "type": "address"
        },
        {
          "indexed": false,
          "internalType": "uint256",
          "name": "amount",
          "type": "uint256"
        }
      ],
      "name": "FundsWithdrawn",
      "type": "event"
    },
    {
      "anonymous": false,
      "inputs": [
        {
          "indexed": true,
          "internalType": "address",
          "name": "buyer",
          "type": "address"
        },
        {
          "indexed": true,
          "internalType": "bytes32",
          "name": "lockID",
          "type": "bytes32"
        },
        {
          "indexed": false,
          "internalType": "uint256",
          "name": "seller",
          "type": "uint256"
        },
        {
          "indexed": false,
          "internalType": "uint256",
          "name": "amount",
          "type": "uint256"
        }
      ],
      "name": "LockAdded",
      "type": "event"
    },
    {
      "anonymous": false,
      "inputs": [
        {
          "indexed": false,
          "internalType": "uint256",
          "name": "blocks",
          "type": "uint256"
        }
      ],
      "name": "LockBlocksUpdated",
      "type": "event"
    },
    {
      "anonymous": false,
      "inputs": [
        {
          "indexed": true,
          "internalType": "address",
          "name": "buyer",
          "type": "address"
        },
        {
          "indexed": false,
          "internalType": "bytes32",
          "name": "lockId",
          "type": "bytes32"
        },
        {
          "indexed": false,
          "internalType": "uint256",
          "name": "amount",
          "type": "uint256"
        }
      ],
      "name": "LockReleased",
      "type": "event"
    },
    {
      "anonymous": false,
      "inputs": [
        {
          "indexed": true,
          "internalType": "address",
          "name": "buyer",
          "type": "address"
        },
        {
          "indexed": false,
          "internalType": "bytes32",
          "name": "lockId",
          "type": "bytes32"
        }
      ],
      "name": "LockReturned",
      "type": "event"
    },
    {
      "anonymous": false,
      "inputs": [
        {
          "indexed": true,
          "internalType": "address",
          "name": "user",
          "type": "address"
        },
        {
          "indexed": true,
          "internalType": "address",
          "name": "newOwner",
          "type": "address"
        }
      ],
      "name": "OwnerUpdated",
      "type": "event"
    },
    {
      "anonymous": false,
      "inputs": [
        {
          "indexed": false,
          "internalType": "address",
          "name": "reputation",
          "type": "address"
        }
      ],
      "name": "ReputationUpdated",
      "type": "event"
    },
    {
      "anonymous": false,
      "inputs": [
        {
          "indexed": false,
          "internalType": "address",
          "name": "seller",
          "type": "address"
        },
        {
          "indexed": false,
          "internalType": "bytes32",
          "name": "merkleRoot",
          "type": "bytes32"
        }
      ],
      "name": "RootUpdated",
      "type": "event"
    },
    {
      "anonymous": false,
      "inputs": [
        {
          "indexed": true,
          "internalType": "address",
          "name": "seller",
          "type": "address"
        },
        {
          "indexed": false,
          "internalType": "address",
          "name": "token",
          "type": "address"
        },
        {
          "indexed": false,
          "internalType": "bool",
          "name": "state",
          "type": "bool"
        }
      ],
      "name": "ValidSet",
      "type": "event"
    },
    {
      "anonymous": false,
      "inputs": [
        {
          "indexed": false,
          "internalType": "address[]",
          "name": "signers",
          "type": "address[]"
        }
      ],
      "name": "ValidSignersUpdated",
      "type": "event"
    },
    {
      "inputs": [],
      "name": "WAD",
      "outputs": [
        {
          "internalType": "uint256",
          "name": "",
          "type": "uint256"
        }
      ],
      "stateMutability": "view",
      "type": "function"
    },
    {
      "inputs": [
        {
          "internalType": "address",
          "name": "_addr",
          "type": "address"
        }
      ],
      "name": "_castAddrToKey",
      "outputs": [
        {
          "internalType": "uint256",
          "name": "_key",
          "type": "uint256"
        }
      ],
      "stateMutability": "pure",
      "type": "function"
    },
    {
      "inputs": [
        {
          "internalType": "uint256",
          "name": "_key",
          "type": "uint256"
        }
      ],
      "name": "_castKeyToAddr",
      "outputs": [
        {
          "internalType": "address",
          "name": "_addr",
          "type": "address"
        }
      ],
      "stateMutability": "pure",
      "type": "function"
    },
    {
      "inputs": [
        {
          "internalType": "contract ERC20",
          "name": "",
          "type": "address"
        }
      ],
      "name": "allowedERC20s",
      "outputs": [
        {
          "internalType": "bool",
          "name": "",
          "type": "bool"
        }
      ],
      "stateMutability": "view",
      "type": "function"
    },
    {
      "inputs": [],
      "name": "defaultLockBlocks",
      "outputs": [
        {
          "internalType": "uint256",
          "name": "",
          "type": "uint256"
        }
      ],
      "stateMutability": "view",
      "type": "function"
    },
    {
      "inputs": [
        {
          "internalType": "address",
          "name": "_token",
          "type": "address"
        },
        {
          "internalType": "uint96",
          "name": "_amount",
          "type": "uint96"
        },
        {
          "internalType": "uint160",
          "name": "_pixTarget",
          "type": "uint160"
        },
        {
          "internalType": "bool",
          "name": "_valid",
          "type": "bool"
        },
        {
          "internalType": "bytes32",
          "name": "allowlistRoot",
          "type": "bytes32"
        }
      ],
      "name": "deposit",
      "outputs": [],
      "stateMutability": "nonpayable",
      "type": "function"
    },
    {
      "inputs": [
        {
          "internalType": "address",
          "name": "seller",
          "type": "address"
        },
        {
          "internalType": "contract ERC20",
          "name": "token",
          "type": "address"
        }
      ],
      "name": "getBalance",
      "outputs": [
        {
          "internalType": "uint256",
          "name": "bal",
          "type": "uint256"
        }
      ],
      "stateMutability": "view",
      "type": "function"
    },
    {
      "inputs": [
        {
          "internalType": "address",
          "name": "seller",
          "type": "address"
        },
        {
          "internalType": "contract ERC20",
          "name": "token",
          "type": "address"
        }
      ],
      "name": "getPixTarget",
      "outputs": [
        {
          "internalType": "uint160",
          "name": "pixTarget",
          "type": "uint160"
        }
      ],
      "stateMutability": "view",
      "type": "function"
    },
    {
      "inputs": [
        {
          "internalType": "address",
          "name": "seller",
          "type": "address"
        },
        {
          "internalType": "contract ERC20",
          "name": "token",
          "type": "address"
        }
      ],
      "name": "getValid",
      "outputs": [
        {
          "internalType": "bool",
          "name": "valid",
          "type": "bool"
        }
      ],
      "stateMutability": "view",
      "type": "function"
    },
    {
      "inputs": [
        {
          "internalType": "address",
          "name": "_seller",
          "type": "address"
        },
        {
          "internalType": "address",
          "name": "_token",
          "type": "address"
        },
        {
          "internalType": "address",
          "name": "_buyerAddress",
          "type": "address"
        },
        {
          "internalType": "address",
          "name": "_relayerTarget",
          "type": "address"
        },
        {
          "internalType": "uint256",
          "name": "_relayerPremium",
          "type": "uint256"
        },
        {
          "internalType": "uint256",
          "name": "_amount",
          "type": "uint256"
        },
        {
          "internalType": "bytes32[]",
          "name": "merkleProof",
          "type": "bytes32[]"
        },
        {
          "internalType": "bytes32[]",
          "name": "expiredLocks",
          "type": "bytes32[]"
        }
      ],
      "name": "lock",
      "outputs": [
        {
          "internalType": "bytes32",
          "name": "lockID",
          "type": "bytes32"
        }
      ],
      "stateMutability": "nonpayable",
      "type": "function"
    },
    {
      "inputs": [],
      "name": "lockCounter",
      "outputs": [
        {
          "internalType": "uint256",
          "name": "",
          "type": "uint256"
        }
      ],
      "stateMutability": "view",
      "type": "function"
    },
    {
      "inputs": [
        {
          "internalType": "bytes32",
          "name": "",
          "type": "bytes32"
        }
      ],
      "name": "mapLocks",
      "outputs": [
        {
          "internalType": "uint256",
          "name": "sellerKey",
          "type": "uint256"
        },
        {
          "internalType": "uint256",
          "name": "counter",
          "type": "uint256"
        },
        {
          "internalType": "uint256",
          "name": "relayerPremium",
          "type": "uint256"
        },
        {
          "internalType": "uint256",
          "name": "amount",
          "type": "uint256"
        },
        {
          "internalType": "uint256",
          "name": "expirationBlock",
          "type": "uint256"
        },
        {
          "internalType": "uint160",
          "name": "pixTarget",
          "type": "uint160"
        },
        {
          "internalType": "address",
          "name": "buyerAddress",
          "type": "address"
        },
        {
          "internalType": "address",
          "name": "relayerTarget",
          "type": "address"
        },
        {
          "internalType": "address",
          "name": "relayerAddress",
          "type": "address"
        },
        {
          "internalType": "address",
          "name": "token",
          "type": "address"
        }
      ],
      "stateMutability": "view",
      "type": "function"
    },
    {
      "inputs": [],
      "name": "owner",
      "outputs": [
        {
          "internalType": "address",
          "name": "",
          "type": "address"
        }
      ],
      "stateMutability": "view",
      "type": "function"
    },
    {
      "inputs": [
        {
          "internalType": "bytes32",
          "name": "lockID",
          "type": "bytes32"
        },
        {
          "internalType": "address",
          "name": "_relayerTarget",
          "type": "address"
        },
        {
          "internalType": "bytes32",
          "name": "pixTimestamp",
          "type": "bytes32"
        },
        {
          "internalType": "bytes32",
          "name": "r",
          "type": "bytes32"
        },
        {
          "internalType": "bytes32",
          "name": "s",
          "type": "bytes32"
        },
        {
          "internalType": "uint8",
          "name": "v",
          "type": "uint8"
        }
      ],
      "name": "release",
      "outputs": [],
      "stateMutability": "nonpayable",
      "type": "function"
    },
    {
      "inputs": [],
      "name": "reputation",
      "outputs": [
        {
          "internalType": "contract IReputation",
          "name": "",
          "type": "address"
        }
      ],
      "stateMutability": "view",
      "type": "function"
    },
    {
      "inputs": [
        {
          "internalType": "uint256",
          "name": "",
          "type": "uint256"
        }
      ],
      "name": "sellerAllowList",
      "outputs": [
        {
          "internalType": "bytes32",
          "name": "",
          "type": "bytes32"
        }
      ],
      "stateMutability": "view",
      "type": "function"
    },
    {
      "inputs": [
        {
          "internalType": "uint256",
          "name": "",
          "type": "uint256"
        },
        {
          "internalType": "contract ERC20",
          "name": "",
          "type": "address"
        }
      ],
      "name": "sellerBalance",
      "outputs": [
        {
          "internalType": "uint256",
          "name": "",
          "type": "uint256"
        }
      ],
      "stateMutability": "view",
      "type": "function"
    },
    {
      "inputs": [
        {
          "internalType": "uint256",
          "name": "_blocks",
          "type": "uint256"
        }
      ],
      "name": "setDefaultLockBlocks",
      "outputs": [],
      "stateMutability": "nonpayable",
      "type": "function"
    },
    {
      "inputs": [
        {
          "internalType": "address",
          "name": "newOwner",
          "type": "address"
        }
      ],
      "name": "setOwner",
      "outputs": [],
      "stateMutability": "nonpayable",
      "type": "function"
    },
    {
      "inputs": [
        {
          "internalType": "contract IReputation",
          "name": "_reputation",
          "type": "address"
        }
      ],
      "name": "setReputation",
      "outputs": [],
      "stateMutability": "nonpayable",
      "type": "function"
    },
    {
      "inputs": [
        {
          "internalType": "address",
          "name": "addr",
          "type": "address"
        },
        {
          "internalType": "bytes32",
          "name": "merkleroot",
          "type": "bytes32"
        }
      ],
      "name": "setRoot",
      "outputs": [],
      "stateMutability": "nonpayable",
      "type": "function"
    },
    {
      "inputs": [
        {
          "internalType": "address[]",
          "name": "_validSigners",
          "type": "address[]"
        }
      ],
      "name": "setValidSigners",
      "outputs": [],
      "stateMutability": "nonpayable",
      "type": "function"
    },
    {
      "inputs": [
        {
          "internalType": "contract ERC20",
          "name": "token",
          "type": "address"
        },
        {
          "internalType": "bool",
          "name": "state",
          "type": "bool"
        }
      ],
      "name": "setValidState",
      "outputs": [],
      "stateMutability": "nonpayable",
      "type": "function"
    },
    {
      "inputs": [
        {
          "internalType": "address[]",
          "name": "_tokens",
          "type": "address[]"
        },
        {
          "internalType": "bool[]",
          "name": "_states",
          "type": "bool[]"
        }
      ],
      "name": "tokenSettings",
      "outputs": [],
      "stateMutability": "nonpayable",
      "type": "function"
    },
    {
      "inputs": [
        {
          "internalType": "bytes32[]",
          "name": "lockIDs",
          "type": "bytes32[]"
        }
      ],
      "name": "unlockExpired",
      "outputs": [],
      "stateMutability": "nonpayable",
      "type": "function"
    },
    {
      "inputs": [
        {
          "internalType": "bytes32",
          "name": "",
          "type": "bytes32"
        }
      ],
      "name": "usedTransactions",
      "outputs": [
        {
          "internalType": "bool",
          "name": "",
          "type": "bool"
        }
      ],
      "stateMutability": "view",
      "type": "function"
    },
    {
      "inputs": [
        {
          "internalType": "uint256",
          "name": "",
          "type": "uint256"
        }
      ],
      "name": "userRecord",
      "outputs": [
        {
          "internalType": "uint256",
          "name": "",
          "type": "uint256"
        }
      ],
      "stateMutability": "view",
      "type": "function"
    },
    {
      "inputs": [
        {
          "internalType": "uint256",
          "name": "",
          "type": "uint256"
        }
      ],
      "name": "validBacenSigners",
      "outputs": [
        {
          "internalType": "bool",
          "name": "",
          "type": "bool"
        }
      ],
      "stateMutability": "view",
      "type": "function"
    },
    {
      "inputs": [
        {
          "internalType": "contract ERC20",
          "name": "token",
          "type": "address"
        },
        {
          "internalType": "bytes32[]",
          "name": "expiredLocks",
          "type": "bytes32[]"
        }
      ],
      "name": "withdraw",
      "outputs": [
        {
          "internalType": "uint256",
          "name": "_sellerBalance",
          "type": "uint256"
        }
      ],
      "stateMutability": "nonpayable",
      "type": "function"
    },
    {
      "inputs": [],
      "name": "withdrawBalance",
      "outputs": [],
      "stateMutability": "nonpayable",
      "type": "function"
    },
    {
      "stateMutability": "payable",
      "type": "receive"
    }
  ],
  "bytecode": "0x60806040526001805560405162002aa438038062002aa48339810160408190526200002a916200049d565b600080546001600160a01b031916339081178255604051909182917f8292fce18fa69edf4db7b94ea2e58241df0ae57f97e0a6c9b29067028bf92d76908290a3506200007685620000a3565b620000818362000133565b6200008c84620001bd565b620000988282620002a1565b505050505062000620565b6000546001600160a01b03163314620000f25760405162461bcd60e51b815260206004820152600c60248201526b15539055551213d49256915160a21b60448201526064015b60405180910390fd5b806003557f70fa43ca70216ad905ade86b9e650a691b2ce5a01980d0a81bdd8324141b8511816040516200012891815260200190565b60405180910390a150565b6000546001600160a01b031633146200017e5760405162461bcd60e51b815260206004820152600c60248201526b15539055551213d49256915160a21b6044820152606401620000e9565b60028190556040516001600160a01b03821681527fe127cf589a3879da0156d4a24f43b44f65cfa3570de594806b0bfa2fcf06884f9060200162000128565b6000546001600160a01b03163314620002085760405162461bcd60e51b815260206004820152600c60248201526b15539055551213d49256915160a21b6044820152606401620000e9565b80516000905b808210156200026e57600062000246848481518110620002325762000232620005bb565b60200260200101516200038760201b60201c565b6000908152600860205260409020805460ff191660019081179091559290920191506200020e565b50507f14a422d2412784a5749d03da98921fe468c98577b767851389a9f58ea5a363d781604051620001289190620005d1565b6000546001600160a01b03163314620002ec5760405162461bcd60e51b815260206004820152600c60248201526b15539055551213d49256915160a21b6044820152606401620000e9565b815180620003025763df9578836000526004601cfd5b81518114620003195763ff633a386000526004601cfd5b60208301602083018260051b82015b8083146200037f578251600052600a60205260406000208251815550815183517f5d6e86e5341d57a92c49934296c51542a25015c9b1782a1c2722a940131c3d9a600080a360208301925060208201915062000328565b505050505050565b600c1b611000600160ac1b031690565b634e487b7160e01b600052604160045260246000fd5b604051601f8201601f191681016001600160401b0381118282101715620003d857620003d862000397565b604052919050565b60006001600160401b03821115620003fc57620003fc62000397565b5060051b60200190565b6001600160a01b03811681146200041c57600080fd5b50565b600082601f8301126200043157600080fd5b815160206200044a6200044483620003e0565b620003ad565b82815260059290921b840181019181810190868411156200046a57600080fd5b8286015b8481101562000492578051620004848162000406565b83529183019183016200046e565b509695505050505050565b600080600080600060a08688031215620004b657600080fd5b8551602080880151919650906001600160401b0380821115620004d857600080fd5b620004e68a838b016200041f565b965060408901519150620004fa8262000406565b6060890151919550808211156200051057600080fd5b6200051e8a838b016200041f565b945060808901519150808211156200053557600080fd5b508701601f810189136200054857600080fd5b8051620005596200044482620003e0565b81815260059190911b8201830190838101908b8311156200057957600080fd5b928401925b82841015620005a95783518015158114620005995760008081fd5b825292840192908401906200057e565b80955050505050509295509295909350565b634e487b7160e01b600052603260045260246000fd5b6020808252825182820181905260009190848201906040850190845b81811015620006145783516001600160a01b031683529284019291840191600101620005ed565b50909695505050505050565b61247480620006306000396000f3fe6080604052600436106101d15760003560e01c80637f94f65d116100f75780639872dbfe11610095578063c52164c611610064578063c52164c6146106cc578063d4fac45d146106ec578063d6e8b9731461074b578063f7d0e04b1461076b57600080fd5b80639872dbfe146105fa57806398a26871146106105780639eee8d4b14610640578063ad8f2eed1461067857600080fd5b806385313e73116100d157806385313e73146105845780638da5cb5b146105a45780638db564c2146105c45780638e2749d6146105da57600080fd5b80637f94f65d146104d757806380e1d302146104f757806384ab1d281461054b57600080fd5b80634b2ae9801161016f5780636a1460241161013e5780636a1460241461044e5780636d82d9e01461046a578063758d77d41461048a57806377cd38a4146104aa57600080fd5b80634b2ae980146103be578063574983c8146103e95780635fd8c7101461040957806369cc6af41461041e57600080fd5b806316d72240116101ab57806316d722401461025f5780632b9f00e91461033e578063328a71811461035e578063461f31201461037e57600080fd5b806304937320146101dd5780630d2a2d441461021d57806313af40351461023f57600080fd5b366101d857005b600080fd5b3480156101e957600080fd5b5061020a6101f8366004611ddb565b60076020526000908152604090205481565b6040519081526020015b60405180910390f35b34801561022957600080fd5b5061023d610238366004611ee8565b61078b565b005b34801561024b57600080fd5b5061023d61025a366004611f25565b61087c565b34801561026b57600080fd5b506102df61027a366004611ddb565b600560208190526000918252604090912080546001820154600283015460038401546004850154958501546006860154600787015460088801546009909801549698959794969395946001600160a01b0393841694928416939182169290821691168a565b604080519a8b5260208b019990995297890196909652606088019490945260808701929092526001600160a01b0390811660a087015290811660c086015290811660e08501529081166101008401521661012082015261014001610214565b34801561034a57600080fd5b5061020a610359366004611f8e565b61091d565b34801561036a57600080fd5b5061023d610379366004612074565b610c90565b34801561038a57600080fd5b506103ae610399366004611ddb565b60096020526000908152604090205460ff1681565b6040519015158152602001610214565b3480156103ca57600080fd5b5061020a6103d9366004611f25565b600c1b611000600160ac1b031690565b3480156103f557600080fd5b5061023d610404366004611ddb565b610e4f565b34801561041557600080fd5b5061023d610ecd565b34801561042a57600080fd5b506103ae610439366004611f25565b600a6020526000908152604090205460ff1681565b34801561045a57600080fd5b5061020a670de0b6b3a764000081565b34801561047657600080fd5b5061023d6104853660046120e7565b610f57565b34801561049657600080fd5b5061023d6104a536600461211c565b611045565b3480156104b657600080fd5b5061020a6104c5366004611ddb565b60066020526000908152604090205481565b3480156104e357600080fd5b5061023d6104f2366004612180565b611429565b34801561050357600080fd5b506103ae6105123660046121ac565b600c9190911b611000600160ac1b03166000908152600b602090815260408083206001600160a01b039094168352929052205460ff1c90565b34801561055757600080fd5b5061056c610566366004611ddb565b600c1c90565b6040516001600160a01b039091168152602001610214565b34801561059057600080fd5b5061020a61059f3660046121e5565b6114bc565b3480156105b057600080fd5b5060005461056c906001600160a01b031681565b3480156105d057600080fd5b5061020a60045481565b3480156105e657600080fd5b5061023d6105f536600461223a565b6115ee565b34801561060657600080fd5b5061020a60035481565b34801561061c57600080fd5b506103ae61062b366004611ddb565b60086020526000908152604090205460ff1681565b34801561064c57600080fd5b5061020a61065b36600461227c565b600b60209081526000928352604080842090915290825290205481565b34801561068457600080fd5b5061056c6106933660046121ac565b600c9190911b611000600160ac1b03166000908152600b602090815260408083206001600160a01b0390941683529290522054605f1c90565b3480156106d857600080fd5b5060025461056c906001600160a01b031681565b3480156106f857600080fd5b5061020a6107073660046121ac565b600c9190911b611000600160ac1b03166000908152600b602090815260408083206001600160a01b03909416835292905220546b3fffffffffffffffffffffff1690565b34801561075757600080fd5b5061023d6107663660046122a1565b6117de565b34801561077757600080fd5b5061023d610786366004611f25565b6118b6565b6000546001600160a01b031633146107d95760405162461bcd60e51b815260206004820152600c60248201526b15539055551213d49256915160a21b60448201526064015b60405180910390fd5b80516000905b808210156108405760006108198484815181106107fe576107fe612363565b6020026020010151611000600160ac1b03600c9190911b1690565b6000908152600860205260409020805460ff191660019081179091559290920191506107df565b50507f14a422d2412784a5749d03da98921fe468c98577b767851389a9f58ea5a363d7816040516108719190612379565b60405180910390a150565b6000546001600160a01b031633146108c55760405162461bcd60e51b815260206004820152600c60248201526b15539055551213d49256915160a21b60448201526064016107d0565b6000805473ffffffffffffffffffffffffffffffffffffffff19166001600160a01b0383169081178255604051909133917f8292fce18fa69edf4db7b94ea2e58241df0ae57f97e0a6c9b29067028bf92d769190a350565b600061092761193d565b61093183836115ee565b600c8b901b611000600160ac1b03166000908152600b602090815260408083206001600160a01b038e1684529091529020548a9060ff1c61098557604051635972996f60e11b815260040160405180910390fd5b611000600160ac1b03600c8d901b166000908152600b602090815260408083206001600160a01b03851684529091529020546b3fffffffffffffffffffffff16878110156109e6576040516308aeed0f60e21b815260040160405180910390fd5b600454611000600160ac1b03600c8f901b1690600090610a079060016123dc565b90506004548a8e604051602001610a4393929190928352602083019190915260601b6bffffffffffffffffffffffff1916604082015260540190565b60405160208183030381529060405280519060200120945043600560008781526020019081526020016000206004015410610a915760405163d0404f8560e01b815260040160405180910390fd5b60006040518061014001604052808481526020018381526020018d81526020018c815260200160035443610ac591906123dc565b8152602001605f600b60008781526020019081526020016000206000896001600160a01b03166001600160a01b0316815260200190815260200160002054901c6001600160a01b031681526020018f6001600160a01b031681526020018e6001600160a01b03168152602001336001600160a01b03168152602001866001600160a01b0316815250905089899050600014610ba457600083815260066020526040902054610b77908b908b9033611968565b610b85848c8884898861199a565b60048054906000610b95836123f4565b91905055505050505050610c79565b68056bc75e2d63100000816060015111610bc657610b85848c8884898861199a565b611000600160ac1b0333600c1b1660009081526007602052604081205490610bfe610bf9670de0b6b3a76400008461240f565b611b0e565b9050610c12670de0b6b3a764000082612431565b83606001511180610c30575069d3c21bcecceda10000008360600151115b15610c4e57604051630e0c7c2360e11b815260040160405180910390fd5b610c5c868e8a868b8a61199a565b60048054906000610c6c836123f4565b9190505550505050505050505b610c8260018055565b9a9950505050505050505050565b84611000600160ac1b0333600c1b166001600160a01b038516610cc65760405163351de29f60e11b815260040160405180910390fd5b6001600160a01b0382166000908152600a602052604090205460ff16610cff57604051630abc194760e11b815260040160405180910390fd5b6000818152600b602090815260408083206001600160a01b03861684529091529020546b3fffffffffffffffffffffff81166a52b7d2dcc80cd2e4000000610d556bffffffffffffffffffffffff8a16836123dc565b1115610d745760405163f3fb0eb960e01b815260040160405180910390fd5b610d7c61193d565b8415610d8c57610d8c3386611429565b87878760ff81901b605f83901b610da385876123dc565b6000898152600b602090815260408083206001600160a01b038e16845290915290209117919091179055610de78733306bffffffffffffffffffffffff8f16611bca565b610df060018055565b604080516001600160a01b038e1681526bffffffffffffffffffffffff8d16602082015233917f63d8d7d5e63e9840ec91a12a160d27b7cfab294f6ba070b7359692acfe6b03bf910160405180910390a2505050505050505050505050565b6000546001600160a01b03163314610e985760405162461bcd60e51b815260206004820152600c60248201526b15539055551213d49256915160a21b60448201526064016107d0565b806003557f70fa43ca70216ad905ade86b9e650a691b2ce5a01980d0a81bdd8324141b85118160405161087191815260200190565b6000546001600160a01b03163314610f165760405162461bcd60e51b815260206004820152600c60248201526b15539055551213d49256915160a21b60448201526064016107d0565b47610f213382611c61565b60408051338152602081018390527feaff4b37086828766ad3268786972c0cd24259d4c87a80f9d3963a3c3d999b0d9101610871565b611000600160ac1b0333600c1b166000818152600b602090815260408083206001600160a01b03871684529091529020548015611026576000828152600b602090815260408083206001600160a01b038816808552908352928190207f7fffffffffffffffffffffffffffffffffffffffffffffffffffffffffffffff9490941660ff87901b1793849055805192835285151591830191909152849133917fca585721b6b442dc9183932f7c84dc2880efb67c4da52cc06873e78971105d49910160405180910390a25061103f565b6040516321c4e35760e21b815260040160405180910390fd5b50505050565b61104d61193d565b6000868152600560205260409020600381015461107d576040516331da482760e11b815260040160405180910390fd5b43816004015410156110a2576040516307b7d7dd60e51b815260040160405180910390fd5b6005810154600382015460405160609290921b6bffffffffffffffffffffffff1916602083015260348201526054810186905260009060740160405160208183030381529060405280519060200120905060008160405160200161113291907f19457468657265756d205369676e6564204d6573736167653a0a3332000000008152601c810191909152603c0190565b60408051601f1981840301815291815281516020928301206000858152600990935291205490915060ff1615156001141561118057604051637a48537560e11b815260040160405180910390fd5b6040805160008082526020820180845284905260ff87169282019290925260608101889052608081018790526111f49060019060a0016020604051602081039080840390855afa1580156111d8573d6000803e3d6000fd5b5050604051601f190151600c1b611000600160ac1b0316919050565b60008181526008602052604090205490915060ff1661122657604051632057875960e21b815260040160405180910390fd5b6009840154600385015460028601546001600160a01b039092169160009061124e9083612450565b60006003890181905560048901819055878152600960205260409020805460ff191660011790556008880154909150336001600160a01b03909116146112ff576002870154611000600160ac1b0333600c1b16600090815260076020526040812080549091906112bf9084906123dc565b90915550506008870154600c1b611000600160ac1b0316600090815260076020526040812080548492906112f49084906123dc565b909155506113419050565b81876002015461130f91906123dc565b611000600160ac1b0333600c1b166000908152600760205260408120805490919061133b9084906123dc565b90915550505b600687015461135b9084906001600160a01b031683611cc1565b6002870154156113c75760078701546001600160a01b038d81169116146113b857600787015460028801546113a09185916001600160a01b039091169060011c611cc1565b6113b3838d60018a60020154901c611cc1565b6113c7565b6113c7838d8960020154611cc1565b6006870154604080518f8152602081018590526001600160a01b03909216917f3fd2eee5028b09fa70abe3da4f6023ea41bfde24cfcb9c167f17d6fbe79eece3910160405180910390a25050505050505061142160018055565b505050505050565b6001600160a01b0382163314156114a357611000600160ac1b03600c83901b1660009081526006602090815260409182902083905581516001600160a01b038516815290810183905281517f0b294da292f26e55fd442b5c0164fbb9013036ff00c5cfdde0efd01c1baaf632929181900390910190a15050565b6040516342e8fb9360e11b815260040160405180910390fd5b60006114c661193d565b6114d083836115ee565b33600c1b611000600160ac1b03166000908152600b602090815260408083206001600160a01b038816845290915290205460ff1c15156001141561151957611519846000610f57565b50611000600160ac1b0333600c1b166000818152600b602090815260408083206001600160a01b0388168452909152812080546b3fffffffffffffffffffffff8116939284929161156b908490612450565b90915550508161158e57604051635972996f60e11b815260040160405180910390fd5b611599853384611cc1565b604080516001600160a01b03871681526020810184905233917f2cd6435b1b961c13f55202979edd0765a809f69a539d8a477436c94c1211e43e910160405180910390a2506115e760018055565b9392505050565b6000815b808210156117c85760006005600086868681811061161257611612612363565b905060200201358152602001908152602001600020905061163281611d4d565b80546000908152600b6020908152604080832060098501546001600160a01b0316845290915290205460038201546b3fffffffffffffffffffffff909116906a52b7d2dcc80cd2e40000009061168890836123dc565b11156116a75760405163f3fb0eb960e01b815260040160405180910390fd5b600382015482546000908152600b6020908152604080832060098701546001600160a01b03168452909152812080549091906116e49084906123dc565b90915550506000600383018190556008830154600c1b611000600160ac1b031660008181526007602052604090205490915060011c68056bc75e2d63100000811161174857600082815260076020526040902068056bc75e2d63100000905561175a565b60008281526007602052604090208190555b60068401546001600160a01b03167f67e089478e21dd12c98e69331c4152f6c9b2038b91e0f28268ffa01558c0b4ff89898981811061179b5761179b612363565b905060200201356040516117b191815260200190565b60405180910390a2856001019550505050506115f2565b8082101561103f5763dfb035c96000526004601cfd5b6000546001600160a01b031633146118275760405162461bcd60e51b815260206004820152600c60248201526b15539055551213d49256915160a21b60448201526064016107d0565b81518061183c5763df9578836000526004601cfd5b815181146118525763ff633a386000526004601cfd5b60208301602083018260051b82015b808314611421578251600052600a60205260406000208251815550815183517f5d6e86e5341d57a92c49934296c51542a25015c9b1782a1c2722a940131c3d9a600080a3602083019250602082019150611861565b6000546001600160a01b031633146118ff5760405162461bcd60e51b815260206004820152600c60248201526b15539055551213d49256915160a21b60448201526064016107d0565b60028190556040516001600160a01b03821681527fe127cf589a3879da0156d4a24f43b44f65cfa3570de594806b0bfa2fcf06884f90602001610871565b600154600214156119615760405163558a1e0360e11b815260040160405180910390fd5b6002600155565b61197d8484846001600160a01b038516611d97565b61103f57604051631dc23a5f60e11b815260040160405180910390fd5b60008481526005602081815260409283902086518155908601516001820155918501516002830155606085015160038301556080850151600483015560a0850151908201805473ffffffffffffffffffffffffffffffffffffffff199081166001600160a01b039384161790915560c0860151600684018054831691841691909117905560e086015160078401805483169184169190911790556101008601516008840180548316918416919091179055610120860151600990930180549091169290911691909117905585611a785763ce3a3d376000526004601cfd5b6000818152600b602090815260408083206001600160a01b038616845290915281208054879290611aaa908490612450565b909155505060c08301518351606085015160405187936001600160a01b0316927f2a28b2ae47b0bd4b104e7cd29b1dfa72846af8c4cfdc009da2ae29db68cb67ea92611afe92918252602082015260400190565b60405180910390a3505050505050565b600080634d2b179160e01b83604051602401611b2c91815260200190565b604051602081830303815290604052907bffffffffffffffffffffffffffffffffffffffffffffffffffffffff19166020820180517bffffffffffffffffffffffffffffffffffffffffffffffffffffffff83818316178352505050509050600080600060206000855160208701600254617530fa92503d9150600051905080945082611bc15763e10bf1cc6000526004601cfd5b50505050919050565b60006040516323b872dd60e01b6000528460045283602452826044526020600060646000808a5af13d15601f3d1160016000511416171691506000606052806040525080611c5a5760405162461bcd60e51b815260206004820152601460248201527f5452414e534645525f46524f4d5f4641494c454400000000000000000000000060448201526064016107d0565b5050505050565b600080600080600085875af1905080611cbc5760405162461bcd60e51b815260206004820152601360248201527f4554485f5452414e534645525f4641494c45440000000000000000000000000060448201526064016107d0565b505050565b600060405163a9059cbb60e01b6000528360045282602452602060006044600080895af13d15601f3d116001600051141617169150600060605280604052508061103f5760405162461bcd60e51b815260206004820152600f60248201527f5452414e534645525f4641494c4544000000000000000000000000000000000060448201526064016107d0565b4381600401541115611d725760405163d0404f8560e01b815260040160405180910390fd5b6003810154611d94576040516331da482760e11b815260040160405180910390fd5b50565b60008315611dd3578360051b8501855b803580851160051b94855260209485185260406000209301818110611dcb57611dd0565b611da7565b50505b501492915050565b600060208284031215611ded57600080fd5b5035919050565b634e487b7160e01b600052604160045260246000fd5b604051601f8201601f1916810167ffffffffffffffff81118282101715611e3357611e33611df4565b604052919050565b600067ffffffffffffffff821115611e5557611e55611df4565b5060051b60200190565b6001600160a01b0381168114611d9457600080fd5b600082601f830112611e8557600080fd5b81356020611e9a611e9583611e3b565b611e0a565b82815260059290921b84018101918181019086841115611eb957600080fd5b8286015b84811015611edd578035611ed081611e5f565b8352918301918301611ebd565b509695505050505050565b600060208284031215611efa57600080fd5b813567ffffffffffffffff811115611f1157600080fd5b611f1d84828501611e74565b949350505050565b600060208284031215611f3757600080fd5b81356115e781611e5f565b60008083601f840112611f5457600080fd5b50813567ffffffffffffffff811115611f6c57600080fd5b6020830191508360208260051b8501011115611f8757600080fd5b9250929050565b6000806000806000806000806000806101008b8d031215611fae57600080fd5b8a35611fb981611e5f565b995060208b0135611fc981611e5f565b985060408b0135611fd981611e5f565b975060608b0135611fe981611e5f565b965060808b0135955060a08b0135945060c08b013567ffffffffffffffff8082111561201457600080fd5b6120208e838f01611f42565b909650945060e08d013591508082111561203957600080fd5b506120468d828e01611f42565b915080935050809150509295989b9194979a5092959850565b8035801515811461206f57600080fd5b919050565b600080600080600060a0868803121561208c57600080fd5b853561209781611e5f565b945060208601356bffffffffffffffffffffffff811681146120b857600080fd5b935060408601356120c881611e5f565b92506120d66060870161205f565b949793965091946080013592915050565b600080604083850312156120fa57600080fd5b823561210581611e5f565b91506121136020840161205f565b90509250929050565b60008060008060008060c0878903121561213557600080fd5b86359550602087013561214781611e5f565b945060408701359350606087013592506080870135915060a087013560ff8116811461217257600080fd5b809150509295509295509295565b6000806040838503121561219357600080fd5b823561219e81611e5f565b946020939093013593505050565b600080604083850312156121bf57600080fd5b82356121ca81611e5f565b915060208301356121da81611e5f565b809150509250929050565b6000806000604084860312156121fa57600080fd5b833561220581611e5f565b9250602084013567ffffffffffffffff81111561222157600080fd5b61222d86828701611f42565b9497909650939450505050565b6000806020838503121561224d57600080fd5b823567ffffffffffffffff81111561226457600080fd5b61227085828601611f42565b90969095509350505050565b6000806040838503121561228f57600080fd5b8235915060208301356121da81611e5f565b600080604083850312156122b457600080fd5b823567ffffffffffffffff808211156122cc57600080fd5b6122d886838701611e74565b93506020915081850135818111156122ef57600080fd5b85019050601f8101861361230257600080fd5b8035612310611e9582611e3b565b81815260059190911b8201830190838101908883111561232f57600080fd5b928401925b82841015612354576123458461205f565b82529284019290840190612334565b80955050505050509250929050565b634e487b7160e01b600052603260045260246000fd5b6020808252825182820181905260009190848201906040850190845b818110156123ba5783516001600160a01b031683529284019291840191600101612395565b50909695505050505050565b634e487b7160e01b600052601160045260246000fd5b600082198211156123ef576123ef6123c6565b500190565b6000600019821415612408576124086123c6565b5060010190565b60008261242c57634e487b7160e01b600052601260045260246000fd5b500490565b600081600019048311821515161561244b5761244b6123c6565b500290565b600082821015612462576124626123c6565b50039056fea164736f6c6343000809000a",
  "linkReferences": {},
  "deployedLinkReferences": {}
}