{
  "_format": "hh-sol-artifact-1",
  "contractName": "P2PIX",
  "sourceName": "contracts/p2pix.sol",
  "abi": [
    {
      "inputs": [
        {
          "internalType": "uint256",
          "name": "defaultBlocks",
          "type": "uint256"
        },
        {
          "internalType": "address[]",
          "name": "validSigners",
          "type": "address[]"
        },
        {
          "internalType": "contract IReputation",
          "name": "_reputation",
          "type": "address"
        },
        {
          "internalType": "address[]",
          "name": "tokens",
          "type": "address[]"
        },
        {
          "internalType": "bool[]",
          "name": "tokenStates",
          "type": "bool[]"
        }
      ],
      "stateMutability": "payable",
      "type": "constructor"
    },
    {
      "inputs": [],
      "name": "AddressDenied",
      "type": "error"
    },
    {
      "inputs": [],
      "name": "AlreadyReleased",
      "type": "error"
    },
    {
      "inputs": [],
      "name": "AmountNotAllowed",
      "type": "error"
    },
    {
      "inputs": [],
      "name": "DecOverflow",
      "type": "error"
    },
    {
      "inputs": [],
      "name": "DepositAlreadyExists",
      "type": "error"
    },
    {
      "inputs": [],
      "name": "EmptyPixTarget",
      "type": "error"
    },
    {
      "inputs": [],
      "name": "InvalidDeposit",
      "type": "error"
    },
    {
      "inputs": [],
      "name": "InvalidSigner",
      "type": "error"
    },
    {
      "inputs": [],
      "name": "LengthMismatch",
      "type": "error"
    },
    {
      "inputs": [],
      "name": "LockExpired",
      "type": "error"
    },
    {
      "inputs": [],
      "name": "LoopOverflow",
      "type": "error"
    },
    {
      "inputs": [],
      "name": "MaxBalExceeded",
      "type": "error"
    },
    {
      "inputs": [],
      "name": "NoTokens",
      "type": "error"
    },
    {
      "inputs": [],
      "name": "NotEnoughTokens",
      "type": "error"
    },
    {
      "inputs": [],
      "name": "NotExpired",
      "type": "error"
    },
    {
      "inputs": [],
      "name": "NotInitialized",
      "type": "error"
    },
    {
      "inputs": [],
      "name": "OnlySeller",
      "type": "error"
    },
    {
      "inputs": [],
      "name": "Reentrancy",
      "type": "error"
    },
    {
      "inputs": [],
      "name": "StaticCallFailed",
      "type": "error"
    },
    {
      "inputs": [],
      "name": "TokenDenied",
      "type": "error"
    },
    {
      "inputs": [],
      "name": "TxAlreadyUsed",
      "type": "error"
    },
    {
      "anonymous": false,
      "inputs": [
        {
          "indexed": true,
          "internalType": "address",
          "name": "token",
          "type": "address"
        },
        {
          "indexed": true,
          "internalType": "bool",
          "name": "state",
          "type": "bool"
        }
      ],
      "name": "AllowedERC20Updated",
      "type": "event"
    },
    {
      "anonymous": false,
      "inputs": [
        {
          "indexed": true,
          "internalType": "address",
          "name": "seller",
          "type": "address"
        },
        {
          "indexed": false,
          "internalType": "address",
          "name": "token",
          "type": "address"
        },
        {
          "indexed": false,
          "internalType": "uint256",
          "name": "amount",
          "type": "uint256"
        }
      ],
      "name": "DepositAdded",
      "type": "event"
    },
    {
      "anonymous": false,
      "inputs": [
        {
          "indexed": true,
          "internalType": "address",
          "name": "seller",
          "type": "address"
        },
        {
          "indexed": false,
          "internalType": "address",
          "name": "token",
          "type": "address"
        },
        {
          "indexed": false,
          "internalType": "uint256",
          "name": "amount",
          "type": "uint256"
        }
      ],
      "name": "DepositWithdrawn",
      "type": "event"
    },
    {
      "anonymous": false,
      "inputs": [
        {
          "indexed": false,
          "internalType": "address",
          "name": "owner",
          "type": "address"
        },
        {
          "indexed": false,
          "internalType": "uint256",
          "name": "amount",
          "type": "uint256"
        }
      ],
      "name": "FundsWithdrawn",
      "type": "event"
    },
    {
      "anonymous": false,
      "inputs": [
        {
          "indexed": true,
          "internalType": "address",
          "name": "buyer",
          "type": "address"
        },
        {
          "indexed": true,
          "internalType": "uint256",
          "name": "lockID",
          "type": "uint256"
        },
        {
          "indexed": false,
          "internalType": "uint256",
          "name": "seller",
          "type": "uint256"
        },
        {
          "indexed": false,
          "internalType": "uint256",
          "name": "amount",
          "type": "uint256"
        }
      ],
      "name": "LockAdded",
      "type": "event"
    },
    {
      "anonymous": false,
      "inputs": [
        {
          "indexed": false,
          "internalType": "uint256",
          "name": "blocks",
          "type": "uint256"
        }
      ],
      "name": "LockBlocksUpdated",
      "type": "event"
    },
    {
      "anonymous": false,
      "inputs": [
        {
          "indexed": true,
          "internalType": "address",
          "name": "buyer",
          "type": "address"
        },
        {
          "indexed": false,
          "internalType": "uint256",
          "name": "lockId",
          "type": "uint256"
        },
        {
          "indexed": false,
          "internalType": "uint256",
          "name": "amount",
          "type": "uint256"
        }
      ],
      "name": "LockReleased",
      "type": "event"
    },
    {
      "anonymous": false,
      "inputs": [
        {
          "indexed": true,
          "internalType": "address",
          "name": "buyer",
          "type": "address"
        },
        {
          "indexed": false,
          "internalType": "uint256",
          "name": "lockId",
          "type": "uint256"
        }
      ],
      "name": "LockReturned",
      "type": "event"
    },
    {
      "anonymous": false,
      "inputs": [
        {
          "indexed": true,
          "internalType": "address",
          "name": "user",
          "type": "address"
        },
        {
          "indexed": true,
          "internalType": "address",
          "name": "newOwner",
          "type": "address"
        }
      ],
      "name": "OwnerUpdated",
      "type": "event"
    },
    {
      "anonymous": false,
      "inputs": [
        {
          "indexed": false,
          "internalType": "address",
          "name": "reputation",
          "type": "address"
        }
      ],
      "name": "ReputationUpdated",
      "type": "event"
    },
    {
      "anonymous": false,
      "inputs": [
        {
          "indexed": false,
          "internalType": "address",
          "name": "seller",
          "type": "address"
        },
        {
          "indexed": false,
          "internalType": "bytes32",
          "name": "merkleRoot",
          "type": "bytes32"
        }
      ],
      "name": "RootUpdated",
      "type": "event"
    },
    {
      "anonymous": false,
      "inputs": [
        {
          "indexed": true,
          "internalType": "address",
          "name": "seller",
          "type": "address"
        },
        {
          "indexed": false,
          "internalType": "address",
          "name": "token",
          "type": "address"
        },
        {
          "indexed": false,
          "internalType": "bool",
          "name": "state",
          "type": "bool"
        }
      ],
      "name": "ValidSet",
      "type": "event"
    },
    {
      "anonymous": false,
      "inputs": [
        {
          "indexed": false,
          "internalType": "address[]",
          "name": "signers",
          "type": "address[]"
        }
      ],
      "name": "ValidSignersUpdated",
      "type": "event"
    },
    {
      "inputs": [],
      "name": "WAD",
      "outputs": [
        {
          "internalType": "uint256",
          "name": "",
          "type": "uint256"
        }
      ],
      "stateMutability": "view",
      "type": "function"
    },
    {
      "inputs": [
        {
          "internalType": "address",
          "name": "_addr",
          "type": "address"
        }
      ],
      "name": "_castAddrToKey",
      "outputs": [
        {
          "internalType": "uint256",
          "name": "_key",
          "type": "uint256"
        }
      ],
      "stateMutability": "pure",
      "type": "function"
    },
    {
      "inputs": [
        {
          "internalType": "uint256",
          "name": "_key",
          "type": "uint256"
        }
      ],
      "name": "_castKeyToAddr",
      "outputs": [
        {
          "internalType": "address",
          "name": "_addr",
          "type": "address"
        }
      ],
      "stateMutability": "pure",
      "type": "function"
    },
    {
      "inputs": [
        {
          "internalType": "contract ERC20",
          "name": "",
          "type": "address"
        }
      ],
      "name": "allowedERC20s",
      "outputs": [
        {
          "internalType": "bool",
          "name": "",
          "type": "bool"
        }
      ],
      "stateMutability": "view",
      "type": "function"
    },
    {
      "inputs": [],
      "name": "defaultLockBlocks",
      "outputs": [
        {
          "internalType": "uint256",
          "name": "",
          "type": "uint256"
        }
      ],
      "stateMutability": "view",
      "type": "function"
    },
    {
      "inputs": [
        {
          "internalType": "address",
          "name": "_token",
          "type": "address"
        },
        {
          "internalType": "uint96",
          "name": "_amount",
          "type": "uint96"
        },
        {
          "internalType": "uint160",
          "name": "_pixTarget",
          "type": "uint160"
        },
        {
          "internalType": "bool",
          "name": "_valid",
          "type": "bool"
        },
        {
          "internalType": "bytes32",
          "name": "allowlistRoot",
          "type": "bytes32"
        }
      ],
      "name": "deposit",
      "outputs": [],
      "stateMutability": "nonpayable",
      "type": "function"
    },
    {
      "inputs": [
        {
          "internalType": "address",
          "name": "seller",
          "type": "address"
        },
        {
          "internalType": "contract ERC20",
          "name": "token",
          "type": "address"
        }
      ],
      "name": "getBalance",
      "outputs": [
        {
          "internalType": "uint256",
          "name": "bal",
          "type": "uint256"
        }
      ],
      "stateMutability": "view",
      "type": "function"
    },
    {
      "inputs": [
        {
          "internalType": "address[]",
          "name": "sellers",
          "type": "address[]"
        },
        {
          "internalType": "contract ERC20",
          "name": "token",
          "type": "address"
        }
      ],
      "name": "getBalances",
      "outputs": [
        {
          "internalType": "uint256[]",
          "name": "",
          "type": "uint256[]"
        }
      ],
      "stateMutability": "view",
      "type": "function"
    },
    {
      "inputs": [
        {
          "internalType": "uint256[]",
          "name": "ids",
          "type": "uint256[]"
        }
      ],
      "name": "getLocksStatus",
      "outputs": [
        {
          "internalType": "uint256[]",
          "name": "",
          "type": "uint256[]"
        },
        {
          "internalType": "enum DataTypes.LockStatus[]",
          "name": "",
          "type": "uint8[]"
        }
      ],
      "stateMutability": "view",
      "type": "function"
    },
    {
      "inputs": [
        {
          "internalType": "address",
          "name": "seller",
          "type": "address"
        },
        {
          "internalType": "contract ERC20",
          "name": "token",
          "type": "address"
        }
      ],
      "name": "getPixTarget",
      "outputs": [
        {
          "internalType": "uint160",
          "name": "pixTarget",
          "type": "uint160"
        }
      ],
      "stateMutability": "view",
      "type": "function"
    },
    {
      "inputs": [
        {
          "internalType": "address",
          "name": "seller",
          "type": "address"
        },
        {
          "internalType": "contract ERC20",
          "name": "token",
          "type": "address"
        }
      ],
      "name": "getValid",
      "outputs": [
        {
          "internalType": "bool",
          "name": "valid",
          "type": "bool"
        }
      ],
      "stateMutability": "view",
      "type": "function"
    },
    {
      "inputs": [
        {
          "internalType": "address",
          "name": "_seller",
          "type": "address"
        },
        {
          "internalType": "address",
          "name": "_token",
          "type": "address"
        },
        {
          "internalType": "address",
          "name": "_buyerAddress",
          "type": "address"
        },
        {
          "internalType": "address",
          "name": "_relayerTarget",
          "type": "address"
        },
        {
          "internalType": "uint256",
          "name": "_relayerPremium",
          "type": "uint256"
        },
        {
          "internalType": "uint256",
          "name": "_amount",
          "type": "uint256"
        },
        {
          "internalType": "bytes32[]",
          "name": "merkleProof",
          "type": "bytes32[]"
        },
        {
          "internalType": "uint256[]",
          "name": "expiredLocks",
          "type": "uint256[]"
        }
      ],
      "name": "lock",
      "outputs": [
        {
          "internalType": "uint256",
          "name": "",
          "type": "uint256"
        }
      ],
      "stateMutability": "nonpayable",
      "type": "function"
    },
    {
      "inputs": [],
      "name": "lockCounter",
      "outputs": [
        {
          "internalType": "uint256",
          "name": "",
          "type": "uint256"
        }
      ],
      "stateMutability": "view",
      "type": "function"
    },
    {
      "inputs": [
        {
          "internalType": "uint256",
          "name": "",
          "type": "uint256"
        }
      ],
      "name": "mapLocks",
      "outputs": [
        {
          "internalType": "uint256",
          "name": "sellerKey",
          "type": "uint256"
        },
        {
          "internalType": "uint256",
          "name": "counter",
          "type": "uint256"
        },
        {
          "internalType": "uint256",
          "name": "relayerPremium",
          "type": "uint256"
        },
        {
          "internalType": "uint256",
          "name": "amount",
          "type": "uint256"
        },
        {
          "internalType": "uint256",
          "name": "expirationBlock",
          "type": "uint256"
        },
        {
          "internalType": "uint160",
          "name": "pixTarget",
          "type": "uint160"
        },
        {
          "internalType": "address",
          "name": "buyerAddress",
          "type": "address"
        },
        {
          "internalType": "address",
          "name": "relayerTarget",
          "type": "address"
        },
        {
          "internalType": "address",
          "name": "relayerAddress",
          "type": "address"
        },
        {
          "internalType": "address",
          "name": "token",
          "type": "address"
        }
      ],
      "stateMutability": "view",
      "type": "function"
    },
    {
      "inputs": [],
      "name": "owner",
      "outputs": [
        {
          "internalType": "address",
          "name": "",
          "type": "address"
        }
      ],
      "stateMutability": "view",
      "type": "function"
    },
    {
      "inputs": [
        {
          "internalType": "uint256",
          "name": "lockID",
          "type": "uint256"
        },
        {
          "internalType": "address",
          "name": "_relayerTarget",
          "type": "address"
        },
        {
          "internalType": "bytes32",
          "name": "pixTimestamp",
          "type": "bytes32"
        },
        {
          "internalType": "bytes32",
          "name": "r",
          "type": "bytes32"
        },
        {
          "internalType": "bytes32",
          "name": "s",
          "type": "bytes32"
        },
        {
          "internalType": "uint8",
          "name": "v",
          "type": "uint8"
        }
      ],
      "name": "release",
      "outputs": [],
      "stateMutability": "nonpayable",
      "type": "function"
    },
    {
      "inputs": [],
      "name": "reputation",
      "outputs": [
        {
          "internalType": "contract IReputation",
          "name": "",
          "type": "address"
        }
      ],
      "stateMutability": "view",
      "type": "function"
    },
    {
      "inputs": [
        {
          "internalType": "uint256",
          "name": "",
          "type": "uint256"
        }
      ],
      "name": "sellerAllowList",
      "outputs": [
        {
          "internalType": "bytes32",
          "name": "",
          "type": "bytes32"
        }
      ],
      "stateMutability": "view",
      "type": "function"
    },
    {
      "inputs": [
        {
          "internalType": "uint256",
          "name": "",
          "type": "uint256"
        },
        {
          "internalType": "contract ERC20",
          "name": "",
          "type": "address"
        }
      ],
      "name": "sellerBalance",
      "outputs": [
        {
          "internalType": "uint256",
          "name": "",
          "type": "uint256"
        }
      ],
      "stateMutability": "view",
      "type": "function"
    },
    {
      "inputs": [
        {
          "internalType": "uint256",
          "name": "_blocks",
          "type": "uint256"
        }
      ],
      "name": "setDefaultLockBlocks",
      "outputs": [],
      "stateMutability": "nonpayable",
      "type": "function"
    },
    {
      "inputs": [
        {
          "internalType": "address",
          "name": "newOwner",
          "type": "address"
        }
      ],
      "name": "setOwner",
      "outputs": [],
      "stateMutability": "nonpayable",
      "type": "function"
    },
    {
      "inputs": [
        {
          "internalType": "contract IReputation",
          "name": "_reputation",
          "type": "address"
        }
      ],
      "name": "setReputation",
      "outputs": [],
      "stateMutability": "nonpayable",
      "type": "function"
    },
    {
      "inputs": [
        {
          "internalType": "address",
          "name": "addr",
          "type": "address"
        },
        {
          "internalType": "bytes32",
          "name": "merkleroot",
          "type": "bytes32"
        }
      ],
      "name": "setRoot",
      "outputs": [],
      "stateMutability": "nonpayable",
      "type": "function"
    },
    {
      "inputs": [
        {
          "internalType": "address[]",
          "name": "_validSigners",
          "type": "address[]"
        }
      ],
      "name": "setValidSigners",
      "outputs": [],
      "stateMutability": "nonpayable",
      "type": "function"
    },
    {
      "inputs": [
        {
          "internalType": "contract ERC20",
          "name": "token",
          "type": "address"
        },
        {
          "internalType": "bool",
          "name": "state",
          "type": "bool"
        }
      ],
      "name": "setValidState",
      "outputs": [],
      "stateMutability": "nonpayable",
      "type": "function"
    },
    {
      "inputs": [
        {
          "internalType": "address[]",
          "name": "_tokens",
          "type": "address[]"
        },
        {
          "internalType": "bool[]",
          "name": "_states",
          "type": "bool[]"
        }
      ],
      "name": "tokenSettings",
      "outputs": [],
      "stateMutability": "nonpayable",
      "type": "function"
    },
    {
      "inputs": [
        {
          "internalType": "uint256[]",
          "name": "lockIDs",
          "type": "uint256[]"
        }
      ],
      "name": "unlockExpired",
      "outputs": [],
      "stateMutability": "nonpayable",
      "type": "function"
    },
    {
      "inputs": [
        {
          "internalType": "bytes32",
          "name": "",
          "type": "bytes32"
        }
      ],
      "name": "usedTransactions",
      "outputs": [
        {
          "internalType": "bool",
          "name": "",
          "type": "bool"
        }
      ],
      "stateMutability": "view",
      "type": "function"
    },
    {
      "inputs": [
        {
          "internalType": "uint256",
          "name": "",
          "type": "uint256"
        }
      ],
      "name": "userRecord",
      "outputs": [
        {
          "internalType": "uint256",
          "name": "",
          "type": "uint256"
        }
      ],
      "stateMutability": "view",
      "type": "function"
    },
    {
      "inputs": [
        {
          "internalType": "uint256",
          "name": "",
          "type": "uint256"
        }
      ],
      "name": "validBacenSigners",
      "outputs": [
        {
          "internalType": "bool",
          "name": "",
          "type": "bool"
        }
      ],
      "stateMutability": "view",
      "type": "function"
    },
    {
      "inputs": [
        {
          "internalType": "contract ERC20",
          "name": "token",
          "type": "address"
        },
        {
          "internalType": "uint256",
          "name": "amount",
          "type": "uint256"
        },
        {
          "internalType": "uint256[]",
          "name": "expiredLocks",
          "type": "uint256[]"
        }
      ],
      "name": "withdraw",
      "outputs": [],
      "stateMutability": "nonpayable",
      "type": "function"
    },
    {
      "inputs": [],
      "name": "withdrawBalance",
      "outputs": [],
      "stateMutability": "nonpayable",
      "type": "function"
    },
    {
      "stateMutability": "payable",
      "type": "receive"
    }
  ],
  "bytecode": "0x6080604052600180556040516200366e3803806200366e8339810160408190526200002a9162000493565b600080546001600160a01b031916339081178255604051909182917f8292fce18fa69edf4db7b94ea2e58241df0ae57f97e0a6c9b29067028bf92d76908290a3506200007685620000a3565b620000818362000133565b6200008c84620001bd565b620000988282620002a1565b505050505062000616565b6000546001600160a01b03163314620000f25760405162461bcd60e51b815260206004820152600c60248201526b15539055551213d49256915160a21b60448201526064015b60405180910390fd5b806003557f70fa43ca70216ad905ade86b9e650a691b2ce5a01980d0a81bdd8324141b8511816040516200012891815260200190565b60405180910390a150565b6000546001600160a01b031633146200017e5760405162461bcd60e51b815260206004820152600c60248201526b15539055551213d49256915160a21b6044820152606401620000e9565b60028190556040516001600160a01b03821681527fe127cf589a3879da0156d4a24f43b44f65cfa3570de594806b0bfa2fcf06884f9060200162000128565b6000546001600160a01b03163314620002085760405162461bcd60e51b815260206004820152600c60248201526b15539055551213d49256915160a21b6044820152606401620000e9565b80516000905b808210156200026e57600062000246848481518110620002325762000232620005b1565b60200260200101516200038760201b60201c565b6000908152600860205260409020805460ff191660019081179091559290920191506200020e565b50507f14a422d2412784a5749d03da98921fe468c98577b767851389a9f58ea5a363d781604051620001289190620005c7565b6000546001600160a01b03163314620002ec5760405162461bcd60e51b815260206004820152600c60248201526b15539055551213d49256915160a21b6044820152606401620000e9565b815180620003025763df9578836000526004601cfd5b81518114620003195763ff633a386000526004601cfd5b60208301602083018260051b82015b8083146200037f578251600052600a60205260406000208251815550815183517f5d6e86e5341d57a92c49934296c51542a25015c9b1782a1c2722a940131c3d9a600080a360208301925060208201915062000328565b505050505050565b600c1b90565b634e487b7160e01b600052604160045260246000fd5b604051601f8201601f191681016001600160401b0381118282101715620003ce57620003ce6200038d565b604052919050565b60006001600160401b03821115620003f257620003f26200038d565b5060051b60200190565b6001600160a01b03811681146200041257600080fd5b50565b600082601f8301126200042757600080fd5b81516020620004406200043a83620003d6565b620003a3565b82815260059290921b840181019181810190868411156200046057600080fd5b8286015b84811015620004885780516200047a81620003fc565b835291830191830162000464565b509695505050505050565b600080600080600060a08688031215620004ac57600080fd5b8551602080880151919650906001600160401b0380821115620004ce57600080fd5b620004dc8a838b0162000415565b965060408901519150620004f082620003fc565b6060890151919550808211156200050657600080fd5b620005148a838b0162000415565b945060808901519150808211156200052b57600080fd5b508701601f810189136200053e57600080fd5b80516200054f6200043a82620003d6565b81815260059190911b8201830190838101908b8311156200056f57600080fd5b928401925b828410156200059f57835180151581146200058f5760008081fd5b8252928401929084019062000574565b80955050505050509295509295909350565b634e487b7160e01b600052603260045260246000fd5b6020808252825182820181905260009190848201906040850190845b818110156200060a5783516001600160a01b031683529284019291840191600101620005e3565b50909695505050505050565b61304880620006266000396000f3fe6080604052600436106101e75760003560e01c80637f94f65d11610102578063ad8f2eed11610095578063d4fac45d11610064578063d4fac45d1461074c578063d6e8b97314610797578063f7d0e04b146107b7578063fb8c5ef0146107d757600080fd5b8063ad8f2eed14610692578063b0983d39146106d2578063c52164c6146106f2578063d1c070281461071f57600080fd5b80638db564c2116100d15780638db564c2146105fe5780639872dbfe1461061457806398a268711461062a5780639eee8d4b1461065a57600080fd5b80637f94f65d1461052b57806380e1d3021461054b57806384ab1d281461058b5780638da5cb5b146105d157600080fd5b80634b2ae9801161017a5780636a146024116101495780636a146024146104a25780636d82d9e0146104be57806374ba03a0146104de57806377cd38a4146104fe57600080fd5b80634b2ae9801461041c578063574983c81461043d5780635fd8c7101461045d57806369cc6af41461047257600080fd5b8063328a7181116101b6578063328a718114610295578063367821f0146102b5578063461f3120146103ae57806349ef8448146103ee57600080fd5b806304937320146101f35780630a98b9bd146102335780630d2a2d441461025357806313af40351461027557600080fd5b366101ee57005b600080fd5b3480156101ff57600080fd5b5061022061020e3660046126f1565b60076020526000908152604090205481565b6040519081526020015b60405180910390f35b34801561023f57600080fd5b5061022061024e366004612778565b6107f7565b34801561025f57600080fd5b5061027361026e36600461295f565b610ba6565b005b34801561028157600080fd5b5061027361029036600461299c565b610ce0565b3480156102a157600080fd5b506102736102b03660046129d5565b610dd1565b3480156102c157600080fd5b506103426102d03660046126f1565b6005602081905260009182526040909120805460018201546002830154600384015460048501549585015460068601546007870154600888015460099098015496989597949693959473ffffffffffffffffffffffffffffffffffffffff93841694928416939182169290821691168a565b604080519a8b5260208b0199909952978901969096526060880194909452608087019290925273ffffffffffffffffffffffffffffffffffffffff90811660a087015290811660c086015290811660e0850152908116610100840152166101208201526101400161022a565b3480156103ba57600080fd5b506103de6103c93660046126f1565b60096020526000908152604090205460ff1681565b604051901515815260200161022a565b3480156103fa57600080fd5b5061040e610409366004612a48565b611012565b60405161022a929190612b43565b34801561042857600080fd5b5061022061043736600461299c565b600c1b90565b34801561044957600080fd5b506102736104583660046126f1565b6112f5565b34801561046957600080fd5b506102736113ab565b34801561047e57600080fd5b506103de61048d36600461299c565b600a6020526000908152604090205460ff1681565b3480156104ae57600080fd5b50610220670de0b6b3a764000081565b3480156104ca57600080fd5b506102736104d9366004612bd2565b61146d565b3480156104ea57600080fd5b506102736104f9366004612c07565b611584565b34801561050a57600080fd5b506102206105193660046126f1565b60066020526000908152604090205481565b34801561053757600080fd5b50610273610546366004612c6b565b611a63565b34801561055757600080fd5b506103de610566366004612c97565b600c9190911b6000908152600b60209081526040808320938352929052205460ff1c90565b34801561059757600080fd5b506105ac6105a63660046126f1565b600c1c90565b60405173ffffffffffffffffffffffffffffffffffffffff909116815260200161022a565b3480156105dd57600080fd5b506000546105ac9073ffffffffffffffffffffffffffffffffffffffff1681565b34801561060a57600080fd5b5061022060045481565b34801561062057600080fd5b5061022060035481565b34801561063657600080fd5b506103de6106453660046126f1565b60086020526000908152604090205460ff1681565b34801561066657600080fd5b50610220610675366004612cd0565b600b60209081526000928352604080842090915290825290205481565b34801561069e57600080fd5b506105ac6106ad366004612c97565b600c9190911b6000908152600b602090815260408083209383529290522054605f1c90565b3480156106de57600080fd5b506102736106ed366004612cf5565b611b29565b3480156106fe57600080fd5b506002546105ac9073ffffffffffffffffffffffffffffffffffffffff1681565b34801561072b57600080fd5b5061073f61073a366004612d2b565b611d6c565b60405161022a9190612d72565b34801561075857600080fd5b50610220610767366004612c97565b600c9190911b6000908152600b6020908152604080832093835292905220546b3fffffffffffffffffffffff1690565b3480156107a357600080fd5b506102736107b2366004612d85565b611e46565b3480156107c357600080fd5b506102736107d236600461299c565b611f56565b3480156107e357600080fd5b506102736107f2366004612e47565b612022565b600061080161211e565b61080b8383611b29565b600c8b901b6000908152600b602090815260408083208d84529091529020548a9060ff1c610865576040517fb2e532de00000000000000000000000000000000000000000000000000000000815260040160405180910390fd5b600c8c901b6000908152600b602090815260408083208484529091529020546b3fffffffffffffffffffffff16878110156108cc576040517f22bbb43c00000000000000000000000000000000000000000000000000000000815260040160405180910390fd5b60006108d88e600c1b90565b9050600060045460016108eb9190612ed2565b6000818152600560205260409020600401549091504311610938576040517fd0404f8500000000000000000000000000000000000000000000000000000000815260040160405180910390fd5b60006040518061014001604052808481526020018381526020018d81526020018c81526020016003544361096c9190612ed2565b8152602001605f600b600087815260200190815260200160002060008973ffffffffffffffffffffffffffffffffffffffff1673ffffffffffffffffffffffffffffffffffffffff16815260200190815260200160002054901c73ffffffffffffffffffffffffffffffffffffffff1681526020018f73ffffffffffffffffffffffffffffffffffffffff1681526020018e73ffffffffffffffffffffffffffffffffffffffff1681526020013373ffffffffffffffffffffffffffffffffffffffff1681526020018673ffffffffffffffffffffffffffffffffffffffff16815250905089899050600014610aa957600083815260066020526040902054610a79908b908b9033612162565b610a87848c848489886121ba565b60048054906000610a9783612eea565b91905055508195505050505050610b8f565b68056bc75e2d63100000816060015111610acb57610a87848c848489886121ba565b33600c1b60009081526007602052604081205490610af9610af4670de0b6b3a764000084612f23565b612315565b9050610b0d670de0b6b3a764000082612f5e565b83606001511180610b2b575069d3c21bcecceda10000008360600151115b15610b62576040517f1c18f84600000000000000000000000000000000000000000000000000000000815260040160405180910390fd5b610b70868e86868b8a6121ba565b60048054906000610b8083612eea565b90915550939750505050505050505b610b9860018055565b9a9950505050505050505050565b60005473ffffffffffffffffffffffffffffffffffffffff163314610c2c576040517f08c379a000000000000000000000000000000000000000000000000000000000815260206004820152600c60248201527f554e415554484f52495a4544000000000000000000000000000000000000000060448201526064015b60405180910390fd5b80516000905b80821015610ca4576000610c5f848481518110610c5157610c51612f9b565b6020026020010151600c1b90565b600090815260086020526040902080547fffffffffffffffffffffffffffffffffffffffffffffffffffffffffffffff00166001908117909155929092019150610c32565b50507f14a422d2412784a5749d03da98921fe468c98577b767851389a9f58ea5a363d781604051610cd59190612fca565b60405180910390a150565b60005473ffffffffffffffffffffffffffffffffffffffff163314610d61576040517f08c379a000000000000000000000000000000000000000000000000000000000815260206004820152600c60248201527f554e415554484f52495a454400000000000000000000000000000000000000006044820152606401610c23565b600080547fffffffffffffffffffffffff00000000000000000000000000000000000000001673ffffffffffffffffffffffffffffffffffffffff83169081178255604051909133917f8292fce18fa69edf4db7b94ea2e58241df0ae57f97e0a6c9b29067028bf92d769190a350565b8433600c1b73ffffffffffffffffffffffffffffffffffffffff8516610e23576040517f6a3bc53e00000000000000000000000000000000000000000000000000000000815260040160405180910390fd5b73ffffffffffffffffffffffffffffffffffffffff82166000908152600a602052604090205460ff16610e82576040517f1578328e00000000000000000000000000000000000000000000000000000000815260040160405180910390fd5b6000818152600b6020908152604080832073ffffffffffffffffffffffffffffffffffffffff861684529091529020546b3fffffffffffffffffffffff81166a52b7d2dcc80cd2e4000000610ee56bffffffffffffffffffffffff8a1683612ed2565b1115610f1d576040517ff3fb0eb900000000000000000000000000000000000000000000000000000000815260040160405180910390fd5b610f2561211e565b8415610f3557610f353386611a63565b87878760ff81901b605f83901b610f4c8587612ed2565b6000898152600b6020908152604080832073ffffffffffffffffffffffffffffffffffffffff8e16845290915290209117919091179055610f9d8733306bffffffffffffffffffffffff8f166123d1565b610fa660018055565b6040805173ffffffffffffffffffffffffffffffffffffffff8e1681526bffffffffffffffffffffffff8d16602082015233917f63d8d7d5e63e9840ec91a12a160d27b7cfab294f6ba070b7359692acfe6b03bf910160405180910390a2505050505050505050505050565b60608082516000141561103d5750506040805160008082526020820190815281830190925292909150565b8251600090818167ffffffffffffffff81111561105c5761105c612849565b604051908082528060200260200182016040528015611085578160200160208202803683370190505b50905060008267ffffffffffffffff8111156110a3576110a3612849565b6040519080825280602002602001820160405280156110cc578160200160208202803683370190505b5090505b828410156112e957600560008886815181106110ee576110ee612f9b565b6020026020010151815260200190815260200160002060000154600014156111965786848151811061112257611122612f9b565b602002602001015182858151811061113c5761113c612f9b565b602002602001018181525050600081858151811061115c5761115c612f9b565b6020026020010190600381111561117557611175612b14565b9081600381111561118857611188612b14565b9052506001909301926110d0565b600560008886815181106111ac576111ac612f9b565b60200260200101518152602001908152602001600020600301546000141561121a578684815181106111e0576111e0612f9b565b60200260200101518285815181106111fa576111fa612f9b565b602002602001018181525050600381858151811061115c5761115c612f9b565b436005600089878151811061123157611231612f9b565b6020026020010151815260200190815260200160002060040154101561129d5786848151811061126357611263612f9b565b602002602001015182858151811061127d5761127d612f9b565b602002602001018181525050600281858151811061115c5761115c612f9b565b8684815181106112af576112af612f9b565b60200260200101518285815181106112c9576112c9612f9b565b602002602001018181525050600181858151811061115c5761115c612f9b565b90969095509350505050565b60005473ffffffffffffffffffffffffffffffffffffffff163314611376576040517f08c379a000000000000000000000000000000000000000000000000000000000815260206004820152600c60248201527f554e415554484f52495a454400000000000000000000000000000000000000006044820152606401610c23565b806003557f70fa43ca70216ad905ade86b9e650a691b2ce5a01980d0a81bdd8324141b851181604051610cd591815260200190565b60005473ffffffffffffffffffffffffffffffffffffffff16331461142c576040517f08c379a000000000000000000000000000000000000000000000000000000000815260206004820152600c60248201527f554e415554484f52495a454400000000000000000000000000000000000000006044820152606401610c23565b47611437338261249b565b60408051338152602081018390527feaff4b37086828766ad3268786972c0cd24259d4c87a80f9d3963a3c3d999b0d9101610cd5565b33600c1b6000818152600b6020908152604080832073ffffffffffffffffffffffffffffffffffffffff87168452909152902054801561154c576000828152600b6020908152604080832073ffffffffffffffffffffffffffffffffffffffff8816808552908352928190207f7fffffffffffffffffffffffffffffffffffffffffffffffffffffffffffffff9490941660ff87901b1793849055805192835285151591830191909152849133917fca585721b6b442dc9183932f7c84dc2880efb67c4da52cc06873e78971105d49910160405180910390a25061157e565b6040517f87138d5c00000000000000000000000000000000000000000000000000000000815260040160405180910390fd5b50505050565b61158c61211e565b600086815260056020526040902060038101546115d5576040517f63b4904e00000000000000000000000000000000000000000000000000000000815260040160405180910390fd5b4381600401541015611613576040517ff6fafba000000000000000000000000000000000000000000000000000000000815260040160405180910390fd5b6005810154600382015460405160609290921b7fffffffffffffffffffffffffffffffffffffffff0000000000000000000000001660208301526034820152605481018690526000906074016040516020818303038152906040528051906020012090506000816040516020016116b691907f19457468657265756d205369676e6564204d6573736167653a0a3332000000008152601c810191909152603c0190565b604080517fffffffffffffffffffffffffffffffffffffffffffffffffffffffffffffffe081840301815291815281516020928301206000858152600990935291205490915060ff1615156001141561173b576040517ff490a6ea00000000000000000000000000000000000000000000000000000000815260040160405180910390fd5b6040805160008082526020820180845284905260ff87169282019290925260608101889052608081018790526117a39060019060a0016020604051602081039080840390855afa158015611793573d6000803e3d6000fd5b50505060206040510351600c1b90565b60008181526008602052604090205490915060ff166117ee576040517f815e1d6400000000000000000000000000000000000000000000000000000000815260040160405180910390fd5b60098401546003850154600286015473ffffffffffffffffffffffffffffffffffffffff909216916000906118239083613024565b6000600389018190556004890181905587815260096020526040902080547fffffffffffffffffffffffffffffffffffffffffffffffffffffffffffffff0016600117905560088801549091503373ffffffffffffffffffffffffffffffffffffffff9091161461190f57600287015433600c1b600090815260076020526040812080549091906118b5908490612ed2565b9091555050600887015482906007906000906118e79073ffffffffffffffffffffffffffffffffffffffff16600c1b90565b815260200190815260200160002060008282546119049190612ed2565b909155506119479050565b81876002015461191f9190612ed2565b33600c1b60009081526007602052604081208054909190611941908490612ed2565b90915550505b600687015461196e90849073ffffffffffffffffffffffffffffffffffffffff1683612515565b6002870154156119f457600787015473ffffffffffffffffffffffffffffffffffffffff8d81169116146119e557600787015460028801546119cd91859173ffffffffffffffffffffffffffffffffffffffff9091169060011c612515565b6119e0838d60018a60020154901c612515565b6119f4565b6119f4838d8960020154612515565b6006870154604080518f81526020810185905273ffffffffffffffffffffffffffffffffffffffff909216917f364537f14276f2a0ce9905588413f96454cbb8fb2e4f5308389307c1098bede8910160405180910390a250505050505050611a5b60018055565b505050505050565b73ffffffffffffffffffffffffffffffffffffffff8216331415611af7578060066000611a9085600c1b90565b8152602080820192909252604090810160002092909255815173ffffffffffffffffffffffffffffffffffffffff851681529081018390527f0b294da292f26e55fd442b5c0164fbb9013036ff00c5cfdde0efd01c1baaf632910160405180910390a15050565b6040517f85d1f72600000000000000000000000000000000000000000000000000000000815260040160405180910390fd5b6000815b80821015611d5657600060056000868686818110611b4d57611b4d612f9b565b9050602002013581526020019081526020016000209050611b6d816125d4565b80546000908152600b60209081526040808320600985015473ffffffffffffffffffffffffffffffffffffffff16845290915290205460038201546b3fffffffffffffffffffffff909116906a52b7d2dcc80cd2e400000090611bd09083612ed2565b1115611c08576040517ff3fb0eb900000000000000000000000000000000000000000000000000000000815260040160405180910390fd5b600382015482546000908152600b60209081526040808320600987015473ffffffffffffffffffffffffffffffffffffffff16845290915281208054909190611c52908490612ed2565b90915550506000600383018190556008830154611c859073ffffffffffffffffffffffffffffffffffffffff16600c1b90565b60008181526007602052604090205490915060011c68056bc75e2d631000008111611cc957600082815260076020526040902068056bc75e2d631000009055611cdb565b60008281526007602052604090208190555b600684015473ffffffffffffffffffffffffffffffffffffffff167f830501e61b8b075e170b22a430e39454bdb12ed3e9620e586430b6ac00079da5898989818110611d2957611d29612f9b565b90506020020135604051611d3f91815260200190565b60405180910390a285600101955050505050611b2d565b8082101561157e5763dfb035c96000526004601cfd5b8151606090600090818167ffffffffffffffff811115611d8e57611d8e612849565b604051908082528060200260200182016040528015611db7578160200160208202803683370190505b5090505b81831015611e3d576000611e10878581518110611dda57611dda612f9b565b602090810291909101810151600c1b6000908152600b825260408082208a835290925220546b3fffffffffffffffffffffff1690565b905080828581518110611e2557611e25612f9b565b60200260200101818152505083600101935050611dbb565b95945050505050565b60005473ffffffffffffffffffffffffffffffffffffffff163314611ec7576040517f08c379a000000000000000000000000000000000000000000000000000000000815260206004820152600c60248201527f554e415554484f52495a454400000000000000000000000000000000000000006044820152606401610c23565b815180611edc5763df9578836000526004601cfd5b81518114611ef25763ff633a386000526004601cfd5b60208301602083018260051b82015b808314611a5b578251600052600a60205260406000208251815550815183517f5d6e86e5341d57a92c49934296c51542a25015c9b1782a1c2722a940131c3d9a600080a3602083019250602082019150611f01565b60005473ffffffffffffffffffffffffffffffffffffffff163314611fd7576040517f08c379a000000000000000000000000000000000000000000000000000000000815260206004820152600c60248201527f554e415554484f52495a454400000000000000000000000000000000000000006044820152606401610c23565b600281905560405173ffffffffffffffffffffffffffffffffffffffff821681527fe127cf589a3879da0156d4a24f43b44f65cfa3570de594806b0bfa2fcf06884f90602001610cd5565b61202a61211e565b6120348282611b29565b33600c1b6000908152600b6020908152604080832087845290915290205460ff1c15156001141561206a5761206a84600061146d565b33600c1b6000818152600b6020908152604080832073ffffffffffffffffffffffffffffffffffffffff891684529091529020546120b8906b3fffffffffffffffffffffff16858784612650565b6120c3853386612515565b6040805173ffffffffffffffffffffffffffffffffffffffff871681526020810186905233917f2cd6435b1b961c13f55202979edd0765a809f69a539d8a477436c94c1211e43e910160405180910390a25061157e60018055565b6001546002141561215b576040517fab143c0600000000000000000000000000000000000000000000000000000000815260040160405180910390fd5b6002600155565b61218484848473ffffffffffffffffffffffffffffffffffffffff85166126ad565b61157e576040517f3b8474be00000000000000000000000000000000000000000000000000000000815260040160405180910390fd5b60008481526005602081815260409283902086518155908601516001820155918501516002830155606085015160038301556080850151600483015560a085015190820180547fffffffffffffffffffffffff000000000000000000000000000000000000000090811673ffffffffffffffffffffffffffffffffffffffff9384161790915560c0860151600684018054831691841691909117905560e08601516007840180548316918416919091179055610100860151600884018054831691841691909117905561012086015160099093018054909116929091169190911790556122a986868484612650565b60c083015183516060850151604051879373ffffffffffffffffffffffffffffffffffffffff16927f8fb3989f70bd172a37d15b41b015e48ea09d59329638377304a4198cd0c4ea659261230592918252602082015260400190565b60405180910390a3505050505050565b600080634d2b179160e01b8360405160240161233391815260200190565b604051602081830303815290604052907bffffffffffffffffffffffffffffffffffffffffffffffffffffffff19166020820180517bffffffffffffffffffffffffffffffffffffffffffffffffffffffff83818316178352505050509050600080600060206000855160208701600254617530fa92503d91506000519050809450826123c85763e10bf1cc6000526004601cfd5b50505050919050565b60006040517f23b872dd000000000000000000000000000000000000000000000000000000006000528460045283602452826044526020600060646000808a5af13d15601f3d1160016000511416171691506000606052806040525080612494576040517f08c379a000000000000000000000000000000000000000000000000000000000815260206004820152601460248201527f5452414e534645525f46524f4d5f4641494c45440000000000000000000000006044820152606401610c23565b5050505050565b600080600080600085875af1905080612510576040517f08c379a000000000000000000000000000000000000000000000000000000000815260206004820152601360248201527f4554485f5452414e534645525f4641494c4544000000000000000000000000006044820152606401610c23565b505050565b60006040517fa9059cbb000000000000000000000000000000000000000000000000000000006000528360045282602452602060006044600080895af13d15601f3d116001600051141617169150600060605280604052508061157e576040517f08c379a000000000000000000000000000000000000000000000000000000000815260206004820152600f60248201527f5452414e534645525f4641494c454400000000000000000000000000000000006044820152606401610c23565b4381600401541115612612576040517fd0404f8500000000000000000000000000000000000000000000000000000000815260040160405180910390fd5b600381015461264d576040517f63b4904e00000000000000000000000000000000000000000000000000000000815260040160405180910390fd5b50565b836126635763ce3a3d376000526004601cfd5b6000818152600b6020908152604080832073ffffffffffffffffffffffffffffffffffffffff86168452909152812080548592906126a2908490613024565b909155505050505050565b600083156126e9578360051b8501855b803580851160051b948552602094851852604060002093018181106126e1576126e6565b6126bd565b50505b501492915050565b60006020828403121561270357600080fd5b5035919050565b73ffffffffffffffffffffffffffffffffffffffff8116811461264d57600080fd5b60008083601f84011261273e57600080fd5b50813567ffffffffffffffff81111561275657600080fd5b6020830191508360208260051b850101111561277157600080fd5b9250929050565b6000806000806000806000806000806101008b8d03121561279857600080fd5b8a356127a38161270a565b995060208b01356127b38161270a565b985060408b01356127c38161270a565b975060608b01356127d38161270a565b965060808b0135955060a08b0135945060c08b013567ffffffffffffffff808211156127fe57600080fd5b61280a8e838f0161272c565b909650945060e08d013591508082111561282357600080fd5b506128308d828e0161272c565b915080935050809150509295989b9194979a5092959850565b7f4e487b7100000000000000000000000000000000000000000000000000000000600052604160045260246000fd5b604051601f82017fffffffffffffffffffffffffffffffffffffffffffffffffffffffffffffffe016810167ffffffffffffffff811182821017156128bf576128bf612849565b604052919050565b600067ffffffffffffffff8211156128e1576128e1612849565b5060051b60200190565b600082601f8301126128fc57600080fd5b8135602061291161290c836128c7565b612878565b82815260059290921b8401810191818101908684111561293057600080fd5b8286015b848110156129545780356129478161270a565b8352918301918301612934565b509695505050505050565b60006020828403121561297157600080fd5b813567ffffffffffffffff81111561298857600080fd5b612994848285016128eb565b949350505050565b6000602082840312156129ae57600080fd5b81356129b98161270a565b9392505050565b803580151581146129d057600080fd5b919050565b600080600080600060a086880312156129ed57600080fd5b85356129f88161270a565b945060208601356bffffffffffffffffffffffff81168114612a1957600080fd5b93506040860135612a298161270a565b9250612a37606087016129c0565b949793965091946080013592915050565b60006020808385031215612a5b57600080fd5b823567ffffffffffffffff811115612a7257600080fd5b8301601f81018513612a8357600080fd5b8035612a9161290c826128c7565b81815260059190911b82018301908381019087831115612ab057600080fd5b928401925b82841015612ace57833582529284019290840190612ab5565b979650505050505050565b600081518084526020808501945080840160005b83811015612b0957815187529582019590820190600101612aed565b509495945050505050565b7f4e487b7100000000000000000000000000000000000000000000000000000000600052602160045260246000fd5b604081526000612b566040830185612ad9565b8281036020848101919091528451808352858201928201906000805b82811015612bc45785516004808210612bb1577f4e487b7100000000000000000000000000000000000000000000000000000000845260218152602484fd5b5084529484019492840192600101612b72565b509198975050505050505050565b60008060408385031215612be557600080fd5b8235612bf08161270a565b9150612bfe602084016129c0565b90509250929050565b60008060008060008060c08789031215612c2057600080fd5b863595506020870135612c328161270a565b945060408701359350606087013592506080870135915060a087013560ff81168114612c5d57600080fd5b809150509295509295509295565b60008060408385031215612c7e57600080fd5b8235612c898161270a565b946020939093013593505050565b60008060408385031215612caa57600080fd5b8235612cb58161270a565b91506020830135612cc58161270a565b809150509250929050565b60008060408385031215612ce357600080fd5b823591506020830135612cc58161270a565b60008060208385031215612d0857600080fd5b823567ffffffffffffffff811115612d1f57600080fd5b6112e98582860161272c565b60008060408385031215612d3e57600080fd5b823567ffffffffffffffff811115612d5557600080fd5b612d61858286016128eb565b9250506020830135612cc58161270a565b6020815260006129b96020830184612ad9565b60008060408385031215612d9857600080fd5b823567ffffffffffffffff80821115612db057600080fd5b612dbc868387016128eb565b9350602091508185013581811115612dd357600080fd5b85019050601f81018613612de657600080fd5b8035612df461290c826128c7565b81815260059190911b82018301908381019088831115612e1357600080fd5b928401925b82841015612e3857612e29846129c0565b82529284019290840190612e18565b80955050505050509250929050565b60008060008060608587031215612e5d57600080fd5b8435612e688161270a565b935060208501359250604085013567ffffffffffffffff811115612e8b57600080fd5b612e978782880161272c565b95989497509550505050565b7f4e487b7100000000000000000000000000000000000000000000000000000000600052601160045260246000fd5b60008219821115612ee557612ee5612ea3565b500190565b60007fffffffffffffffffffffffffffffffffffffffffffffffffffffffffffffffff821415612f1c57612f1c612ea3565b5060010190565b600082612f59577f4e487b7100000000000000000000000000000000000000000000000000000000600052601260045260246000fd5b500490565b6000817fffffffffffffffffffffffffffffffffffffffffffffffffffffffffffffffff0483118215151615612f9657612f96612ea3565b500290565b7f4e487b7100000000000000000000000000000000000000000000000000000000600052603260045260246000fd5b6020808252825182820181905260009190848201906040850190845b8181101561301857835173ffffffffffffffffffffffffffffffffffffffff1683529284019291840191600101612fe6565b50909695505050505050565b60008282101561303657613036612ea3565b50039056fea164736f6c6343000809000a",
  "linkReferences": {},
  "deployedLinkReferences": {}
}