{
  "_format": "hh-sol-artifact-1",
  "contractName": "P2PIX",
  "sourceName": "contracts/p2pix.sol",
  "abi": [
    {
      "inputs": [
        {
          "internalType": "uint256",
          "name": "defaultBlocks",
          "type": "uint256"
        },
        {
          "internalType": "address[]",
          "name": "validSigners",
          "type": "address[]"
        },
        {
          "internalType": "contract IReputation",
          "name": "_reputation",
          "type": "address"
        },
        {
          "internalType": "address[]",
          "name": "tokens",
          "type": "address[]"
        },
        {
          "internalType": "bool[]",
          "name": "tokenStates",
          "type": "bool[]"
        }
      ],
      "stateMutability": "payable",
      "type": "constructor"
    },
    {
      "inputs": [],
      "name": "AddressDenied",
      "type": "error"
    },
    {
      "inputs": [],
      "name": "AlreadyReleased",
      "type": "error"
    },
    {
      "inputs": [],
      "name": "AmountNotAllowed",
      "type": "error"
    },
    {
      "inputs": [],
      "name": "DepositAlreadyExists",
      "type": "error"
    },
    {
      "inputs": [],
      "name": "InvalidDeposit",
      "type": "error"
    },
    {
      "inputs": [],
      "name": "InvalidSigner",
      "type": "error"
    },
    {
      "inputs": [],
      "name": "LengthMismatch",
      "type": "error"
    },
    {
      "inputs": [],
      "name": "LockExpired",
      "type": "error"
    },
    {
      "inputs": [],
      "name": "LoopOverflow",
      "type": "error"
    },
    {
      "inputs": [],
      "name": "NoTokens",
      "type": "error"
    },
    {
      "inputs": [],
      "name": "NotEnoughTokens",
      "type": "error"
    },
    {
      "inputs": [],
      "name": "NotExpired",
      "type": "error"
    },
    {
      "inputs": [],
      "name": "OnlySeller",
      "type": "error"
    },
    {
      "inputs": [],
      "name": "Reentrancy",
      "type": "error"
    },
    {
      "inputs": [],
      "name": "StaticCallFailed",
      "type": "error"
    },
    {
      "inputs": [],
      "name": "TokenDenied",
      "type": "error"
    },
    {
      "inputs": [],
      "name": "TxAlreadyUsed",
      "type": "error"
    },
    {
      "anonymous": false,
      "inputs": [
        {
          "indexed": true,
          "internalType": "address",
          "name": "token",
          "type": "address"
        },
        {
          "indexed": true,
          "internalType": "bool",
          "name": "state",
          "type": "bool"
        }
      ],
      "name": "AllowedERC20Updated",
      "type": "event"
    },
    {
      "anonymous": false,
      "inputs": [
        {
          "indexed": true,
          "internalType": "address",
          "name": "seller",
          "type": "address"
        },
        {
          "indexed": false,
          "internalType": "uint256",
          "name": "depositID",
          "type": "uint256"
        },
        {
          "indexed": false,
          "internalType": "address",
          "name": "token",
          "type": "address"
        },
        {
          "indexed": false,
          "internalType": "uint256",
          "name": "amount",
          "type": "uint256"
        }
      ],
      "name": "DepositAdded",
      "type": "event"
    },
    {
      "anonymous": false,
      "inputs": [
        {
          "indexed": true,
          "internalType": "address",
          "name": "seller",
          "type": "address"
        },
        {
          "indexed": false,
          "internalType": "uint256",
          "name": "depositID",
          "type": "uint256"
        }
      ],
      "name": "DepositClosed",
      "type": "event"
    },
    {
      "anonymous": false,
      "inputs": [
        {
          "indexed": true,
          "internalType": "address",
          "name": "seller",
          "type": "address"
        },
        {
          "indexed": false,
          "internalType": "uint256",
          "name": "depositID",
          "type": "uint256"
        },
        {
          "indexed": false,
          "internalType": "uint256",
          "name": "amount",
          "type": "uint256"
        }
      ],
      "name": "DepositWithdrawn",
      "type": "event"
    },
    {
      "anonymous": false,
      "inputs": [
        {
          "indexed": false,
          "internalType": "address",
          "name": "owner",
          "type": "address"
        },
        {
          "indexed": false,
          "internalType": "uint256",
          "name": "amount",
          "type": "uint256"
        }
      ],
      "name": "FundsWithdrawn",
      "type": "event"
    },
    {
      "anonymous": false,
      "inputs": [
        {
          "indexed": true,
          "internalType": "address",
          "name": "buyer",
          "type": "address"
        },
        {
          "indexed": true,
          "internalType": "bytes32",
          "name": "lockID",
          "type": "bytes32"
        },
        {
          "indexed": false,
          "internalType": "uint256",
          "name": "depositID",
          "type": "uint256"
        },
        {
          "indexed": false,
          "internalType": "uint256",
          "name": "amount",
          "type": "uint256"
        }
      ],
      "name": "LockAdded",
      "type": "event"
    },
    {
      "anonymous": false,
      "inputs": [
        {
          "indexed": false,
          "internalType": "uint256",
          "name": "blocks",
          "type": "uint256"
        }
      ],
      "name": "LockBlocksUpdated",
      "type": "event"
    },
    {
      "anonymous": false,
      "inputs": [
        {
          "indexed": true,
          "internalType": "address",
          "name": "buyer",
          "type": "address"
        },
        {
          "indexed": false,
          "internalType": "bytes32",
          "name": "lockId",
          "type": "bytes32"
        },
        {
          "indexed": false,
          "internalType": "uint256",
          "name": "amount",
          "type": "uint256"
        }
      ],
      "name": "LockReleased",
      "type": "event"
    },
    {
      "anonymous": false,
      "inputs": [
        {
          "indexed": true,
          "internalType": "address",
          "name": "buyer",
          "type": "address"
        },
        {
          "indexed": false,
          "internalType": "bytes32",
          "name": "lockId",
          "type": "bytes32"
        }
      ],
      "name": "LockReturned",
      "type": "event"
    },
    {
      "anonymous": false,
      "inputs": [
        {
          "indexed": true,
          "internalType": "address",
          "name": "user",
          "type": "address"
        },
        {
          "indexed": true,
          "internalType": "address",
          "name": "newOwner",
          "type": "address"
        }
      ],
      "name": "OwnerUpdated",
      "type": "event"
    },
    {
      "anonymous": false,
      "inputs": [
        {
          "indexed": false,
          "internalType": "address",
          "name": "reputation",
          "type": "address"
        }
      ],
      "name": "ReputationUpdated",
      "type": "event"
    },
    {
      "anonymous": false,
      "inputs": [
        {
          "indexed": false,
          "internalType": "address",
          "name": "seller",
          "type": "address"
        },
        {
          "indexed": false,
          "internalType": "bytes32",
          "name": "merkleRoot",
          "type": "bytes32"
        }
      ],
      "name": "RootUpdated",
      "type": "event"
    },
    {
      "anonymous": false,
      "inputs": [
        {
          "indexed": false,
          "internalType": "address[]",
          "name": "signers",
          "type": "address[]"
        }
      ],
      "name": "ValidSignersUpdated",
      "type": "event"
    },
    {
      "inputs": [],
      "name": "WAD",
      "outputs": [
        {
          "internalType": "uint256",
          "name": "",
          "type": "uint256"
        }
      ],
      "stateMutability": "view",
      "type": "function"
    },
    {
      "inputs": [
        {
          "internalType": "address",
          "name": "_addr",
          "type": "address"
        }
      ],
      "name": "_castAddrToKey",
      "outputs": [
        {
          "internalType": "uint256",
          "name": "_key",
          "type": "uint256"
        }
      ],
      "stateMutability": "pure",
      "type": "function"
    },
    {
      "inputs": [
        {
          "internalType": "contract ERC20",
          "name": "",
          "type": "address"
        }
      ],
      "name": "allowedERC20s",
      "outputs": [
        {
          "internalType": "bool",
          "name": "",
          "type": "bool"
        }
      ],
      "stateMutability": "view",
      "type": "function"
    },
    {
      "inputs": [
        {
          "internalType": "uint256",
          "name": "depositID",
          "type": "uint256"
        }
      ],
      "name": "cancelDeposit",
      "outputs": [],
      "stateMutability": "nonpayable",
      "type": "function"
    },
    {
      "inputs": [],
      "name": "defaultLockBlocks",
      "outputs": [
        {
          "internalType": "uint256",
          "name": "",
          "type": "uint256"
        }
      ],
      "stateMutability": "view",
      "type": "function"
    },
    {
      "inputs": [
        {
          "internalType": "address",
          "name": "_token",
          "type": "address"
        },
        {
          "internalType": "uint256",
          "name": "_amount",
          "type": "uint256"
        },
        {
          "internalType": "string",
          "name": "_pixTarget",
          "type": "string"
        },
        {
          "internalType": "bytes32",
          "name": "allowlistRoot",
          "type": "bytes32"
        }
      ],
      "name": "deposit",
      "outputs": [
        {
          "internalType": "uint256",
          "name": "depositID",
          "type": "uint256"
        }
      ],
      "stateMutability": "nonpayable",
      "type": "function"
    },
    {
      "inputs": [],
      "name": "depositCount",
      "outputs": [
        {
          "internalType": "uint256",
          "name": "_val",
          "type": "uint256"
        }
      ],
      "stateMutability": "view",
      "type": "function"
    },
    {
      "inputs": [
        {
          "internalType": "uint256",
          "name": "_depositID",
          "type": "uint256"
        },
        {
          "internalType": "address",
          "name": "_buyerAddress",
          "type": "address"
        },
        {
          "internalType": "address",
          "name": "_relayerTarget",
          "type": "address"
        },
        {
          "internalType": "uint256",
          "name": "_relayerPremium",
          "type": "uint256"
        },
        {
          "internalType": "uint256",
          "name": "_amount",
          "type": "uint256"
        },
        {
          "internalType": "bytes32[]",
          "name": "merkleProof",
          "type": "bytes32[]"
        },
        {
          "internalType": "bytes32[]",
          "name": "expiredLocks",
          "type": "bytes32[]"
        }
      ],
      "name": "lock",
      "outputs": [
        {
          "internalType": "bytes32",
          "name": "lockID",
          "type": "bytes32"
        }
      ],
      "stateMutability": "nonpayable",
      "type": "function"
    },
    {
      "inputs": [
        {
          "internalType": "uint256",
          "name": "",
          "type": "uint256"
        }
      ],
      "name": "mapDeposits",
      "outputs": [
        {
          "internalType": "uint256",
          "name": "remaining",
          "type": "uint256"
        },
        {
          "internalType": "string",
          "name": "pixTarget",
          "type": "string"
        },
        {
          "internalType": "address",
          "name": "seller",
          "type": "address"
        },
        {
          "internalType": "address",
          "name": "token",
          "type": "address"
        },
        {
          "internalType": "bool",
          "name": "valid",
          "type": "bool"
        }
      ],
      "stateMutability": "view",
      "type": "function"
    },
    {
      "inputs": [
        {
          "internalType": "bytes32",
          "name": "",
          "type": "bytes32"
        }
      ],
      "name": "mapLocks",
      "outputs": [
        {
          "internalType": "uint256",
          "name": "depositID",
          "type": "uint256"
        },
        {
          "internalType": "uint256",
          "name": "relayerPremium",
          "type": "uint256"
        },
        {
          "internalType": "uint256",
          "name": "amount",
          "type": "uint256"
        },
        {
          "internalType": "uint256",
          "name": "expirationBlock",
          "type": "uint256"
        },
        {
          "internalType": "address",
          "name": "buyerAddress",
          "type": "address"
        },
        {
          "internalType": "address",
          "name": "relayerTarget",
          "type": "address"
        },
        {
          "internalType": "address",
          "name": "relayerAddress",
          "type": "address"
        }
      ],
      "stateMutability": "view",
      "type": "function"
    },
    {
      "inputs": [],
      "name": "owner",
      "outputs": [
        {
          "internalType": "address",
          "name": "",
          "type": "address"
        }
      ],
      "stateMutability": "view",
      "type": "function"
    },
    {
      "inputs": [
        {
          "internalType": "bytes32",
          "name": "lockID",
          "type": "bytes32"
        },
        {
          "internalType": "address",
          "name": "_relayerTarget",
          "type": "address"
        },
        {
          "internalType": "bytes32",
          "name": "pixTimestamp",
          "type": "bytes32"
        },
        {
          "internalType": "bytes32",
          "name": "r",
          "type": "bytes32"
        },
        {
          "internalType": "bytes32",
          "name": "s",
          "type": "bytes32"
        },
        {
          "internalType": "uint8",
          "name": "v",
          "type": "uint8"
        }
      ],
      "name": "release",
      "outputs": [],
      "stateMutability": "nonpayable",
      "type": "function"
    },
    {
      "inputs": [],
      "name": "reputation",
      "outputs": [
        {
          "internalType": "contract IReputation",
          "name": "",
          "type": "address"
        }
      ],
      "stateMutability": "view",
      "type": "function"
    },
    {
      "inputs": [
        {
          "internalType": "uint256",
          "name": "",
          "type": "uint256"
        }
      ],
      "name": "sellerAllowList",
      "outputs": [
        {
          "internalType": "bytes32",
          "name": "",
          "type": "bytes32"
        }
      ],
      "stateMutability": "view",
      "type": "function"
    },
    {
      "inputs": [
        {
          "internalType": "uint256",
          "name": "_blocks",
          "type": "uint256"
        }
      ],
      "name": "setDefaultLockBlocks",
      "outputs": [],
      "stateMutability": "nonpayable",
      "type": "function"
    },
    {
      "inputs": [
        {
          "internalType": "address",
          "name": "newOwner",
          "type": "address"
        }
      ],
      "name": "setOwner",
      "outputs": [],
      "stateMutability": "nonpayable",
      "type": "function"
    },
    {
      "inputs": [
        {
          "internalType": "contract IReputation",
          "name": "_reputation",
          "type": "address"
        }
      ],
      "name": "setReputation",
      "outputs": [],
      "stateMutability": "nonpayable",
      "type": "function"
    },
    {
      "inputs": [
        {
          "internalType": "address",
          "name": "addr",
          "type": "address"
        },
        {
          "internalType": "bytes32",
          "name": "merkleroot",
          "type": "bytes32"
        }
      ],
      "name": "setRoot",
      "outputs": [],
      "stateMutability": "nonpayable",
      "type": "function"
    },
    {
      "inputs": [
        {
          "internalType": "address[]",
          "name": "_validSigners",
          "type": "address[]"
        }
      ],
      "name": "setValidSigners",
      "outputs": [],
      "stateMutability": "nonpayable",
      "type": "function"
    },
    {
      "inputs": [
        {
          "internalType": "address[]",
          "name": "_tokens",
          "type": "address[]"
        },
        {
          "internalType": "bool[]",
          "name": "_states",
          "type": "bool[]"
        }
      ],
      "name": "tokenSettings",
      "outputs": [],
      "stateMutability": "nonpayable",
      "type": "function"
    },
    {
      "inputs": [
        {
          "internalType": "bytes32[]",
          "name": "lockIDs",
          "type": "bytes32[]"
        }
      ],
      "name": "unlockExpired",
      "outputs": [],
      "stateMutability": "nonpayable",
      "type": "function"
    },
    {
      "inputs": [
        {
          "internalType": "bytes32",
          "name": "",
          "type": "bytes32"
        }
      ],
      "name": "usedTransactions",
      "outputs": [
        {
          "internalType": "bool",
          "name": "",
          "type": "bool"
        }
      ],
      "stateMutability": "view",
      "type": "function"
    },
    {
      "inputs": [
        {
          "internalType": "uint256",
          "name": "",
          "type": "uint256"
        }
      ],
      "name": "userRecord",
      "outputs": [
        {
          "internalType": "uint256",
          "name": "",
          "type": "uint256"
        }
      ],
      "stateMutability": "view",
      "type": "function"
    },
    {
      "inputs": [
        {
          "internalType": "uint256",
          "name": "",
          "type": "uint256"
        }
      ],
      "name": "validBacenSigners",
      "outputs": [
        {
          "internalType": "bool",
          "name": "",
          "type": "bool"
        }
      ],
      "stateMutability": "view",
      "type": "function"
    },
    {
      "inputs": [
        {
          "internalType": "uint256",
          "name": "depositID",
          "type": "uint256"
        },
        {
          "internalType": "bytes32[]",
          "name": "expiredLocks",
          "type": "bytes32[]"
        }
      ],
      "name": "withdraw",
      "outputs": [],
      "stateMutability": "nonpayable",
      "type": "function"
    },
    {
      "inputs": [],
      "name": "withdrawBalance",
      "outputs": [],
      "stateMutability": "nonpayable",
      "type": "function"
    },
    {
      "stateMutability": "payable",
      "type": "receive"
    }
  ],
  "bytecode": "0x60806040526001805560405162002a9a38038062002a9a8339810160408190526200002a916200049d565b600080546001600160a01b031916339081178255604051909182917f8292fce18fa69edf4db7b94ea2e58241df0ae57f97e0a6c9b29067028bf92d76908290a3506200007685620000a3565b620000818362000133565b6200008c84620001bd565b620000988282620002a1565b505050505062000620565b6000546001600160a01b03163314620000f25760405162461bcd60e51b815260206004820152600c60248201526b15539055551213d49256915160a21b60448201526064015b60405180910390fd5b806004557f70fa43ca70216ad905ade86b9e650a691b2ce5a01980d0a81bdd8324141b8511816040516200012891815260200190565b60405180910390a150565b6000546001600160a01b031633146200017e5760405162461bcd60e51b815260206004820152600c60248201526b15539055551213d49256915160a21b6044820152606401620000e9565b60028190556040516001600160a01b03821681527fe127cf589a3879da0156d4a24f43b44f65cfa3570de594806b0bfa2fcf06884f9060200162000128565b6000546001600160a01b03163314620002085760405162461bcd60e51b815260206004820152600c60248201526b15539055551213d49256915160a21b6044820152606401620000e9565b80516000905b808210156200026e57600062000246848481518110620002325762000232620005bb565b60200260200101516200038760201b60201c565b6000908152600660205260409020805460ff191660019081179091559290920191506200020e565b50507f14a422d2412784a5749d03da98921fe468c98577b767851389a9f58ea5a363d781604051620001289190620005d1565b6000546001600160a01b03163314620002ec5760405162461bcd60e51b815260206004820152600c60248201526b15539055551213d49256915160a21b6044820152606401620000e9565b815180620003025763df9578836000526004601cfd5b81518114620003195763ff633a386000526004601cfd5b60208301602083016020830282015b8083146200037f578251600052600b60205260406000208251815550815183517f5d6e86e5341d57a92c49934296c51542a25015c9b1782a1c2722a940131c3d9a600080a360208301925060208201915062000328565b505050505050565b600c1b611000600160ac1b031690565b634e487b7160e01b600052604160045260246000fd5b604051601f8201601f191681016001600160401b0381118282101715620003d857620003d862000397565b604052919050565b60006001600160401b03821115620003fc57620003fc62000397565b5060051b60200190565b6001600160a01b03811681146200041c57600080fd5b50565b600082601f8301126200043157600080fd5b815160206200044a6200044483620003e0565b620003ad565b82815260059290921b840181019181810190868411156200046a57600080fd5b8286015b8481101562000492578051620004848162000406565b83529183019183016200046e565b509695505050505050565b600080600080600060a08688031215620004b657600080fd5b8551602080880151919650906001600160401b0380821115620004d857600080fd5b620004e68a838b016200041f565b965060408901519150620004fa8262000406565b6060890151919550808211156200051057600080fd5b6200051e8a838b016200041f565b945060808901519150808211156200053557600080fd5b508701601f810189136200054857600080fd5b8051620005596200044482620003e0565b81815260059190911b8201830190838101908b8311156200057957600080fd5b928401925b82841015620005a95783518015158114620005995760008081fd5b825292840192908401906200057e565b80955050505050509295509295909350565b634e487b7160e01b600052603260045260246000fd5b6020808252825182820181905260009190848201906040850190845b81811015620006145783516001600160a01b031683529284019291840191600101620005ed565b50909695505050505050565b61246a80620006306000396000f3fe6080604052600436106101a55760003560e01c806372fada5c116100e15780638e2749d61161008a57806398a268711161006457806398a268711461056b578063c52164c61461059b578063d6e8b973146105bb578063f7d0e04b146105db57600080fd5b80638e2749d6146105045780638e2a3d36146105245780639872dbfe1461055557600080fd5b80637f94f65d116100bb5780637f94f65d1461048c5780638652b37e146104ac5780638da5cb5b146104cc57600080fd5b806372fada5c1461041f578063758d77d41461043f57806377cd38a41461045f57600080fd5b8063363179721161014e578063574983c811610128578063574983c81461039e5780635fd8c710146103be57806369cc6af4146103d35780636a1460241461040357600080fd5b80633631797214610313578063461f3120146103335780634b2ae9801461037357600080fd5b806316d722401161017f57806316d722401461023357806329cc7d10146102dc5780632dfdf0b5146102fc57600080fd5b806304937320146101b15780630d2a2d44146101f157806313af40351461021357600080fd5b366101ac57005b600080fd5b3480156101bd57600080fd5b506101de6101cc366004611d07565b60056020526000908152604090205481565b6040519081526020015b60405180910390f35b3480156101fd57600080fd5b5061021161020c366004611e14565b6105fb565b005b34801561021f57600080fd5b5061021161022e366004611e51565b6106ec565b34801561023f57600080fd5b5061029861024e366004611d07565b600860205260009081526040902080546001820154600283015460038401546004850154600586015460069096015494959394929391926001600160a01b03918216928216911687565b6040805197885260208801969096529486019390935260608501919091526001600160a01b03908116608085015290811660a08401521660c082015260e0016101e8565b3480156102e857600080fd5b506101de6102f7366004611e6e565b61078d565b34801561030857600080fd5b506003546101de9081565b34801561031f57600080fd5b5061021161032e366004611f4b565b610991565b34801561033f57600080fd5b5061036361034e366004611d07565b60096020526000908152604090205460ff1681565b60405190151581526020016101e8565b34801561037f57600080fd5b506101de61038e366004611e51565b600c1b611000600160ac1b031690565b3480156103aa57600080fd5b506102116103b9366004611d07565b610a51565b3480156103ca57600080fd5b50610211610acf565b3480156103df57600080fd5b506103636103ee366004611e51565b600b6020526000908152604090205460ff1681565b34801561040f57600080fd5b506101de670de0b6b3a764000081565b34801561042b57600080fd5b5061021161043a366004611d07565b610b59565b34801561044b57600080fd5b5061021161045a366004611f97565b610be1565b34801561046b57600080fd5b506101de61047a366004611d07565b600a6020526000908152604090205481565b34801561049857600080fd5b506102116104a7366004611ffb565b61103a565b3480156104b857600080fd5b506101de6104c7366004612027565b6110e6565b3480156104d857600080fd5b506000546104ec906001600160a01b031681565b6040516001600160a01b0390911681526020016101e8565b34801561051057600080fd5b5061021161051f3660046120db565b611311565b34801561053057600080fd5b5061054461053f366004611d07565b611479565b6040516101e895949392919061211d565b34801561056157600080fd5b506101de60045481565b34801561057757600080fd5b50610363610586366004611d07565b60066020526000908152604090205460ff1681565b3480156105a757600080fd5b506002546104ec906001600160a01b031681565b3480156105c757600080fd5b506102116105d63660046121aa565b611543565b3480156105e757600080fd5b506102116105f6366004611e51565b61161b565b6000546001600160a01b031633146106495760405162461bcd60e51b815260206004820152600c60248201526b15539055551213d49256915160a21b60448201526064015b60405180910390fd5b80516000905b808210156106b057600061068984848151811061066e5761066e612274565b6020026020010151611000600160ac1b03600c9190911b1690565b6000908152600660205260409020805460ff1916600190811790915592909201915061064f565b50507f14a422d2412784a5749d03da98921fe468c98577b767851389a9f58ea5a363d7816040516106e1919061228a565b60405180910390a150565b6000546001600160a01b031633146107355760405162461bcd60e51b815260206004820152600c60248201526b15539055551213d49256915160a21b6044820152606401610640565b6000805473ffffffffffffffffffffffffffffffffffffffff19166001600160a01b0383169081178255604051909133917f8292fce18fa69edf4db7b94ea2e58241df0ae57f97e0a6c9b29067028bf92d769190a350565b6001600160a01b0385166000908152600b6020526040812054869060ff166107e1576040517f1578328e00000000000000000000000000000000000000000000000000000000815260040160405180910390fd5b6107e96116a2565b915060006040518060a0016040528088815260200187878080601f0160208091040260200160405190810160405280939291908181526020018383808284376000920191909152505050908252503360208201526001600160a01b038a1660408201526001606090910152905061085e6116b2565b831561086e5761086e338561103a565b600083815260076020908152604090912082518155818301518051849361089c926001850192910190611c6e565b5060408201516002820180546001600160a01b0392831673ffffffffffffffffffffffffffffffffffffffff199091161790556060830151600392830180546080909501511515600160a01b027fffffffffffffffffffffff0000000000000000000000000000000000000000009095169190921617929092179091556109269080546001019055565b6109328233308a6116f6565b61093b60018055565b604080518481526001600160a01b038a16602082015290810188905233907f25ac57b911b0f66b64c294827f539545fbc3ddd002cafab117776274f3241e4c9060600160405180910390a2505095945050505050565b6109996116b2565b6109a2836117a6565b6109ac8282611311565b60008381526007602052604090206003810154600160a01b900460ff161515600114156109dc576109dc84610b59565b600381015481546000835560028301546001600160a01b0392831692610a0591849116836117fc565b604080518781526020810183905233917f7719804546c0185709e60c90d164447ff251a5ba29af0216faa921350f6bebf7910160405180910390a2505050610a4c60018055565b505050565b6000546001600160a01b03163314610a9a5760405162461bcd60e51b815260206004820152600c60248201526b15539055551213d49256915160a21b6044820152606401610640565b806004557f70fa43ca70216ad905ade86b9e650a691b2ce5a01980d0a81bdd8324141b8511816040516106e191815260200190565b6000546001600160a01b03163314610b185760405162461bcd60e51b815260206004820152600c60248201526b15539055551213d49256915160a21b6044820152606401610640565b47610b2333826118a1565b60408051338152602081018390527feaff4b37086828766ad3268786972c0cd24259d4c87a80f9d3963a3c3d999b0d91016106e1565b610b62816117a6565b6000818152600760209081526040918290206003810180547fffffffffffffffffffffff00ffffffffffffffffffffffffffffffffffffffff1690556002015491518381526001600160a01b03909216917fb4d98b272597e828d9b172c0d44390d5b267040e918088eac8a0a0fadcb81c70910160405180910390a250565b610be96116b2565b60008681526008602052604090206002810154610c32576040517f63b4904e00000000000000000000000000000000000000000000000000000000815260040160405180910390fd5b4381600301541015610c70576040517ff6fafba000000000000000000000000000000000000000000000000000000000815260040160405180910390fd5b8054600090815260076020908152604080832060028501549151909392610ca092600186019290918b9101612312565b604051602081830303815290604052805190602001209050600081604051602001610cf791907f19457468657265756d205369676e6564204d6573736167653a0a3332000000008152601c810191909152603c0190565b60408051601f1981840301815291815281516020928301206000858152600990935291205490915060ff16151560011415610d5e576040517ff490a6ea00000000000000000000000000000000000000000000000000000000815260040160405180910390fd5b6040805160008082526020820180845284905260ff8816928201929092526060810189905260808101889052610dd29060019060a0016020604051602081039080840390855afa158015610db6573d6000803e3d6000fd5b5050604051601f190151600c1b611000600160ac1b0316919050565b60008181526006602052604090205490915060ff16610e1d576040517f815e1d6400000000000000000000000000000000000000000000000000000000815260040160405180910390fd5b6003840154600286015460018701546001600160a01b0390921691600090610e4590836123cf565b600060028a0181905560038a01819055878152600960205260409020805460ff191660011790556006890154909150336001600160a01b0390911614610ef6576001880154611000600160ac1b0333600c1b1660009081526005602052604081208054909190610eb69084906123e6565b90915550506006880154600c1b611000600160ac1b031660009081526005602052604081208054849290610eeb9084906123e6565b90915550610f389050565b818860010154610f0691906123e6565b611000600160ac1b0333600c1b1660009081526005602052604081208054909190610f329084906123e6565b90915550505b6004880154610f529084906001600160a01b0316836117fc565b600188015415610fbe5760058801546001600160a01b038e8116911614610faf5760058801546001808a0154610f979286926001600160a01b0390911691901c6117fc565b610faa838e60018b60010154901c6117fc565b610fbe565b610fbe838e8a600101546117fc565b8760040160009054906101000a90046001600160a01b03166001600160a01b03167f3fd2eee5028b09fa70abe3da4f6023ea41bfde24cfcb9c167f17d6fbe79eece38f84604051611019929190918252602082015260400190565b60405180910390a2505050505050505061103260018055565b505050505050565b6001600160a01b0382163314156110b457611000600160ac1b03600c83901b166000908152600a602090815260409182902083905581516001600160a01b038516815290810183905281517f0b294da292f26e55fd442b5c0164fbb9013036ff00c5cfdde0efd01c1baaf632929181900390910190a15050565b6040517f85d1f72600000000000000000000000000000000000000000000000000000000815260040160405180910390fd5b60006110f06116b2565b6110fa8383611311565b60008a81526007602052604090206003810154600160a01b900460ff1661114d576040517fb2e532de00000000000000000000000000000000000000000000000000000000815260040160405180910390fd5b8054871115611188576040517f22bbb43c00000000000000000000000000000000000000000000000000000000815260040160405180910390fd5b6111938b888c6118fc565b915060006040518060e001604052808d81526020018a8152602001898152602001600454436111c291906123e6565b81526001600160a01b03808e1660208301528c166040820152336060909101529050851561122b576002820154600c1b611000600160ac1b03166000908152600a60205260409020546112199088908890336119ac565b6112248382846119f7565b50506112fb565b68056bc75e2d6310000081604001511161124a576112248382846119f7565b611000600160ac1b0333600c1b166000908152600560205260408120549061128261127d670de0b6b3a7640000846123fe565b611af5565b9050611296670de0b6b3a764000082612420565b836040015111806112b4575069d3c21bcecceda10000008360400151115b156112eb576040517f1c18f84600000000000000000000000000000000000000000000000000000000815260040160405180910390fd5b6112f68584866119f7565b505050505b61130460018055565b9998505050505050505050565b6000815b8082101561145d5760006008600086868681811061133557611335612274565b905060200201358152602001908152602001600020905061135581611bb1565b600281015481546000908152600760205260408120805490919061137a9084906123e6565b90915550506000600282018190556006820154600c1b611000600160ac1b031660008181526005602052604090205490915060011c68056bc75e2d6310000081116113de57600082815260056020526040902068056bc75e2d6310000090556113f0565b60008281526005602052604090208190555b60048301546001600160a01b03167f67e089478e21dd12c98e69331c4152f6c9b2038b91e0f28268ffa01558c0b4ff88888881811061143157611431612274565b9050602002013560405161144791815260200190565b60405180910390a2846001019450505050611315565b808210156114735763dfb035c96000526004601cfd5b50505050565b6007602052600090815260409020805460018201805491929161149b906122d7565b80601f01602080910402602001604051908101604052809291908181526020018280546114c7906122d7565b80156115145780601f106114e957610100808354040283529160200191611514565b820191906000526020600020905b8154815290600101906020018083116114f757829003601f168201915b50505050600283015460039093015491926001600160a01b03908116929081169150600160a01b900460ff1685565b6000546001600160a01b0316331461158c5760405162461bcd60e51b815260206004820152600c60248201526b15539055551213d49256915160a21b6044820152606401610640565b8151806115a15763df9578836000526004601cfd5b815181146115b75763ff633a386000526004601cfd5b60208301602083016020830282015b808314611032578251600052600b60205260406000208251815550815183517f5d6e86e5341d57a92c49934296c51542a25015c9b1782a1c2722a940131c3d9a600080a36020830192506020820191506115c6565b6000546001600160a01b031633146116645760405162461bcd60e51b815260206004820152600c60248201526b15539055551213d49256915160a21b6044820152606401610640565b60028190556040516001600160a01b03821681527fe127cf589a3879da0156d4a24f43b44f65cfa3570de594806b0bfa2fcf06884f906020016106e1565b60006116ad60035490565b905090565b600154600214156116ef576040517fab143c0600000000000000000000000000000000000000000000000000000000815260040160405180910390fd5b6002600155565b60006040517f23b872dd000000000000000000000000000000000000000000000000000000006000528460045283602452826044526020600060646000808a5af13d15601f3d116001600051141617169150600060605280604052508061179f5760405162461bcd60e51b815260206004820152601460248201527f5452414e534645525f46524f4d5f4641494c45440000000000000000000000006044820152606401610640565b5050505050565b6000818152600760205260409020600201546001600160a01b031633146117f9576040517f85d1f72600000000000000000000000000000000000000000000000000000000815260040160405180910390fd5b50565b60006040517fa9059cbb000000000000000000000000000000000000000000000000000000006000528360045282602452602060006044600080895af13d15601f3d11600160005114161716915060006060528060405250806114735760405162461bcd60e51b815260206004820152600f60248201527f5452414e534645525f4641494c454400000000000000000000000000000000006044820152606401610640565b600080600080600085875af1905080610a4c5760405162461bcd60e51b815260206004820152601360248201527f4554485f5452414e534645525f4641494c4544000000000000000000000000006044820152606401610640565b6040805160208101859052908101839052606082811b7fffffffffffffffffffffffffffffffffffffffff0000000000000000000000001690820152600090607401604051602081830303815290604052805190602001209050436008600083815260200190815260200160002060030154106119a5576040517fd0404f8500000000000000000000000000000000000000000000000000000000815260040160405180910390fd5b9392505050565b6119c18484846001600160a01b038516611c2a565b611473576040517f3b8474be00000000000000000000000000000000000000000000000000000000815260040160405180910390fd5b600083815260086020908152604080832085518155918501516001830155840151600282018190556060850151600383015560808501516004830180546001600160a01b0392831673ffffffffffffffffffffffffffffffffffffffff199182161790915560a087015160058501805491841691831691909117905560c08701516006909401805494909216931692909217909155825490918391611a9d9084906123cf565b9091555050608082015182516040808501518151928352602083015285926001600160a01b0316917f2a28b2ae47b0bd4b104e7cd29b1dfa72846af8c4cfdc009da2ae29db68cb67ea910160405180910390a3505050565b600080634d2b179160e01b83604051602401611b1391815260200190565b604051602081830303815290604052907bffffffffffffffffffffffffffffffffffffffffffffffffffffffff19166020820180517bffffffffffffffffffffffffffffffffffffffffffffffffffffffff83818316178352505050509050600080600060206000855160208701600254617530fa92503d9150600051905080945082611ba85763e10bf1cc6000526004601cfd5b50505050919050565b4381600301541115611bef576040517fd0404f8500000000000000000000000000000000000000000000000000000000815260040160405180910390fd5b60028101546117f9576040517f63b4904e00000000000000000000000000000000000000000000000000000000815260040160405180910390fd5b60008315611c66578360051b8501855b803580851160051b94855260209485185260406000209301818110611c5e57611c63565b611c3a565b50505b501492915050565b828054611c7a906122d7565b90600052602060002090601f016020900481019282611c9c5760008555611ce2565b82601f10611cb557805160ff1916838001178555611ce2565b82800160010185558215611ce2579182015b82811115611ce2578251825591602001919060010190611cc7565b50611cee929150611cf2565b5090565b5b80821115611cee5760008155600101611cf3565b600060208284031215611d1957600080fd5b5035919050565b634e487b7160e01b600052604160045260246000fd5b604051601f8201601f1916810167ffffffffffffffff81118282101715611d5f57611d5f611d20565b604052919050565b600067ffffffffffffffff821115611d8157611d81611d20565b5060051b60200190565b6001600160a01b03811681146117f957600080fd5b600082601f830112611db157600080fd5b81356020611dc6611dc183611d67565b611d36565b82815260059290921b84018101918181019086841115611de557600080fd5b8286015b84811015611e09578035611dfc81611d8b565b8352918301918301611de9565b509695505050505050565b600060208284031215611e2657600080fd5b813567ffffffffffffffff811115611e3d57600080fd5b611e4984828501611da0565b949350505050565b600060208284031215611e6357600080fd5b81356119a581611d8b565b600080600080600060808688031215611e8657600080fd5b8535611e9181611d8b565b945060208601359350604086013567ffffffffffffffff80821115611eb557600080fd5b818801915088601f830112611ec957600080fd5b813581811115611ed857600080fd5b896020828501011115611eea57600080fd5b96999598505060200195606001359392505050565b60008083601f840112611f1157600080fd5b50813567ffffffffffffffff811115611f2957600080fd5b6020830191508360208260051b8501011115611f4457600080fd5b9250929050565b600080600060408486031215611f6057600080fd5b83359250602084013567ffffffffffffffff811115611f7e57600080fd5b611f8a86828701611eff565b9497909650939450505050565b60008060008060008060c08789031215611fb057600080fd5b863595506020870135611fc281611d8b565b945060408701359350606087013592506080870135915060a087013560ff81168114611fed57600080fd5b809150509295509295509295565b6000806040838503121561200e57600080fd5b823561201981611d8b565b946020939093013593505050565b600080600080600080600080600060e08a8c03121561204557600080fd5b8935985060208a013561205781611d8b565b975060408a013561206781611d8b565b965060608a0135955060808a0135945060a08a013567ffffffffffffffff8082111561209257600080fd5b61209e8d838e01611eff565b909650945060c08c01359150808211156120b757600080fd5b506120c48c828d01611eff565b915080935050809150509295985092959850929598565b600080602083850312156120ee57600080fd5b823567ffffffffffffffff81111561210557600080fd5b61211185828601611eff565b90969095509350505050565b8581526000602060a08184015286518060a085015260005b818110156121515788810183015185820160c001528201612135565b8181111561216357600060c083870101525b50601f01601f1916830160c0019150612189905060408301866001600160a01b03169052565b6001600160a01b038416606083015282151560808301529695505050505050565b600080604083850312156121bd57600080fd5b823567ffffffffffffffff808211156121d557600080fd5b6121e186838701611da0565b93506020915081850135818111156121f857600080fd5b85019050601f8101861361220b57600080fd5b8035612219611dc182611d67565b81815260059190911b8201830190838101908883111561223857600080fd5b928401925b8284101561226557833580151581146122565760008081fd5b8252928401929084019061223d565b80955050505050509250929050565b634e487b7160e01b600052603260045260246000fd5b6020808252825182820181905260009190848201906040850190845b818110156122cb5783516001600160a01b0316835292840192918401916001016122a6565b50909695505050505050565b600181811c908216806122eb57607f821691505b6020821081141561230c57634e487b7160e01b600052602260045260246000fd5b50919050565b600080855481600182811c91508083168061232e57607f831692505b602080841082141561234e57634e487b7160e01b86526022600452602486fd5b8180156123625760018114612373576123a0565b60ff198616895284890196506123a0565b60008c81526020902060005b868110156123985781548b82015290850190830161237f565b505084890196505b5098855250505050938401929092525050604001919050565b634e487b7160e01b600052601160045260246000fd5b6000828210156123e1576123e16123b9565b500390565b600082198211156123f9576123f96123b9565b500190565b60008261241b57634e487b7160e01b600052601260045260246000fd5b500490565b6000817fffffffffffffffffffffffffffffffffffffffffffffffffffffffffffffffff0483118215151615612458576124586123b9565b50029056fea164736f6c6343000809000a",
  "linkReferences": {},
  "deployedLinkReferences": {}
}