{
  "_format": "hh-sol-artifact-1",
  "contractName": "P2PIX",
  "sourceName": "contracts/p2pix.sol",
  "abi": [
    {
      "inputs": [
        {
          "internalType": "uint256",
          "name": "defaultBlocks",
          "type": "uint256"
        },
        {
          "internalType": "address[]",
          "name": "validSigners",
          "type": "address[]"
        }
      ],
      "stateMutability": "nonpayable",
      "type": "constructor"
    },
    {
      "anonymous": false,
      "inputs": [
        {
          "indexed": true,
          "internalType": "address",
          "name": "seller",
          "type": "address"
        },
        {
          "indexed": false,
          "internalType": "bytes32",
          "name": "depositID",
          "type": "bytes32"
        },
        {
          "indexed": false,
          "internalType": "address",
          "name": "token",
          "type": "address"
        },
        {
          "indexed": false,
          "internalType": "uint256",
          "name": "price",
          "type": "uint256"
        },
        {
          "indexed": false,
          "internalType": "uint256",
          "name": "amount",
          "type": "uint256"
        }
      ],
      "name": "DepositAdded",
      "type": "event"
    },
    {
      "anonymous": false,
      "inputs": [
        {
          "indexed": true,
          "internalType": "address",
          "name": "seller",
          "type": "address"
        },
        {
          "indexed": false,
          "internalType": "bytes32",
          "name": "depositID",
          "type": "bytes32"
        }
      ],
      "name": "DepositClosed",
      "type": "event"
    },
    {
      "anonymous": false,
      "inputs": [
        {
          "indexed": true,
          "internalType": "bytes32",
          "name": "depositID",
          "type": "bytes32"
        },
        {
          "indexed": false,
          "internalType": "uint256",
          "name": "price",
          "type": "uint256"
        }
      ],
      "name": "DepositPriceChanged",
      "type": "event"
    },
    {
      "anonymous": false,
      "inputs": [
        {
          "indexed": true,
          "internalType": "address",
          "name": "seller",
          "type": "address"
        },
        {
          "indexed": false,
          "internalType": "bytes32",
          "name": "depositID",
          "type": "bytes32"
        },
        {
          "indexed": false,
          "internalType": "uint256",
          "name": "amount",
          "type": "uint256"
        }
      ],
      "name": "DepositWithdrawn",
      "type": "event"
    },
    {
      "anonymous": false,
      "inputs": [
        {
          "indexed": true,
          "internalType": "address",
          "name": "buyer",
          "type": "address"
        },
        {
          "indexed": true,
          "internalType": "bytes32",
          "name": "lockID",
          "type": "bytes32"
        },
        {
          "indexed": false,
          "internalType": "bytes32",
          "name": "depositID",
          "type": "bytes32"
        },
        {
          "indexed": false,
          "internalType": "uint256",
          "name": "amount",
          "type": "uint256"
        }
      ],
      "name": "LockAdded",
      "type": "event"
    },
    {
      "anonymous": false,
      "inputs": [
        {
          "indexed": true,
          "internalType": "address",
          "name": "buyer",
          "type": "address"
        },
        {
          "indexed": false,
          "internalType": "bytes32",
          "name": "lockId",
          "type": "bytes32"
        }
      ],
      "name": "LockReleased",
      "type": "event"
    },
    {
      "anonymous": false,
      "inputs": [
        {
          "indexed": true,
          "internalType": "address",
          "name": "buyer",
          "type": "address"
        },
        {
          "indexed": false,
          "internalType": "bytes32",
          "name": "lockId",
          "type": "bytes32"
        }
      ],
      "name": "LockReturned",
      "type": "event"
    },
    {
      "inputs": [
        {
          "internalType": "bytes32",
          "name": "depositID",
          "type": "bytes32"
        }
      ],
      "name": "cancelDeposit",
      "outputs": [],
      "stateMutability": "nonpayable",
      "type": "function"
    },
    {
      "inputs": [
        {
          "internalType": "bytes32",
          "name": "depositID",
          "type": "bytes32"
        },
        {
          "internalType": "uint256",
          "name": "price",
          "type": "uint256"
        }
      ],
      "name": "changeDepositPrice",
      "outputs": [],
      "stateMutability": "nonpayable",
      "type": "function"
    },
    {
      "inputs": [],
      "name": "defaultLockBlocks",
      "outputs": [
        {
          "internalType": "uint256",
          "name": "",
          "type": "uint256"
        }
      ],
      "stateMutability": "view",
      "type": "function"
    },
    {
      "inputs": [
        {
          "internalType": "address",
          "name": "token",
          "type": "address"
        },
        {
          "internalType": "uint256",
          "name": "amount",
          "type": "uint256"
        },
        {
          "internalType": "uint256",
          "name": "price",
          "type": "uint256"
        },
        {
          "internalType": "string",
          "name": "pixTarget",
          "type": "string"
        }
      ],
      "name": "deposit",
      "outputs": [
        {
          "internalType": "bytes32",
          "name": "depositID",
          "type": "bytes32"
        }
      ],
      "stateMutability": "nonpayable",
      "type": "function"
    },
    {
      "inputs": [
        {
          "internalType": "bytes32",
          "name": "depositID",
          "type": "bytes32"
        },
        {
          "internalType": "address",
          "name": "targetAddress",
          "type": "address"
        },
        {
          "internalType": "address",
          "name": "relayerAddress",
          "type": "address"
        },
        {
          "internalType": "uint256",
          "name": "relayerPremium",
          "type": "uint256"
        },
        {
          "internalType": "uint256",
          "name": "amount",
          "type": "uint256"
        },
        {
          "internalType": "bytes32[]",
          "name": "expiredLocks",
          "type": "bytes32[]"
        }
      ],
      "name": "lock",
      "outputs": [
        {
          "internalType": "bytes32",
          "name": "lockID",
          "type": "bytes32"
        }
      ],
      "stateMutability": "nonpayable",
      "type": "function"
    },
    {
      "inputs": [
        {
          "internalType": "bytes32",
          "name": "lockID",
          "type": "bytes32"
        },
        {
          "internalType": "uint256",
          "name": "pixTimestamp",
          "type": "uint256"
        },
        {
          "internalType": "bytes32",
          "name": "r",
          "type": "bytes32"
        },
        {
          "internalType": "bytes32",
          "name": "s",
          "type": "bytes32"
        },
        {
          "internalType": "uint8",
          "name": "v",
          "type": "uint8"
        }
      ],
      "name": "release",
      "outputs": [],
      "stateMutability": "nonpayable",
      "type": "function"
    },
    {
      "inputs": [
        {
          "internalType": "address",
          "name": "",
          "type": "address"
        }
      ],
      "name": "validBacenSigners",
      "outputs": [
        {
          "internalType": "bool",
          "name": "",
          "type": "bool"
        }
      ],
      "stateMutability": "view",
      "type": "function"
    },
    {
      "inputs": [
        {
          "internalType": "bytes32",
          "name": "depositID",
          "type": "bytes32"
        },
        {
          "internalType": "bytes32[]",
          "name": "expiredLocks",
          "type": "bytes32[]"
        }
      ],
      "name": "withdraw",
      "outputs": [],
      "stateMutability": "nonpayable",
      "type": "function"
    }
  ],
  "bytecode": "0x60806040523480156200001157600080fd5b50604051620026cf380380620026cf83398181016040528101906200003791906200030d565b8160008190555060005b81518160ff161015620000db576001806000848460ff16815181106200006c576200006b62000373565b5b602002602001015173ffffffffffffffffffffffffffffffffffffffff1673ffffffffffffffffffffffffffffffffffffffff16815260200190815260200160002060006101000a81548160ff0219169083151502179055508080620000d290620003de565b91505062000041565b5050506200040c565b6000604051905090565b600080fd5b600080fd5b6000819050919050565b6200010d81620000f8565b81146200011957600080fd5b50565b6000815190506200012d8162000102565b92915050565b600080fd5b6000601f19601f8301169050919050565b7f4e487b7100000000000000000000000000000000000000000000000000000000600052604160045260246000fd5b620001838262000138565b810181811067ffffffffffffffff82111715620001a557620001a462000149565b5b80604052505050565b6000620001ba620000e4565b9050620001c8828262000178565b919050565b600067ffffffffffffffff821115620001eb57620001ea62000149565b5b602082029050602081019050919050565b600080fd5b600073ffffffffffffffffffffffffffffffffffffffff82169050919050565b60006200022e8262000201565b9050919050565b620002408162000221565b81146200024c57600080fd5b50565b600081519050620002608162000235565b92915050565b60006200027d6200027784620001cd565b620001ae565b90508083825260208201905060208402830185811115620002a357620002a2620001fc565b5b835b81811015620002d05780620002bb88826200024f565b845260208401935050602081019050620002a5565b5050509392505050565b600082601f830112620002f257620002f162000133565b5b81516200030484826020860162000266565b91505092915050565b60008060408385031215620003275762000326620000ee565b5b600062000337858286016200011c565b925050602083015167ffffffffffffffff8111156200035b576200035a620000f3565b5b6200036985828601620002da565b9150509250929050565b7f4e487b7100000000000000000000000000000000000000000000000000000000600052603260045260246000fd5b7f4e487b7100000000000000000000000000000000000000000000000000000000600052601160045260246000fd5b600060ff82169050919050565b6000620003eb82620003d1565b915060ff8203620004015762000400620003a2565b5b600182019050919050565b6122b3806200041c6000396000f3fe608060405234801561001057600080fd5b50600436106100885760003560e01c8063708ace651161005b578063708ace65146101115780639872dbfe14610141578063b93bd7d41461015f578063e33f72911461018f57610088565b8063314044841461008d5780633a8cbc38146100a95780634b83a7be146100d95780634e1389ed146100f5575b600080fd5b6100a760048036038101906100a291906111a4565b6101ab565b005b6100c360048036038101906100be91906112ca565b610307565b6040516100d09190611361565b60405180910390f35b6100f360048036038101906100ee91906113d2565b610612565b005b61010f600480360381019061010a919061146b565b610835565b005b61012b600480360381019061012691906114e6565b610c3b565b6040516101389190611361565b60405180910390f35b610149610f58565b60405161015691906115a4565b60405180910390f35b610179600480360381019061017491906115bf565b610f5e565b6040516101869190611607565b60405180910390f35b6101a960048036038101906101a49190611622565b610f7e565b005b803373ffffffffffffffffffffffffffffffffffffffff166002600083815260200190815260200160002060000160009054906101000a900473ffffffffffffffffffffffffffffffffffffffff1673ffffffffffffffffffffffffffffffffffffffff1614610250576040517f08c379a0000000000000000000000000000000000000000000000000000000008152600401610247906116e5565b60405180910390fd5b60006002600084815260200190815260200160002060040160006101000a81548160ff0219169083151502179055506002600083815260200190815260200160002060000160009054906101000a900473ffffffffffffffffffffffffffffffffffffffff1673ffffffffffffffffffffffffffffffffffffffff167f81a84d666c6a692c1cf93ca3b3648cc7bf23d34a1c6afa2e15e346f424baa06c836040516102fb9190611361565b60405180910390a25050565b600082828660405160200161031e93929190611765565b6040516020818303038152906040528051906020012090506002600082815260200190815260200160002060040160009054906101000a900460ff161561039a576040517f08c379a000000000000000000000000000000000000000000000000000000000815260040161039190611801565b60405180910390fd5b60008690508073ffffffffffffffffffffffffffffffffffffffff166323b872dd3330896040518463ffffffff1660e01b81526004016103dc93929190611830565b6020604051808303816000875af11580156103fb573d6000803e3d6000fd5b505050506040513d601f19601f8201168201806040525081019061041f9190611893565b5060006040518060c001604052803373ffffffffffffffffffffffffffffffffffffffff1681526020018973ffffffffffffffffffffffffffffffffffffffff16815260200188815260200187815260200160011515815260200186868080601f016020809104026020016040519081016040528093929190818152602001838380828437600081840152601f19601f820116905080830192505050505050508152509050806002600085815260200190815260200160002060008201518160000160006101000a81548173ffffffffffffffffffffffffffffffffffffffff021916908373ffffffffffffffffffffffffffffffffffffffff16021790555060208201518160010160006101000a81548173ffffffffffffffffffffffffffffffffffffffff021916908373ffffffffffffffffffffffffffffffffffffffff160217905550604082015181600201556060820151816003015560808201518160040160006101000a81548160ff02191690831515021790555060a08201518160050190816105af9190611b06565b509050503373ffffffffffffffffffffffffffffffffffffffff167fb2d817df1a92003b7e8b40681145547601989b987e206c6f7d0bc46369652913848a898b6040516105ff9493929190611bd8565b60405180910390a2505095945050505050565b823373ffffffffffffffffffffffffffffffffffffffff166002600083815260200190815260200160002060000160009054906101000a900473ffffffffffffffffffffffffffffffffffffffff1673ffffffffffffffffffffffffffffffffffffffff16146106b7576040517f08c379a00000000000000000000000000000000000000000000000000000000081526004016106ae906116e5565b60405180910390fd5b6106c18383610fdb565b60006002600086815260200190815260200160002090508060040160009054906101000a900460ff16156106f9576106f8856101ab565b5b60008160010160009054906101000a900473ffffffffffffffffffffffffffffffffffffffff1690508073ffffffffffffffffffffffffffffffffffffffff1663a9059cbb8360000160009054906101000a900473ffffffffffffffffffffffffffffffffffffffff1684600201546040518363ffffffff1660e01b8152600401610785929190611c1d565b6020604051808303816000875af11580156107a4573d6000803e3d6000fd5b505050506040513d601f19601f820116820180604052508101906107c89190611893565b50600082600201549050600083600201819055503373ffffffffffffffffffffffffffffffffffffffff167fbc44d79619424e05dd4e8ea6a3e67823f43e45cf0c9b52463ec7a8806146991d8883604051610824929190611c46565b60405180910390a250505050505050565b60006003600087815260200190815260200160002090506000600260008360000154815260200190815260200160002090506000600260008460000154815260200190815260200160002060050183600401548860405160200161089b93929190611cf2565b6040516020818303038152906040528051906020012090506004600082815260200190815260200160002060009054906101000a900460ff1615610914576040517f08c379a000000000000000000000000000000000000000000000000000000000815260040161090b90611d9d565b60405180910390fd5b6000600182868989604051600081526020016040526040516109399493929190611dcc565b6020604051602081039080840390855afa15801561095b573d6000803e3d6000fd5b505050602060405103519050600160008273ffffffffffffffffffffffffffffffffffffffff1673ffffffffffffffffffffffffffffffffffffffff16815260200190815260200160002060009054906101000a900460ff166109f3576040517f08c379a00000000000000000000000000000000000000000000000000000000081526004016109ea90611e5d565b60405180910390fd5b60008360010160009054906101000a900473ffffffffffffffffffffffffffffffffffffffff1690508073ffffffffffffffffffffffffffffffffffffffff1663a9059cbb8660010160009054906101000a900473ffffffffffffffffffffffffffffffffffffffff1687600301548860050154610a719190611eac565b6040518363ffffffff1660e01b8152600401610a8e929190611c1d565b6020604051808303816000875af1158015610aad573d6000803e3d6000fd5b505050506040513d601f19601f82011682018060405250810190610ad19190611893565b50600085600301541115610b87578073ffffffffffffffffffffffffffffffffffffffff1663a9059cbb8660020160009054906101000a900473ffffffffffffffffffffffffffffffffffffffff1687600301546040518363ffffffff1660e01b8152600401610b42929190611c1d565b6020604051808303816000875af1158015610b61573d6000803e3d6000fd5b505050506040513d601f19601f82011682018060405250810190610b859190611893565b505b6000856004018190555060016004600085815260200190815260200160002060006101000a81548160ff0219169083151502179055508460010160009054906101000a900473ffffffffffffffffffffffffffffffffffffffff1673ffffffffffffffffffffffffffffffffffffffff167f5e420822d2f7281fdc4b763c62c8b7874bf22108a35efe93144d79296aacc67d8b604051610c279190611361565b60405180910390a250505050505050505050565b6000610c478383610fdb565b6000600260008a815260200190815260200160002090508060040160009054906101000a900460ff16610caf576040517f08c379a0000000000000000000000000000000000000000000000000000000008152600401610ca690611f2c565b60405180910390fd5b806003015485610cbf9190611f7b565b816002015411610d04576040517f08c379a0000000000000000000000000000000000000000000000000000000008152600401610cfb90611ff8565b60405180910390fd5b888589604051602001610d1993929190612081565b60405160208183030381529060405280519060200120915043600360008481526020019081526020016000206006015410610d89576040517f08c379a0000000000000000000000000000000000000000000000000000000008152600401610d8090612130565b60405180910390fd5b60006040518060e001604052808b81526020018a73ffffffffffffffffffffffffffffffffffffffff1681526020018973ffffffffffffffffffffffffffffffffffffffff168152602001888152602001878152602001836003015488610df09190611f7b565b815260200160005443610e039190612150565b815250905080600360008581526020019081526020016000206000820151816000015560208201518160010160006101000a81548173ffffffffffffffffffffffffffffffffffffffff021916908373ffffffffffffffffffffffffffffffffffffffff16021790555060408201518160020160006101000a81548173ffffffffffffffffffffffffffffffffffffffff021916908373ffffffffffffffffffffffffffffffffffffffff160217905550606082015181600301556080820151816004015560a0820151816005015560c0820151816006015590505085826002016000828254610ef39190611eac565b92505081905550828973ffffffffffffffffffffffffffffffffffffffff167f51a2e0610065407cec419b292d4e03c1149e2336f34bc3bdab24dba9fe7edbff8c89604051610f43929190611c46565b60405180910390a35050979650505050505050565b60005481565b60016020528060005260406000206000915054906101000a900460ff1681565b6000600260008481526020019081526020016000209050818160030181905550827f42dfc0c297064717f06aefc162216c94dc59f9a1af9ff6ed92f00cadbe9ba80383604051610fce91906115a4565b60405180910390a2505050565b600082829050905060005b818161ffff16101561115e5760006003600086868561ffff1681811061100f5761100e612184565b5b905060200201358152602001908152602001600020905043816006015410801561103d575060008160040154115b61107c576040517f08c379a000000000000000000000000000000000000000000000000000000000815260040161107390612225565b60405180910390fd5b8060040154600260008360000154815260200190815260200160002060020160008282546110aa9190612150565b92505081905550600081600401819055508060010160009054906101000a900473ffffffffffffffffffffffffffffffffffffffff1673ffffffffffffffffffffffffffffffffffffffff167f67e089478e21dd12c98e69331c4152f6c9b2038b91e0f28268ffa01558c0b4ff86868561ffff1681811061112e5761112d612184565b5b905060200201356040516111429190611361565b60405180910390a250808061115690612253565b915050610fe6565b50505050565b600080fd5b600080fd5b6000819050919050565b6111818161116e565b811461118c57600080fd5b50565b60008135905061119e81611178565b92915050565b6000602082840312156111ba576111b9611164565b5b60006111c88482850161118f565b91505092915050565b600073ffffffffffffffffffffffffffffffffffffffff82169050919050565b60006111fc826111d1565b9050919050565b61120c816111f1565b811461121757600080fd5b50565b60008135905061122981611203565b92915050565b6000819050919050565b6112428161122f565b811461124d57600080fd5b50565b60008135905061125f81611239565b92915050565b600080fd5b600080fd5b600080fd5b60008083601f84011261128a57611289611265565b5b8235905067ffffffffffffffff8111156112a7576112a661126a565b5b6020830191508360018202830111156112c3576112c261126f565b5b9250929050565b6000806000806000608086880312156112e6576112e5611164565b5b60006112f48882890161121a565b955050602061130588828901611250565b945050604061131688828901611250565b935050606086013567ffffffffffffffff81111561133757611336611169565b5b61134388828901611274565b92509250509295509295909350565b61135b8161116e565b82525050565b60006020820190506113766000830184611352565b92915050565b60008083601f84011261139257611391611265565b5b8235905067ffffffffffffffff8111156113af576113ae61126a565b5b6020830191508360208202830111156113cb576113ca61126f565b5b9250929050565b6000806000604084860312156113eb576113ea611164565b5b60006113f98682870161118f565b935050602084013567ffffffffffffffff81111561141a57611419611169565b5b6114268682870161137c565b92509250509250925092565b600060ff82169050919050565b61144881611432565b811461145357600080fd5b50565b6000813590506114658161143f565b92915050565b600080600080600060a0868803121561148757611486611164565b5b60006114958882890161118f565b95505060206114a688828901611250565b94505060406114b78882890161118f565b93505060606114c88882890161118f565b92505060806114d988828901611456565b9150509295509295909350565b600080600080600080600060c0888a03121561150557611504611164565b5b60006115138a828b0161118f565b97505060206115248a828b0161121a565b96505060406115358a828b0161121a565b95505060606115468a828b01611250565b94505060806115578a828b01611250565b93505060a088013567ffffffffffffffff81111561157857611577611169565b5b6115848a828b0161137c565b925092505092959891949750929550565b61159e8161122f565b82525050565b60006020820190506115b96000830184611595565b92915050565b6000602082840312156115d5576115d4611164565b5b60006115e38482850161121a565b91505092915050565b60008115159050919050565b611601816115ec565b82525050565b600060208201905061161c60008301846115f8565b92915050565b6000806040838503121561163957611638611164565b5b60006116478582860161118f565b925050602061165885828601611250565b9150509250929050565b600082825260208201905092915050565b7f50325049583a204f6e6c792073656c6c657220636f756c642063616c6c20746860008201527f69732066756e6374696f6e2e0000000000000000000000000000000000000000602082015250565b60006116cf602c83611662565b91506116da82611673565b604082019050919050565b600060208201905081810360008301526116fe816116c2565b9050919050565b600081905092915050565b82818337600083830152505050565b600061172b8385611705565b9350611738838584611710565b82840190509392505050565b6000819050919050565b61175f61175a8261122f565b611744565b82525050565b600061177282858761171f565b915061177e828461174e565b602082019150819050949350505050565b7f50325049583a204465706f73697420616c726561647920657869737420616e6460008201527f206974206973207374696c6c2076616c69640000000000000000000000000000602082015250565b60006117eb603283611662565b91506117f68261178f565b604082019050919050565b6000602082019050818103600083015261181a816117de565b9050919050565b61182a816111f1565b82525050565b60006060820190506118456000830186611821565b6118526020830185611821565b61185f6040830184611595565b949350505050565b611870816115ec565b811461187b57600080fd5b50565b60008151905061188d81611867565b92915050565b6000602082840312156118a9576118a8611164565b5b60006118b78482850161187e565b91505092915050565b600081519050919050565b7f4e487b7100000000000000000000000000000000000000000000000000000000600052604160045260246000fd5b7f4e487b7100000000000000000000000000000000000000000000000000000000600052602260045260246000fd5b6000600282049050600182168061194157607f821691505b602082108103611954576119536118fa565b5b50919050565b60008190508160005260206000209050919050565b60006020601f8301049050919050565b600082821b905092915050565b6000600883026119bc7fffffffffffffffffffffffffffffffffffffffffffffffffffffffffffffffff8261197f565b6119c6868361197f565b95508019841693508086168417925050509392505050565b6000819050919050565b6000611a036119fe6119f98461122f565b6119de565b61122f565b9050919050565b6000819050919050565b611a1d836119e8565b611a31611a2982611a0a565b84845461198c565b825550505050565b600090565b611a46611a39565b611a51818484611a14565b505050565b5b81811015611a7557611a6a600082611a3e565b600181019050611a57565b5050565b601f821115611aba57611a8b8161195a565b611a948461196f565b81016020851015611aa3578190505b611ab7611aaf8561196f565b830182611a56565b50505b505050565b600082821c905092915050565b6000611add60001984600802611abf565b1980831691505092915050565b6000611af68383611acc565b9150826002028217905092915050565b611b0f826118c0565b67ffffffffffffffff811115611b2857611b276118cb565b5b611b328254611929565b611b3d828285611a79565b600060209050601f831160018114611b705760008415611b5e578287015190505b611b688582611aea565b865550611bd0565b601f198416611b7e8661195a565b60005b82811015611ba657848901518255600182019150602085019450602081019050611b81565b86831015611bc35784890151611bbf601f891682611acc565b8355505b6001600288020188555050505b505050505050565b6000608082019050611bed6000830187611352565b611bfa6020830186611821565b611c076040830185611595565b611c146060830184611595565b95945050505050565b6000604082019050611c326000830185611821565b611c3f6020830184611595565b9392505050565b6000604082019050611c5b6000830185611352565b611c686020830184611595565b9392505050565b60008154611c7c81611929565b611c868186611705565b94506001821660008114611ca15760018114611cb657611ce9565b60ff1983168652811515820286019350611ce9565b611cbf8561195a565b60005b83811015611ce157815481890152600182019150602081019050611cc2565b838801955050505b50505092915050565b6000611cfe8286611c6f565b9150611d0a828561174e565b602082019150611d1a828461174e565b602082019150819050949350505050565b7f5472616e73616374696f6e20616c7265616479207573656420746f20756e6c6f60008201527f636b207061796d656e742e000000000000000000000000000000000000000000602082015250565b6000611d87602b83611662565b9150611d9282611d2b565b604082019050919050565b60006020820190508181036000830152611db681611d7a565b9050919050565b611dc681611432565b82525050565b6000608082019050611de16000830187611352565b611dee6020830186611dbd565b611dfb6040830185611352565b611e086060830184611352565b95945050505050565b7f5369676e6572206973206e6f7420612076616c6964207369676e65722e000000600082015250565b6000611e47601d83611662565b9150611e5282611e11565b602082019050919050565b60006020820190508181036000830152611e7681611e3a565b9050919050565b7f4e487b7100000000000000000000000000000000000000000000000000000000600052601160045260246000fd5b6000611eb78261122f565b9150611ec28361122f565b9250828203905081811115611eda57611ed9611e7d565b5b92915050565b7f50325049583a204465706f736974206e6f742076616c696420616e796d6f7265600082015250565b6000611f16602083611662565b9150611f2182611ee0565b602082019050919050565b60006020820190508181036000830152611f4581611f09565b9050919050565b7f4e487b7100000000000000000000000000000000000000000000000000000000600052601260045260246000fd5b6000611f868261122f565b9150611f918361122f565b925082611fa157611fa0611f4c565b5b828204905092915050565b7f50325049583a204e6f7420656e6f7567682072656d61696e696e670000000000600082015250565b6000611fe2601b83611662565b9150611fed82611fac565b602082019050919050565b6000602082019050818103600083015261201181611fd5565b9050919050565b6000819050919050565b61203361202e8261116e565b612018565b82525050565b60008160601b9050919050565b600061205182612039565b9050919050565b600061206382612046565b9050919050565b61207b612076826111f1565b612058565b82525050565b600061208d8286612022565b60208201915061209d828561174e565b6020820191506120ad828461206a565b601482019150819050949350505050565b7f50325049583a20416e6f74686572206c6f636b20776974682073616d6520494460008201527f206973206e6f7420657870697265642079657400000000000000000000000000602082015250565b600061211a603383611662565b9150612125826120be565b604082019050919050565b600060208201905081810360008301526121498161210d565b9050919050565b600061215b8261122f565b91506121668361122f565b925082820190508082111561217e5761217d611e7d565b5b92915050565b7f4e487b7100000000000000000000000000000000000000000000000000000000600052603260045260246000fd5b7f50325049583a204c6f636b206e6f742065787069726564206f7220616c72656160008201527f6479207061696400000000000000000000000000000000000000000000000000602082015250565b600061220f602783611662565b915061221a826121b3565b604082019050919050565b6000602082019050818103600083015261223e81612202565b9050919050565b600061ffff82169050919050565b600061225e82612245565b915061ffff820361227257612271611e7d565b5b60018201905091905056fea2646970667358221220c53996c989fa22a5161ea19229cf4a37bd9ddd0c602f2269f8b7baaaf7c9ff5a64736f6c63430008110033",
  "linkReferences": {},
  "deployedLinkReferences": {}
}