{
  "_format": "hh-sol-artifact-1",
  "contractName": "P2PIX",
  "sourceName": "contracts/p2pix.sol",
  "abi": [
    {
      "inputs": [
        {
          "internalType": "uint256",
          "name": "defaultBlocks",
          "type": "uint256"
        },
        {
          "internalType": "address[]",
          "name": "validSigners",
          "type": "address[]"
        }
      ],
      "stateMutability": "nonpayable",
      "type": "constructor"
    },
    {
      "anonymous": false,
      "inputs": [
        {
          "indexed": true,
          "internalType": "address",
          "name": "seller",
          "type": "address"
        },
        {
          "indexed": false,
          "internalType": "bytes32",
          "name": "depositID",
          "type": "bytes32"
        },
        {
          "indexed": false,
          "internalType": "address",
          "name": "token",
          "type": "address"
        },
        {
          "indexed": false,
          "internalType": "uint256",
          "name": "price",
          "type": "uint256"
        },
        {
          "indexed": false,
          "internalType": "uint256",
          "name": "amount",
          "type": "uint256"
        }
      ],
      "name": "DepositAdded",
      "type": "event"
    },
    {
      "anonymous": false,
      "inputs": [
        {
          "indexed": true,
          "internalType": "address",
          "name": "seller",
          "type": "address"
        },
        {
          "indexed": false,
          "internalType": "bytes32",
          "name": "depositID",
          "type": "bytes32"
        }
      ],
      "name": "DepositClosed",
      "type": "event"
    },
    {
      "anonymous": false,
      "inputs": [
        {
          "indexed": true,
          "internalType": "bytes32",
          "name": "depositID",
          "type": "bytes32"
        },
        {
          "indexed": false,
          "internalType": "uint256",
          "name": "price",
          "type": "uint256"
        }
      ],
      "name": "DepositPriceChanged",
      "type": "event"
    },
    {
      "anonymous": false,
      "inputs": [
        {
          "indexed": true,
          "internalType": "address",
          "name": "seller",
          "type": "address"
        },
        {
          "indexed": false,
          "internalType": "bytes32",
          "name": "depositID",
          "type": "bytes32"
        },
        {
          "indexed": false,
          "internalType": "uint256",
          "name": "amount",
          "type": "uint256"
        }
      ],
      "name": "DepositWithdrawn",
      "type": "event"
    },
    {
      "anonymous": false,
      "inputs": [
        {
          "indexed": true,
          "internalType": "address",
          "name": "buyer",
          "type": "address"
        },
        {
          "indexed": true,
          "internalType": "bytes32",
          "name": "lockID",
          "type": "bytes32"
        },
        {
          "indexed": false,
          "internalType": "bytes32",
          "name": "depositID",
          "type": "bytes32"
        },
        {
          "indexed": false,
          "internalType": "uint256",
          "name": "amount",
          "type": "uint256"
        },
        {
          "indexed": false,
          "internalType": "uint256",
          "name": "locked",
          "type": "uint256"
        }
      ],
      "name": "LockAdded",
      "type": "event"
    },
    {
      "anonymous": false,
      "inputs": [
        {
          "indexed": true,
          "internalType": "address",
          "name": "buyer",
          "type": "address"
        },
        {
          "indexed": false,
          "internalType": "bytes32",
          "name": "lockId",
          "type": "bytes32"
        }
      ],
      "name": "LockReleased",
      "type": "event"
    },
    {
      "anonymous": false,
      "inputs": [
        {
          "indexed": true,
          "internalType": "address",
          "name": "buyer",
          "type": "address"
        },
        {
          "indexed": false,
          "internalType": "bytes32",
          "name": "lockId",
          "type": "bytes32"
        }
      ],
      "name": "LockReturned",
      "type": "event"
    },
    {
      "inputs": [
        {
          "internalType": "bytes32",
          "name": "depositID",
          "type": "bytes32"
        }
      ],
      "name": "cancelDeposit",
      "outputs": [],
      "stateMutability": "nonpayable",
      "type": "function"
    },
    {
      "inputs": [
        {
          "internalType": "bytes32",
          "name": "depositID",
          "type": "bytes32"
        },
        {
          "internalType": "uint256",
          "name": "price",
          "type": "uint256"
        }
      ],
      "name": "changeDepositPrice",
      "outputs": [],
      "stateMutability": "nonpayable",
      "type": "function"
    },
    {
      "inputs": [],
      "name": "defaultLockBlocks",
      "outputs": [
        {
          "internalType": "uint256",
          "name": "",
          "type": "uint256"
        }
      ],
      "stateMutability": "view",
      "type": "function"
    },
    {
      "inputs": [
        {
          "internalType": "address",
          "name": "token",
          "type": "address"
        },
        {
          "internalType": "uint256",
          "name": "amount",
          "type": "uint256"
        },
        {
          "internalType": "uint256",
          "name": "price",
          "type": "uint256"
        },
        {
          "internalType": "string",
          "name": "pixTarget",
          "type": "string"
        }
      ],
      "name": "deposit",
      "outputs": [
        {
          "internalType": "bytes32",
          "name": "depositID",
          "type": "bytes32"
        }
      ],
      "stateMutability": "nonpayable",
      "type": "function"
    },
    {
      "inputs": [
        {
          "internalType": "bytes32",
          "name": "depositID",
          "type": "bytes32"
        },
        {
          "internalType": "address",
          "name": "targetAddress",
          "type": "address"
        },
        {
          "internalType": "address",
          "name": "relayerAddress",
          "type": "address"
        },
        {
          "internalType": "uint256",
          "name": "relayerPremium",
          "type": "uint256"
        },
        {
          "internalType": "uint256",
          "name": "amount",
          "type": "uint256"
        },
        {
          "internalType": "bytes32[]",
          "name": "expiredLocks",
          "type": "bytes32[]"
        }
      ],
      "name": "lock",
      "outputs": [
        {
          "internalType": "bytes32",
          "name": "lockID",
          "type": "bytes32"
        }
      ],
      "stateMutability": "nonpayable",
      "type": "function"
    },
    {
      "inputs": [
        {
          "internalType": "bytes32",
          "name": "lockID",
          "type": "bytes32"
        },
        {
          "internalType": "uint256",
          "name": "pixTimestamp",
          "type": "uint256"
        },
        {
          "internalType": "bytes32",
          "name": "r",
          "type": "bytes32"
        },
        {
          "internalType": "bytes32",
          "name": "s",
          "type": "bytes32"
        },
        {
          "internalType": "uint8",
          "name": "v",
          "type": "uint8"
        }
      ],
      "name": "release",
      "outputs": [],
      "stateMutability": "nonpayable",
      "type": "function"
    },
    {
      "inputs": [
        {
          "internalType": "bytes32[]",
          "name": "lockIDs",
          "type": "bytes32[]"
        }
      ],
      "name": "unlockExpired",
      "outputs": [],
      "stateMutability": "nonpayable",
      "type": "function"
    },
    {
      "inputs": [
        {
          "internalType": "address",
          "name": "",
          "type": "address"
        }
      ],
      "name": "validBacenSigners",
      "outputs": [
        {
          "internalType": "bool",
          "name": "",
          "type": "bool"
        }
      ],
      "stateMutability": "view",
      "type": "function"
    },
    {
      "inputs": [
        {
          "internalType": "bytes32",
          "name": "depositID",
          "type": "bytes32"
        },
        {
          "internalType": "bytes32[]",
          "name": "expiredLocks",
          "type": "bytes32[]"
        }
      ],
      "name": "withdraw",
      "outputs": [],
      "stateMutability": "nonpayable",
      "type": "function"
    }
  ],
  "bytecode": "0x60806040523480156200001157600080fd5b50604051620029a5380380620029a583398181016040528101906200003791906200030d565b8160008190555060005b81518160ff161015620000db576001806000848460ff16815181106200006c576200006b62000373565b5b602002602001015173ffffffffffffffffffffffffffffffffffffffff1673ffffffffffffffffffffffffffffffffffffffff16815260200190815260200160002060006101000a81548160ff0219169083151502179055508080620000d290620003de565b91505062000041565b5050506200040c565b6000604051905090565b600080fd5b600080fd5b6000819050919050565b6200010d81620000f8565b81146200011957600080fd5b50565b6000815190506200012d8162000102565b92915050565b600080fd5b6000601f19601f8301169050919050565b7f4e487b7100000000000000000000000000000000000000000000000000000000600052604160045260246000fd5b620001838262000138565b810181811067ffffffffffffffff82111715620001a557620001a462000149565b5b80604052505050565b6000620001ba620000e4565b9050620001c8828262000178565b919050565b600067ffffffffffffffff821115620001eb57620001ea62000149565b5b602082029050602081019050919050565b600080fd5b600073ffffffffffffffffffffffffffffffffffffffff82169050919050565b60006200022e8262000201565b9050919050565b620002408162000221565b81146200024c57600080fd5b50565b600081519050620002608162000235565b92915050565b60006200027d6200027784620001cd565b620001ae565b90508083825260208201905060208402830185811115620002a357620002a2620001fc565b5b835b81811015620002d05780620002bb88826200024f565b845260208401935050602081019050620002a5565b5050509392505050565b600082601f830112620002f257620002f162000133565b5b81516200030484826020860162000266565b91505092915050565b60008060408385031215620003275762000326620000ee565b5b600062000337858286016200011c565b925050602083015167ffffffffffffffff8111156200035b576200035a620000f3565b5b6200036985828601620002da565b9150509250929050565b7f4e487b7100000000000000000000000000000000000000000000000000000000600052603260045260246000fd5b7f4e487b7100000000000000000000000000000000000000000000000000000000600052601160045260246000fd5b600060ff82169050919050565b6000620003eb82620003d1565b915060ff8203620004015762000400620003a2565b5b600182019050919050565b612589806200041c6000396000f3fe608060405234801561001057600080fd5b50600436106100935760003560e01c8063708ace6511610066578063708ace651461011c5780638e2749d61461014c5780639872dbfe14610168578063b93bd7d414610186578063e33f7291146101b657610093565b806331404484146100985780633a8cbc38146100b45780634b83a7be146100e45780634e1389ed14610100575b600080fd5b6100b260048036038101906100ad9190611264565b6101d2565b005b6100ce60048036038101906100c9919061138a565b61032e565b6040516100db9190611421565b60405180910390f35b6100fe60048036038101906100f99190611492565b610639565b005b61011a6004803603810190610115919061152b565b61085c565b005b610136600480360381019061013191906115a6565b610cee565b6040516101439190611421565b60405180910390f35b61016660048036038101906101619190611655565b611018565b005b6101706111a1565b60405161017d91906116b1565b60405180910390f35b6101a0600480360381019061019b91906116cc565b6111a7565b6040516101ad9190611714565b60405180910390f35b6101d060048036038101906101cb919061172f565b6111c7565b005b803373ffffffffffffffffffffffffffffffffffffffff166002600083815260200190815260200160002060000160009054906101000a900473ffffffffffffffffffffffffffffffffffffffff1673ffffffffffffffffffffffffffffffffffffffff1614610277576040517f08c379a000000000000000000000000000000000000000000000000000000000815260040161026e906117f2565b60405180910390fd5b60006002600084815260200190815260200160002060040160006101000a81548160ff0219169083151502179055506002600083815260200190815260200160002060000160009054906101000a900473ffffffffffffffffffffffffffffffffffffffff1673ffffffffffffffffffffffffffffffffffffffff167f81a84d666c6a692c1cf93ca3b3648cc7bf23d34a1c6afa2e15e346f424baa06c836040516103229190611421565b60405180910390a25050565b600082828660405160200161034593929190611872565b6040516020818303038152906040528051906020012090506002600082815260200190815260200160002060040160009054906101000a900460ff16156103c1576040517f08c379a00000000000000000000000000000000000000000000000000000000081526004016103b89061190e565b60405180910390fd5b60008690508073ffffffffffffffffffffffffffffffffffffffff166323b872dd3330896040518463ffffffff1660e01b81526004016104039392919061193d565b6020604051808303816000875af1158015610422573d6000803e3d6000fd5b505050506040513d601f19601f8201168201806040525081019061044691906119a0565b5060006040518060c001604052803373ffffffffffffffffffffffffffffffffffffffff1681526020018973ffffffffffffffffffffffffffffffffffffffff16815260200188815260200187815260200160011515815260200186868080601f016020809104026020016040519081016040528093929190818152602001838380828437600081840152601f19601f820116905080830192505050505050508152509050806002600085815260200190815260200160002060008201518160000160006101000a81548173ffffffffffffffffffffffffffffffffffffffff021916908373ffffffffffffffffffffffffffffffffffffffff16021790555060208201518160010160006101000a81548173ffffffffffffffffffffffffffffffffffffffff021916908373ffffffffffffffffffffffffffffffffffffffff160217905550604082015181600201556060820151816003015560808201518160040160006101000a81548160ff02191690831515021790555060a08201518160050190816105d69190611c13565b509050503373ffffffffffffffffffffffffffffffffffffffff167fb2d817df1a92003b7e8b40681145547601989b987e206c6f7d0bc46369652913848a898b6040516106269493929190611ce5565b60405180910390a2505095945050505050565b823373ffffffffffffffffffffffffffffffffffffffff166002600083815260200190815260200160002060000160009054906101000a900473ffffffffffffffffffffffffffffffffffffffff1673ffffffffffffffffffffffffffffffffffffffff16146106de576040517f08c379a00000000000000000000000000000000000000000000000000000000081526004016106d5906117f2565b60405180910390fd5b6106e88383611018565b60006002600086815260200190815260200160002090508060040160009054906101000a900460ff16156107205761071f856101d2565b5b60008160010160009054906101000a900473ffffffffffffffffffffffffffffffffffffffff1690508073ffffffffffffffffffffffffffffffffffffffff1663a9059cbb8360000160009054906101000a900473ffffffffffffffffffffffffffffffffffffffff1684600201546040518363ffffffff1660e01b81526004016107ac929190611d2a565b6020604051808303816000875af11580156107cb573d6000803e3d6000fd5b505050506040513d601f19601f820116820180604052508101906107ef91906119a0565b50600082600201549050600083600201819055503373ffffffffffffffffffffffffffffffffffffffff167fbc44d79619424e05dd4e8ea6a3e67823f43e45cf0c9b52463ec7a8806146991d888360405161084b929190611d53565b60405180910390a250505050505050565b600060036000878152602001908152602001600020905043816006015411801561088a575060008160050154115b6108c9576040517f08c379a00000000000000000000000000000000000000000000000000000000081526004016108c090611dee565b60405180910390fd5b6000600260008360000154815260200190815260200160002090506000600260008460000154815260200190815260200160002060050183600401548860405160200161091893929190611e91565b6040516020818303038152906040528051906020012090506000816040516020016109439190611f37565b6040516020818303038152906040528051906020012090506004600083815260200190815260200160002060009054906101000a900460ff16156109bc576040517f08c379a00000000000000000000000000000000000000000000000000000000081526004016109b390611fcf565b60405180910390fd5b6000600182878a8a604051600081526020016040526040516109e19493929190611ffe565b6020604051602081039080840390855afa158015610a03573d6000803e3d6000fd5b505050602060405103519050600160008273ffffffffffffffffffffffffffffffffffffffff1673ffffffffffffffffffffffffffffffffffffffff16815260200190815260200160002060009054906101000a900460ff16610a9b576040517f08c379a0000000000000000000000000000000000000000000000000000000008152600401610a92906120b5565b60405180910390fd5b60008460010160009054906101000a900473ffffffffffffffffffffffffffffffffffffffff1690508073ffffffffffffffffffffffffffffffffffffffff1663a9059cbb8760010160009054906101000a900473ffffffffffffffffffffffffffffffffffffffff1688600301548960050154610b199190612104565b6040518363ffffffff1660e01b8152600401610b36929190611d2a565b6020604051808303816000875af1158015610b55573d6000803e3d6000fd5b505050506040513d601f19601f82011682018060405250810190610b7991906119a0565b50600086600301541115610c2f578073ffffffffffffffffffffffffffffffffffffffff1663a9059cbb8760020160009054906101000a900473ffffffffffffffffffffffffffffffffffffffff1688600301546040518363ffffffff1660e01b8152600401610bea929190611d2a565b6020604051808303816000875af1158015610c09573d6000803e3d6000fd5b505050506040513d601f19601f82011682018060405250810190610c2d91906119a0565b505b600086600501819055506000866006018190555060016004600086815260200190815260200160002060006101000a81548160ff0219169083151502179055508560010160009054906101000a900473ffffffffffffffffffffffffffffffffffffffff1673ffffffffffffffffffffffffffffffffffffffff167f5e420822d2f7281fdc4b763c62c8b7874bf22108a35efe93144d79296aacc67d8c604051610cd99190611421565b60405180910390a25050505050505050505050565b6000610cfa8383611018565b6000600260008a815260200190815260200160002090508060040160009054906101000a900460ff16610d62576040517f08c379a0000000000000000000000000000000000000000000000000000000008152600401610d5990612184565b60405180910390fd5b60008160030154670de0b6b3a764000087610d7d91906121a4565b610d879190612215565b90508082600201541015610dd0576040517f08c379a0000000000000000000000000000000000000000000000000000000008152600401610dc7906122b8565b60405180910390fd5b89868a604051602001610de593929190612320565b60405160208183030381529060405280519060200120925043600360008581526020019081526020016000206006015410610e55576040517f08c379a0000000000000000000000000000000000000000000000000000000008152600401610e4c906123cf565b60405180910390fd5b60006040518060e001604052808c81526020018b73ffffffffffffffffffffffffffffffffffffffff1681526020018a73ffffffffffffffffffffffffffffffffffffffff16815260200189815260200188815260200183815260200160005443610ec091906123ef565b815250905080600360008681526020019081526020016000206000820151816000015560208201518160010160006101000a81548173ffffffffffffffffffffffffffffffffffffffff021916908373ffffffffffffffffffffffffffffffffffffffff16021790555060408201518160020160006101000a81548173ffffffffffffffffffffffffffffffffffffffff021916908373ffffffffffffffffffffffffffffffffffffffff160217905550606082015181600301556080820151816004015560a0820151816005015560c0820151816006015590505081836002016000828254610fb09190612104565b92505081905550838a73ffffffffffffffffffffffffffffffffffffffff167fd122043a71eaa13e3a89d5660c858559e90861de4a8afcb4a9795e855539d6438d8a8660405161100293929190612423565b60405180910390a3505050979650505050505050565b600082829050905060005b818161ffff16101561119b5760006003600086868561ffff1681811061104c5761104b61245a565b5b905060200201358152602001908152602001600020905043816006015410801561107a575060008160050154115b6110b9576040517f08c379a00000000000000000000000000000000000000000000000000000000081526004016110b0906124fb565b60405180910390fd5b8060050154600260008360000154815260200190815260200160002060020160008282546110e791906123ef565b92505081905550600081600501819055508060010160009054906101000a900473ffffffffffffffffffffffffffffffffffffffff1673ffffffffffffffffffffffffffffffffffffffff167f67e089478e21dd12c98e69331c4152f6c9b2038b91e0f28268ffa01558c0b4ff86868561ffff1681811061116b5761116a61245a565b5b9050602002013560405161117f9190611421565b60405180910390a250808061119390612529565b915050611023565b50505050565b60005481565b60016020528060005260406000206000915054906101000a900460ff1681565b6000600260008481526020019081526020016000209050818160030181905550827f42dfc0c297064717f06aefc162216c94dc59f9a1af9ff6ed92f00cadbe9ba8038360405161121791906116b1565b60405180910390a2505050565b600080fd5b600080fd5b6000819050919050565b6112418161122e565b811461124c57600080fd5b50565b60008135905061125e81611238565b92915050565b60006020828403121561127a57611279611224565b5b60006112888482850161124f565b91505092915050565b600073ffffffffffffffffffffffffffffffffffffffff82169050919050565b60006112bc82611291565b9050919050565b6112cc816112b1565b81146112d757600080fd5b50565b6000813590506112e9816112c3565b92915050565b6000819050919050565b611302816112ef565b811461130d57600080fd5b50565b60008135905061131f816112f9565b92915050565b600080fd5b600080fd5b600080fd5b60008083601f84011261134a57611349611325565b5b8235905067ffffffffffffffff8111156113675761136661132a565b5b6020830191508360018202830111156113835761138261132f565b5b9250929050565b6000806000806000608086880312156113a6576113a5611224565b5b60006113b4888289016112da565b95505060206113c588828901611310565b94505060406113d688828901611310565b935050606086013567ffffffffffffffff8111156113f7576113f6611229565b5b61140388828901611334565b92509250509295509295909350565b61141b8161122e565b82525050565b60006020820190506114366000830184611412565b92915050565b60008083601f84011261145257611451611325565b5b8235905067ffffffffffffffff81111561146f5761146e61132a565b5b60208301915083602082028301111561148b5761148a61132f565b5b9250929050565b6000806000604084860312156114ab576114aa611224565b5b60006114b98682870161124f565b935050602084013567ffffffffffffffff8111156114da576114d9611229565b5b6114e68682870161143c565b92509250509250925092565b600060ff82169050919050565b611508816114f2565b811461151357600080fd5b50565b600081359050611525816114ff565b92915050565b600080600080600060a0868803121561154757611546611224565b5b60006115558882890161124f565b955050602061156688828901611310565b94505060406115778882890161124f565b93505060606115888882890161124f565b925050608061159988828901611516565b9150509295509295909350565b600080600080600080600060c0888a0312156115c5576115c4611224565b5b60006115d38a828b0161124f565b97505060206115e48a828b016112da565b96505060406115f58a828b016112da565b95505060606116068a828b01611310565b94505060806116178a828b01611310565b93505060a088013567ffffffffffffffff81111561163857611637611229565b5b6116448a828b0161143c565b925092505092959891949750929550565b6000806020838503121561166c5761166b611224565b5b600083013567ffffffffffffffff81111561168a57611689611229565b5b6116968582860161143c565b92509250509250929050565b6116ab816112ef565b82525050565b60006020820190506116c660008301846116a2565b92915050565b6000602082840312156116e2576116e1611224565b5b60006116f0848285016112da565b91505092915050565b60008115159050919050565b61170e816116f9565b82525050565b60006020820190506117296000830184611705565b92915050565b6000806040838503121561174657611745611224565b5b60006117548582860161124f565b925050602061176585828601611310565b9150509250929050565b600082825260208201905092915050565b7f50325049583a204f6e6c792073656c6c657220636f756c642063616c6c20746860008201527f69732066756e6374696f6e2e0000000000000000000000000000000000000000602082015250565b60006117dc602c8361176f565b91506117e782611780565b604082019050919050565b6000602082019050818103600083015261180b816117cf565b9050919050565b600081905092915050565b82818337600083830152505050565b60006118388385611812565b935061184583858461181d565b82840190509392505050565b6000819050919050565b61186c611867826112ef565b611851565b82525050565b600061187f82858761182c565b915061188b828461185b565b602082019150819050949350505050565b7f50325049583a204465706f73697420616c726561647920657869737420616e6460008201527f206974206973207374696c6c2076616c69640000000000000000000000000000602082015250565b60006118f860328361176f565b91506119038261189c565b604082019050919050565b60006020820190508181036000830152611927816118eb565b9050919050565b611937816112b1565b82525050565b6000606082019050611952600083018661192e565b61195f602083018561192e565b61196c60408301846116a2565b949350505050565b61197d816116f9565b811461198857600080fd5b50565b60008151905061199a81611974565b92915050565b6000602082840312156119b6576119b5611224565b5b60006119c48482850161198b565b91505092915050565b600081519050919050565b7f4e487b7100000000000000000000000000000000000000000000000000000000600052604160045260246000fd5b7f4e487b7100000000000000000000000000000000000000000000000000000000600052602260045260246000fd5b60006002820490506001821680611a4e57607f821691505b602082108103611a6157611a60611a07565b5b50919050565b60008190508160005260206000209050919050565b60006020601f8301049050919050565b600082821b905092915050565b600060088302611ac97fffffffffffffffffffffffffffffffffffffffffffffffffffffffffffffffff82611a8c565b611ad38683611a8c565b95508019841693508086168417925050509392505050565b6000819050919050565b6000611b10611b0b611b06846112ef565b611aeb565b6112ef565b9050919050565b6000819050919050565b611b2a83611af5565b611b3e611b3682611b17565b848454611a99565b825550505050565b600090565b611b53611b46565b611b5e818484611b21565b505050565b5b81811015611b8257611b77600082611b4b565b600181019050611b64565b5050565b601f821115611bc757611b9881611a67565b611ba184611a7c565b81016020851015611bb0578190505b611bc4611bbc85611a7c565b830182611b63565b50505b505050565b600082821c905092915050565b6000611bea60001984600802611bcc565b1980831691505092915050565b6000611c038383611bd9565b9150826002028217905092915050565b611c1c826119cd565b67ffffffffffffffff811115611c3557611c346119d8565b5b611c3f8254611a36565b611c4a828285611b86565b600060209050601f831160018114611c7d5760008415611c6b578287015190505b611c758582611bf7565b865550611cdd565b601f198416611c8b86611a67565b60005b82811015611cb357848901518255600182019150602085019450602081019050611c8e565b86831015611cd05784890151611ccc601f891682611bd9565b8355505b6001600288020188555050505b505050505050565b6000608082019050611cfa6000830187611412565b611d07602083018661192e565b611d1460408301856116a2565b611d2160608301846116a2565b95945050505050565b6000604082019050611d3f600083018561192e565b611d4c60208301846116a2565b9392505050565b6000604082019050611d686000830185611412565b611d7560208301846116a2565b9392505050565b7f50325049583a204c6f636b20616c72656164792072656c6561736564206f722060008201527f72657475726e6564000000000000000000000000000000000000000000000000602082015250565b6000611dd860288361176f565b9150611de382611d7c565b604082019050919050565b60006020820190508181036000830152611e0781611dcb565b9050919050565b60008154611e1b81611a36565b611e258186611812565b94506001821660008114611e405760018114611e5557611e88565b60ff1983168652811515820286019350611e88565b611e5e85611a67565b60005b83811015611e8057815481890152600182019150602081019050611e61565b838801955050505b50505092915050565b6000611e9d8286611e0e565b9150611ea9828561185b565b602082019150611eb9828461185b565b602082019150819050949350505050565b7f19457468657265756d205369676e6564204d6573736167653a0a333200000000600082015250565b6000611f00601c83611812565b9150611f0b82611eca565b601c82019050919050565b6000819050919050565b611f31611f2c8261122e565b611f16565b82525050565b6000611f4282611ef3565b9150611f4e8284611f20565b60208201915081905092915050565b7f50325049583a205472616e73616374696f6e20616c726561647920757365642060008201527f746f20756e6c6f636b207061796d656e74000000000000000000000000000000602082015250565b6000611fb960318361176f565b9150611fc482611f5d565b604082019050919050565b60006020820190508181036000830152611fe881611fac565b9050919050565b611ff8816114f2565b82525050565b60006080820190506120136000830187611412565b6120206020830186611fef565b61202d6040830185611412565b61203a6060830184611412565b95945050505050565b7f50325049583a205369676e6572206973206e6f7420612076616c69642073696760008201527f6e65720000000000000000000000000000000000000000000000000000000000602082015250565b600061209f60238361176f565b91506120aa82612043565b604082019050919050565b600060208201905081810360008301526120ce81612092565b9050919050565b7f4e487b7100000000000000000000000000000000000000000000000000000000600052601160045260246000fd5b600061210f826112ef565b915061211a836112ef565b9250828203905081811115612132576121316120d5565b5b92915050565b7f50325049583a204465706f736974206e6f742076616c696420616e796d6f7265600082015250565b600061216e60208361176f565b915061217982612138565b602082019050919050565b6000602082019050818103600083015261219d81612161565b9050919050565b60006121af826112ef565b91506121ba836112ef565b92508282026121c8816112ef565b915082820484148315176121df576121de6120d5565b5b5092915050565b7f4e487b7100000000000000000000000000000000000000000000000000000000600052601260045260246000fd5b6000612220826112ef565b915061222b836112ef565b92508261223b5761223a6121e6565b5b828204905092915050565b7f50325049583a204e6f7420656e6f75676820746f6b656e2072656d61696e696e60008201527f67206f6e206465706f7369740000000000000000000000000000000000000000602082015250565b60006122a2602c8361176f565b91506122ad82612246565b604082019050919050565b600060208201905081810360008301526122d181612295565b9050919050565b60008160601b9050919050565b60006122f0826122d8565b9050919050565b6000612302826122e5565b9050919050565b61231a612315826112b1565b6122f7565b82525050565b600061232c8286611f20565b60208201915061233c828561185b565b60208201915061234c8284612309565b601482019150819050949350505050565b7f50325049583a20416e6f74686572206c6f636b20776974682073616d6520494460008201527f206973206e6f7420657870697265642079657400000000000000000000000000602082015250565b60006123b960338361176f565b91506123c48261235d565b604082019050919050565b600060208201905081810360008301526123e8816123ac565b9050919050565b60006123fa826112ef565b9150612405836112ef565b925082820190508082111561241d5761241c6120d5565b5b92915050565b60006060820190506124386000830186611412565b61244560208301856116a2565b61245260408301846116a2565b949350505050565b7f4e487b7100000000000000000000000000000000000000000000000000000000600052603260045260246000fd5b7f50325049583a204c6f636b206e6f742065787069726564206f7220616c72656160008201527f64792072656c6561736564000000000000000000000000000000000000000000602082015250565b60006124e5602b8361176f565b91506124f082612489565b604082019050919050565b60006020820190508181036000830152612514816124d8565b9050919050565b600061ffff82169050919050565b60006125348261251b565b915061ffff8203612548576125476120d5565b5b60018201905091905056fea2646970667358221220b2c46c7bf94e90ea83c1fcb04e9d8c8e81d1f22325b65ab6850361de1bdba86e64736f6c63430008110033",
  "linkReferences": {},
  "deployedLinkReferences": {}
}