{
  "_format": "hh-sol-artifact-1",
  "contractName": "Multicall",
  "sourceName": "contracts/lib/utils/Multicall.sol",
  "abi": [
    {
      "inputs": [],
      "stateMutability": "payable",
      "type": "constructor"
    },
    {
      "inputs": [
        {
          "internalType": "string",
          "name": "reason",
          "type": "string"
        }
      ],
      "name": "CallFailed",
      "type": "error"
    },
    {
      "inputs": [
        {
          "components": [
            {
              "internalType": "address",
              "name": "target",
              "type": "address"
            },
            {
              "internalType": "bytes",
              "name": "callData",
              "type": "bytes"
            }
          ],
          "internalType": "struct Multicall.Call[]",
          "name": "calls",
          "type": "tuple[]"
        }
      ],
      "name": "mtc1",
      "outputs": [
        {
          "internalType": "uint256",
          "name": "",
          "type": "uint256"
        },
        {
          "internalType": "bytes[]",
          "name": "",
          "type": "bytes[]"
        }
      ],
      "stateMutability": "nonpayable",
      "type": "function"
    },
    {
      "inputs": [
        {
          "components": [
            {
              "internalType": "address",
              "name": "target",
              "type": "address"
            },
            {
              "internalType": "bytes",
              "name": "callData",
              "type": "bytes"
            }
          ],
          "internalType": "struct Multicall.Call[]",
          "name": "calls",
          "type": "tuple[]"
        }
      ],
      "name": "mtc2",
      "outputs": [
        {
          "internalType": "uint256",
          "name": "",
          "type": "uint256"
        },
        {
          "internalType": "bytes32",
          "name": "",
          "type": "bytes32"
        },
        {
          "components": [
            {
              "internalType": "bool",
              "name": "success",
              "type": "bool"
            },
            {
              "internalType": "bytes",
              "name": "returnData",
              "type": "bytes"
            }
          ],
          "internalType": "struct Multicall.Result[]",
          "name": "",
          "type": "tuple[]"
        }
      ],
      "stateMutability": "nonpayable",
      "type": "function"
    }
  ],
  "bytecode": "0x6080806040526107fb90816100128239f3fe604060808152600436101561001357600080fd5b6000803560e01c9182631b57b72f1461003c5750506386575ee91461003757600080fd5b610362565b3461015e5761004a36610162565b61005e61005982949394610523565b6104df565b928184527fffffffffffffffffffffffffffffffffffffffffffffffffffffffffffffffe061008c83610523565b01855b81811061013e575050845b8281106100b6578351806100b2874380409084610238565b0390f35b806100cd6100c86101399386866105c7565b61060c565b87806100da8488886105c7565b92816100eb6020958681019061062d565b91906100fb8c518094819361067e565b03925af1906101086106c6565b9061011b6101146104ba565b9315158452565b8201526101288288610755565b526101338187610755565b50610769565b61009a565b6020906101496104ba565b8881528260608183015282890101520161008f565b5080fd5b9060207ffffffffffffffffffffffffffffffffffffffffffffffffffffffffffffffffc8301126101cd5760043567ffffffffffffffff928382116101cd57806023830112156101cd5781600401359384116101cd5760248460051b830101116101cd576024019190565b600080fd5b60005b8381106101e55750506000910152565b81810151838201526020016101d5565b907fffffffffffffffffffffffffffffffffffffffffffffffffffffffffffffffe0601f602093610231815180928187528780880191016101d2565b0116010190565b9160608301918352602090818401526040926060848201528451809352608081018260808560051b8401019601946000925b85841061027b575050505050505090565b9091929394959685806102ca837fffffffffffffffffffffffffffffffffffffffffffffffffffffffffffffff80866001960301885286838d51805115158452015191818582015201906101f5565b99019401940192959493919061026a565b90604082019082526020604081840152835180925260608301928160608460051b8301019501936000915b8483106103165750505050505090565b9091929394958480610352837fffffffffffffffffffffffffffffffffffffffffffffffffffffffffffffffa086600196030187528a516101f5565b9801930193019194939290610306565b346101cd5761037036610162565b6103798161053b565b916000805b83811061039457604051806100b28743836102db565b6103a26100c88286866105c7565b82806103bc6103b28589896105c7565b602081019061062d565b82604095926103cf87518094819361067e565b03925af1906103dc6106c6565b918290156103fa575050906103f5916101288288610755565b61037e565b604483929351106104535761042061044f916004809401602480915183010191016106ec565b92519283927fb5e1dc2d0000000000000000000000000000000000000000000000000000000084528301610744565b0390fd5b82517fb5e1dc2d0000000000000000000000000000000000000000000000000000000081526020600482015260006024820152604490fd5b7f4e487b7100000000000000000000000000000000000000000000000000000000600052604160045260246000fd5b604051906040820182811067ffffffffffffffff8211176104da57604052565b61048b565b907fffffffffffffffffffffffffffffffffffffffffffffffffffffffffffffffe0601f604051930116820182811067ffffffffffffffff8211176104da57604052565b67ffffffffffffffff81116104da5760051b60200190565b9061054861005983610523565b8281527fffffffffffffffffffffffffffffffffffffffffffffffffffffffffffffffe06105768294610523565b019060005b82811061058757505050565b80606060208093850101520161057b565b7f4e487b7100000000000000000000000000000000000000000000000000000000600052603260045260246000fd5b91908110156106075760051b810135907fffffffffffffffffffffffffffffffffffffffffffffffffffffffffffffffc1813603018212156101cd570190565b610598565b3573ffffffffffffffffffffffffffffffffffffffff811681036101cd5790565b9035907fffffffffffffffffffffffffffffffffffffffffffffffffffffffffffffffe1813603018212156101cd570180359067ffffffffffffffff82116101cd576020019181360383136101cd57565b908092918237016000815290565b67ffffffffffffffff81116104da57601f017fffffffffffffffffffffffffffffffffffffffffffffffffffffffffffffffe01660200190565b3d156106e7573d906106da6100598361068c565b9182523d6000602084013e565b606090565b6020818303126101cd5780519067ffffffffffffffff82116101cd570181601f820112156101cd5780516107226100598261068c565b92818452602082840101116101cd5761074191602080850191016101d2565b90565b9060206107419281815201906101f5565b80518210156106075760209160051b010190565b7fffffffffffffffffffffffffffffffffffffffffffffffffffffffffffffffff81146107965760010190565b7f4e487b7100000000000000000000000000000000000000000000000000000000600052601160045260246000fdfea26469706673582212206c86e7cf81738039d37cf5e545b323288faae992e0d08dec8c43f2f2b31f35f664736f6c63430008130033",
  "linkReferences": {},
  "deployedLinkReferences": {}
}