{
  "_format": "hh-sol-artifact-1",
  "contractName": "Reputation",
  "sourceName": "contracts/Reputation.sol",
  "abi": [
    {
      "inputs": [],
      "stateMutability": "nonpayable",
      "type": "constructor"
    },
    {
      "anonymous": false,
      "inputs": [
        {
          "indexed": true,
          "internalType": "address",
          "name": "user",
          "type": "address"
        },
        {
          "indexed": true,
          "internalType": "address",
          "name": "newOwner",
          "type": "address"
        }
      ],
      "name": "OwnerUpdated",
      "type": "event"
    },
    {
      "inputs": [
        {
          "internalType": "uint256",
          "name": "_userCredit",
          "type": "uint256"
        }
      ],
      "name": "limiter",
      "outputs": [
        {
          "internalType": "uint256",
          "name": "_spendLimit",
          "type": "uint256"
        }
      ],
      "stateMutability": "pure",
      "type": "function"
    },
    {
      "inputs": [],
      "name": "magicValue",
      "outputs": [
        {
          "internalType": "uint256",
          "name": "",
          "type": "uint256"
        }
      ],
      "stateMutability": "view",
      "type": "function"
    },
    {
      "inputs": [],
      "name": "maxLimit",
      "outputs": [
        {
          "internalType": "uint256",
          "name": "",
          "type": "uint256"
        }
      ],
      "stateMutability": "view",
      "type": "function"
    },
    {
      "inputs": [],
      "name": "owner",
      "outputs": [
        {
          "internalType": "address",
          "name": "",
          "type": "address"
        }
      ],
      "stateMutability": "view",
      "type": "function"
    },
    {
      "inputs": [
        {
          "internalType": "address",
          "name": "newOwner",
          "type": "address"
        }
      ],
      "name": "setOwner",
      "outputs": [],
      "stateMutability": "nonpayable",
      "type": "function"
    }
  ],
  "bytecode": "0x6080806040523461004f57600080546001600160a01b031916339081178255907f8292fce18fa69edf4db7b94ea2e58241df0ae57f97e0a6c9b29067028bf92d768180a361043e90816100558239f35b600080fdfe608060408181526004918236101561001657600080fd5b600092833560e01c91826313af4035146102f6575081631a861d26146102ba5781634d2b1791146100ec575080638da5cb5b1461009c5763a4b345571461005c57600080fd5b3461009857817ffffffffffffffffffffffffffffffffffffffffffffffffffffffffffffffffc3601126100985760209051643a352944008152f35b5080fd5b503461009857817ffffffffffffffffffffffffffffffffffffffffffffffffffffffffffffffffc3601126100985773ffffffffffffffffffffffffffffffffffffffff60209254169051908152f35b8383346100985760207ffffffffffffffffffffffffffffffffffffffffffffffffffffffffffffffffc36011261009857823591620f4240838102908104840361028e578380029380850481149015171561028e57643a3529440093840180941161028e5760b58471010000000000000000000000000000000000811015610277575b8069010000000000000000006201000092101561026b575b6501000000000081101561025e575b6301000000811015610251575b010260121c9360019480820401851c80820401851c80820401851c80820401851c80820401851c80820401851c80820401851c8080920410908181146102255703900483018093116101f9576020838351908152f35b806011857f4e487b71000000000000000000000000000000000000000000000000000000006024945252fd5b6024846012897f4e487b7100000000000000000000000000000000000000000000000000000000835252fd5b60101c9160081b916101a3565b60201c9160101b91610196565b851c9160201b91610187565b5068b500000000000000009050608085901c61016f565b6024826011877f4e487b7100000000000000000000000000000000000000000000000000000000835252fd5b50503461009857817ffffffffffffffffffffffffffffffffffffffffffffffffffffffffffffffffc3601126100985760209051620f42408152f35b8491346104045760207ffffffffffffffffffffffffffffffffffffffffffffffffffffffffffffffffc3601126104045780359173ffffffffffffffffffffffffffffffffffffffff9182841680940361040057845492831633036103a55750507fffffffffffffffffffffffff00000000000000000000000000000000000000001681178255337f8292fce18fa69edf4db7b94ea2e58241df0ae57f97e0a6c9b29067028bf92d768380a380f35b9060206064927f08c379a0000000000000000000000000000000000000000000000000000000008352820152600c60248201527f554e415554484f52495a454400000000000000000000000000000000000000006044820152fd5b8480fd5b8280fdfea2646970667358221220ebc26f1432d13f128c50ef3a8297ef65a17fc376c17056b77b447e21b462442464736f6c63430008130033",
  "linkReferences": {},
  "deployedLinkReferences": {}
}