{
  "_format": "hh-sol-artifact-1",
  "contractName": "Reputation",
  "sourceName": "contracts/Reputation.sol",
  "abi": [
    {
      "inputs": [],
      "stateMutability": "nonpayable",
      "type": "constructor"
    },
    {
      "inputs": [
        {
          "internalType": "uint256",
          "name": "_userCredit",
          "type": "uint256"
        }
      ],
      "name": "limiter",
      "outputs": [
        {
          "internalType": "uint256",
          "name": "_spendLimit",
          "type": "uint256"
        }
      ],
      "stateMutability": "pure",
      "type": "function"
    },
    {
      "inputs": [],
      "name": "magicValue",
      "outputs": [
        {
          "internalType": "uint256",
          "name": "",
          "type": "uint256"
        }
      ],
      "stateMutability": "view",
      "type": "function"
    },
    {
      "inputs": [],
      "name": "maxLimit",
      "outputs": [
        {
          "internalType": "uint256",
          "name": "",
          "type": "uint256"
        }
      ],
      "stateMutability": "view",
      "type": "function"
    }
  ],
  "bytecode": "0x60808060405234610016576102c9908161001c8239f35b600080fdfe6080806040526004908136101561001557600080fd5b600091823560e01c9182631a861d2614610254575081634d2b179114610085575063a4b345571461004557600080fd5b3461008257807ffffffffffffffffffffffffffffffffffffffffffffffffffffffffffffffffc360112610082576020604051643a352944008152f35b80fd5b82346100825760207ffffffffffffffffffffffffffffffffffffffffffffffffffffffffffffffffc36011261008257813591620f42408381029081048403610228578380029380850481149015171561022857643a352944009384018094116102285760b58471010000000000000000000000000000000000811015610211575b80690100000000000000000062010000921015610204575b650100000000008110156101f7575b63010000008110156101ea575b010260121c9360019480820401851c80820401851c80820401851c80820401851c80820401851c80820401851c80820401851c8080920410908181146101be57039004830180931161019257602083604051908152f35b9060116024927f4e487b7100000000000000000000000000000000000000000000000000000000835252fd5b6024856012867f4e487b7100000000000000000000000000000000000000000000000000000000835252fd5b60101c9160081b9161013b565b60201c9160101b9161012e565b60401c9160201b9161011f565b5068b500000000000000009050608085901c610107565b6024836011847f4e487b7100000000000000000000000000000000000000000000000000000000835252fd5b83903461028f57817ffffffffffffffffffffffffffffffffffffffffffffffffffffffffffffffffc36011261028f5780620f424060209252f35b5080fdfea26469706673582212201f57ae0c5884bdde41f85c3510ca33502ea7408e92d2669d2cb4da374119f5e064736f6c63430008130033",
  "linkReferences": {},
  "deployedLinkReferences": {}
}